{
  "_format": "hh-sol-artifact-1",
  "contractName": "GangsterArena",
  "sourceName": "contracts/GangsterArena.sol",
  "abi": [
    {
      "inputs": [
        {
          "internalType": "address",
          "name": "_defaultAdmin",
          "type": "address"
        },
        {
          "internalType": "address",
          "name": "_adminAddress",
          "type": "address"
        },
        {
          "internalType": "address",
          "name": "_workerAddress",
          "type": "address"
        },
        {
          "internalType": "address",
          "name": "_signerAddress",
          "type": "address"
        },
        {
          "internalType": "address",
          "name": "_pointsOperator",
          "type": "address"
        },
        {
          "internalType": "address",
          "name": "_gangsterAddress",
          "type": "address"
        },
        {
          "internalType": "address payable",
          "name": "_fiatAddress",
          "type": "address"
        }
      ],
      "stateMutability": "nonpayable",
      "type": "constructor"
    },
    {
      "inputs": [],
      "name": "AccessControlBadConfirmation",
      "type": "error"
    },
    {
      "inputs": [
        {
          "internalType": "address",
          "name": "account",
          "type": "address"
        },
        {
          "internalType": "bytes32",
          "name": "neededRole",
          "type": "bytes32"
        }
      ],
      "name": "AccessControlUnauthorizedAccount",
      "type": "error"
    },
    {
      "anonymous": false,
      "inputs": [
        {
          "indexed": false,
          "internalType": "address[]",
          "name": "to",
          "type": "address[]"
        },
        {
          "indexed": false,
          "internalType": "uint256[]",
          "name": "tokenId",
          "type": "uint256[]"
        },
        {
          "indexed": false,
          "internalType": "uint256[]",
          "name": "amount",
          "type": "uint256[]"
        }
      ],
      "name": "Burn",
      "type": "event"
    },
    {
      "anonymous": false,
      "inputs": [
        {
          "indexed": false,
          "internalType": "address[]",
          "name": "to",
          "type": "address[]"
        },
        {
          "indexed": false,
          "internalType": "uint256[]",
          "name": "amount",
          "type": "uint256[]"
        }
      ],
      "name": "BurnGoon",
      "type": "event"
    },
    {
      "anonymous": false,
      "inputs": [
        {
          "indexed": true,
          "internalType": "address",
          "name": "to",
          "type": "address"
        },
        {
          "indexed": false,
          "internalType": "uint256",
          "name": "tokenId",
          "type": "uint256"
        },
        {
          "indexed": false,
          "internalType": "uint256",
          "name": "amount",
          "type": "uint256"
        },
        {
          "indexed": false,
          "internalType": "uint256",
          "name": "nonce",
          "type": "uint256"
        }
      ],
      "name": "BuyGangster",
      "type": "event"
    },
    {
      "anonymous": false,
      "inputs": [
        {
          "indexed": true,
          "internalType": "address",
          "name": "to",
          "type": "address"
        },
        {
          "indexed": false,
          "internalType": "uint256",
          "name": "amount",
          "type": "uint256"
        },
        {
          "indexed": false,
          "internalType": "uint256",
          "name": "nonce",
          "type": "uint256"
        }
      ],
      "name": "BuyGoon",
      "type": "event"
    },
    {
      "anonymous": false,
      "inputs": [
        {
          "indexed": true,
          "internalType": "address",
          "name": "to",
          "type": "address"
        },
        {
          "indexed": false,
          "internalType": "uint256",
          "name": "amount",
          "type": "uint256"
        },
        {
          "indexed": false,
          "internalType": "uint256",
          "name": "nonce",
          "type": "uint256"
        }
      ],
      "name": "BuySafeHouse",
      "type": "event"
    },
    {
      "anonymous": false,
      "inputs": [
        {
          "indexed": true,
          "internalType": "address",
          "name": "to",
          "type": "address"
        },
        {
          "indexed": false,
          "internalType": "uint256",
          "name": "spinType",
          "type": "uint256"
        },
        {
          "indexed": false,
          "internalType": "uint256",
          "name": "amount",
          "type": "uint256"
        },
        {
          "indexed": false,
          "internalType": "uint256",
          "name": "value",
          "type": "uint256"
        },
        {
          "indexed": false,
          "internalType": "uint256",
          "name": "nonce",
          "type": "uint256"
        }
      ],
      "name": "DailySpin",
      "type": "event"
    },
    {
      "anonymous": false,
      "inputs": [
        {
          "indexed": true,
          "internalType": "address",
          "name": "to",
          "type": "address"
        },
        {
          "indexed": false,
          "internalType": "uint256",
          "name": "tokenId",
          "type": "uint256"
        },
        {
          "indexed": false,
          "internalType": "uint256",
          "name": "amount",
          "type": "uint256"
        }
      ],
      "name": "Deposit",
      "type": "event"
    },
    {
      "anonymous": false,
      "inputs": [
        {
          "indexed": false,
          "internalType": "address",
          "name": "to",
          "type": "address"
        },
        {
          "indexed": false,
          "internalType": "uint256",
          "name": "reward",
          "type": "uint256"
        },
        {
          "indexed": false,
          "internalType": "uint256",
          "name": "nonce",
          "type": "uint256"
        }
      ],
      "name": "Retire",
      "type": "event"
    },
    {
      "anonymous": false,
      "inputs": [
        {
          "indexed": true,
          "internalType": "bytes32",
          "name": "role",
          "type": "bytes32"
        },
        {
          "indexed": true,
          "internalType": "bytes32",
          "name": "previousAdminRole",
          "type": "bytes32"
        },
        {
          "indexed": true,
          "internalType": "bytes32",
          "name": "newAdminRole",
          "type": "bytes32"
        }
      ],
      "name": "RoleAdminChanged",
      "type": "event"
    },
    {
      "anonymous": false,
      "inputs": [
        {
          "indexed": true,
          "internalType": "bytes32",
          "name": "role",
          "type": "bytes32"
        },
        {
          "indexed": true,
          "internalType": "address",
          "name": "account",
          "type": "address"
        },
        {
          "indexed": true,
          "internalType": "address",
          "name": "sender",
          "type": "address"
        }
      ],
      "name": "RoleGranted",
      "type": "event"
    },
    {
      "anonymous": false,
      "inputs": [
        {
          "indexed": true,
          "internalType": "bytes32",
          "name": "role",
          "type": "bytes32"
        },
        {
          "indexed": true,
          "internalType": "address",
          "name": "account",
          "type": "address"
        },
        {
          "indexed": true,
          "internalType": "address",
          "name": "sender",
          "type": "address"
        }
      ],
      "name": "RoleRevoked",
      "type": "event"
    },
    {
      "anonymous": false,
      "inputs": [
        {
          "indexed": false,
          "internalType": "address[]",
          "name": "addr",
          "type": "address[]"
        },
        {
          "indexed": false,
          "internalType": "uint256[]",
          "name": "_lGang",
          "type": "uint256[]"
        },
        {
          "indexed": false,
          "internalType": "uint256[]",
          "name": "_wToken",
          "type": "uint256[]"
        }
      ],
      "name": "WarResult",
      "type": "event"
    },
    {
      "anonymous": false,
      "inputs": [
        {
          "indexed": true,
          "internalType": "address",
          "name": "to",
          "type": "address"
        },
        {
          "indexed": false,
          "internalType": "uint256",
          "name": "tokenId",
          "type": "uint256"
        },
        {
          "indexed": false,
          "internalType": "uint256",
          "name": "amount",
          "type": "uint256"
        }
      ],
      "name": "Withdraw",
      "type": "event"
    },
    {
      "stateMutability": "payable",
      "type": "fallback"
    },
    {
      "inputs": [],
      "name": "ADMIN_ROLE",
      "outputs": [
        {
          "internalType": "bytes32",
          "name": "",
          "type": "bytes32"
        }
      ],
      "stateMutability": "view",
      "type": "function"
    },
    {
      "inputs": [],
      "name": "DEFAULT_ADMIN_ROLE",
      "outputs": [
        {
          "internalType": "bytes32",
          "name": "",
          "type": "bytes32"
        }
      ],
      "stateMutability": "view",
      "type": "function"
    },
    {
      "inputs": [],
      "name": "WORKER_ROLE",
      "outputs": [
        {
          "internalType": "bytes32",
          "name": "",
          "type": "bytes32"
        }
      ],
      "stateMutability": "view",
      "type": "function"
    },
    {
      "inputs": [
        {
          "internalType": "uint256",
          "name": "dev_",
          "type": "uint256"
        },
        {
          "internalType": "uint256",
          "name": "burn_",
          "type": "uint256"
        },
        {
          "internalType": "uint256",
          "name": "reputationPrize_",
          "type": "uint256"
        },
        {
          "internalType": "uint256",
          "name": "rankPrize_",
          "type": "uint256"
        }
      ],
      "name": "addReward",
      "outputs": [],
      "stateMutability": "payable",
      "type": "function"
    },
    {
      "inputs": [],
      "name": "burnAddr_",
      "outputs": [
        {
          "internalType": "address",
          "name": "",
          "type": "address"
        }
      ],
      "stateMutability": "view",
      "type": "function"
    },
    {
      "inputs": [],
      "name": "burnValue",
      "outputs": [
        {
          "internalType": "uint256",
          "name": "",
          "type": "uint256"
        }
      ],
      "stateMutability": "view",
      "type": "function"
    },
    {
      "inputs": [
        {
          "internalType": "uint256",
          "name": "_typeA",
          "type": "uint256"
        },
        {
          "internalType": "uint256",
          "name": "_amount",
          "type": "uint256"
        },
        {
          "internalType": "uint256",
          "name": "_value",
          "type": "uint256"
        },
        {
          "internalType": "uint256",
          "name": "_lastB",
          "type": "uint256"
        },
        {
          "internalType": "uint256",
          "name": "_sTime",
          "type": "uint256"
        },
        {
          "internalType": "uint256",
          "name": "_nonce",
          "type": "uint256"
        },
        {
          "internalType": "bytes",
          "name": "_sig",
          "type": "bytes"
        }
      ],
      "name": "buyAsset",
      "outputs": [],
      "stateMutability": "nonpayable",
      "type": "function"
    },
    {
      "inputs": [
        {
          "internalType": "uint256",
          "name": "amount",
          "type": "uint256"
        },
        {
          "internalType": "uint256",
          "name": "value",
          "type": "uint256"
        },
        {
          "internalType": "uint256",
          "name": "time",
          "type": "uint256"
        },
        {
          "internalType": "uint256",
          "name": "nGangster",
          "type": "uint256"
        },
        {
          "internalType": "uint256",
          "name": "nonce",
          "type": "uint256"
        },
        {
          "internalType": "uint256",
          "name": "bType",
          "type": "uint256"
        },
        {
          "internalType": "address",
          "name": "referral",
          "type": "address"
        },
        {
          "internalType": "bytes",
          "name": "sig",
          "type": "bytes"
        }
      ],
      "name": "buyGangster",
      "outputs": [],
      "stateMutability": "nonpayable",
      "type": "function"
    },
    {
      "inputs": [
        {
          "internalType": "address",
          "name": "to",
          "type": "address"
        },
        {
          "internalType": "uint256",
          "name": "amount",
          "type": "uint256"
        }
      ],
      "name": "depositNFT",
      "outputs": [],
      "stateMutability": "nonpayable",
      "type": "function"
    },
    {
      "inputs": [],
      "name": "devAddr_",
      "outputs": [
        {
          "internalType": "address",
          "name": "",
          "type": "address"
        }
      ],
      "stateMutability": "view",
      "type": "function"
    },
    {
      "inputs": [],
      "name": "devValue",
      "outputs": [
        {
          "internalType": "uint256",
          "name": "",
          "type": "uint256"
        }
      ],
      "stateMutability": "view",
      "type": "function"
    },
    {
      "inputs": [],
      "name": "devWithdraw",
      "outputs": [],
      "stateMutability": "nonpayable",
      "type": "function"
    },
    {
      "inputs": [],
      "name": "emegencyWithdraw",
      "outputs": [],
      "stateMutability": "nonpayable",
      "type": "function"
    },
    {
      "inputs": [
        {
          "internalType": "address[]",
          "name": "addr",
          "type": "address[]"
        },
        {
          "internalType": "uint256[]",
          "name": "_lGang",
          "type": "uint256[]"
        },
        {
          "internalType": "uint256[]",
          "name": "_wToken",
          "type": "uint256[]"
        }
      ],
      "name": "finalWarResult",
      "outputs": [],
      "stateMutability": "nonpayable",
      "type": "function"
    },
    {
      "inputs": [],
      "name": "gameClosed",
      "outputs": [
        {
          "internalType": "bool",
          "name": "",
          "type": "bool"
        }
      ],
      "stateMutability": "view",
      "type": "function"
    },
    {
      "inputs": [
        {
          "internalType": "address",
          "name": "",
          "type": "address"
        }
      ],
      "name": "gangsterBought",
      "outputs": [
        {
          "internalType": "uint256",
          "name": "",
          "type": "uint256"
        }
      ],
      "stateMutability": "view",
      "type": "function"
    },
    {
      "inputs": [
        {
          "internalType": "bytes32",
          "name": "role",
          "type": "bytes32"
        }
      ],
      "name": "getRoleAdmin",
      "outputs": [
        {
          "internalType": "bytes32",
          "name": "",
          "type": "bytes32"
        }
      ],
      "stateMutability": "view",
      "type": "function"
    },
    {
      "inputs": [
        {
          "internalType": "bytes32",
          "name": "role",
          "type": "bytes32"
        },
        {
          "internalType": "address",
          "name": "account",
          "type": "address"
        }
      ],
      "name": "grantRole",
      "outputs": [],
      "stateMutability": "nonpayable",
      "type": "function"
    },
    {
      "inputs": [
        {
          "internalType": "bytes32",
          "name": "role",
          "type": "bytes32"
        },
        {
          "internalType": "address",
          "name": "account",
          "type": "address"
        }
      ],
      "name": "hasRole",
      "outputs": [
        {
          "internalType": "bool",
          "name": "",
          "type": "bool"
        }
      ],
      "stateMutability": "view",
      "type": "function"
    },
    {
      "inputs": [
        {
          "internalType": "address",
          "name": "",
          "type": "address"
        },
        {
          "internalType": "uint256",
          "name": "",
          "type": "uint256"
        }
      ],
      "name": "lastB",
      "outputs": [
        {
          "internalType": "uint256",
          "name": "",
          "type": "uint256"
        }
      ],
      "stateMutability": "view",
      "type": "function"
    },
    {
      "inputs": [],
      "name": "markettingWithdraw",
      "outputs": [],
      "stateMutability": "nonpayable",
      "type": "function"
    },
    {
      "inputs": [],
      "name": "nft",
      "outputs": [
        {
          "internalType": "contract Gangster",
          "name": "",
          "type": "address"
        }
      ],
      "stateMutability": "view",
      "type": "function"
    },
    {
      "inputs": [],
      "name": "pointToken",
      "outputs": [
        {
          "internalType": "contract GANG",
          "name": "",
          "type": "address"
        }
      ],
      "stateMutability": "view",
      "type": "function"
    },
    {
      "inputs": [],
      "name": "pointsOperator_",
      "outputs": [
        {
          "internalType": "address",
          "name": "",
          "type": "address"
        }
      ],
      "stateMutability": "view",
      "type": "function"
    },
    {
      "inputs": [],
      "name": "rankPrize",
      "outputs": [
        {
          "internalType": "uint256",
          "name": "",
          "type": "uint256"
        }
      ],
      "stateMutability": "view",
      "type": "function"
    },
    {
      "inputs": [],
      "name": "refReward_",
      "outputs": [
        {
          "internalType": "uint256",
          "name": "",
          "type": "uint256"
        }
      ],
      "stateMutability": "view",
      "type": "function"
    },
    {
      "inputs": [
        {
          "internalType": "bytes32",
          "name": "role",
          "type": "bytes32"
        },
        {
          "internalType": "address",
          "name": "callerConfirmation",
          "type": "address"
        }
      ],
      "name": "renounceRole",
      "outputs": [],
      "stateMutability": "nonpayable",
      "type": "function"
    },
    {
      "inputs": [],
      "name": "reputationPrize",
      "outputs": [
        {
          "internalType": "uint256",
          "name": "",
          "type": "uint256"
        }
      ],
      "stateMutability": "view",
      "type": "function"
    },
    {
      "inputs": [
        {
          "internalType": "address",
          "name": "to",
          "type": "address"
        },
        {
          "internalType": "uint256",
          "name": "payout",
          "type": "uint256"
        },
        {
          "internalType": "uint256",
          "name": "nonce",
          "type": "uint256"
        }
      ],
      "name": "retired",
      "outputs": [],
      "stateMutability": "nonpayable",
      "type": "function"
    },
    {
      "inputs": [
        {
          "internalType": "bytes32",
          "name": "role",
          "type": "bytes32"
        },
        {
          "internalType": "address",
          "name": "account",
          "type": "address"
        }
      ],
      "name": "revokeRole",
      "outputs": [],
      "stateMutability": "nonpayable",
      "type": "function"
    },
    {
      "inputs": [
        {
          "internalType": "bool",
          "name": "value",
          "type": "bool"
        },
        {
          "internalType": "uint256",
          "name": "_totalPoint",
          "type": "uint256"
        }
      ],
      "name": "setGameClosed",
      "outputs": [],
      "stateMutability": "nonpayable",
      "type": "function"
    },
    {
      "inputs": [
        {
          "internalType": "uint256",
          "name": "_refReward",
          "type": "uint256"
        },
        {
          "internalType": "uint256",
          "name": "_vtd",
          "type": "uint256"
        }
      ],
      "name": "setGameConfig",
      "outputs": [],
      "stateMutability": "nonpayable",
      "type": "function"
    },
    {
      "inputs": [
        {
          "internalType": "address[]",
          "name": "to",
          "type": "address[]"
        },
        {
          "internalType": "uint256[]",
          "name": "points",
          "type": "uint256[]"
        }
      ],
      "name": "setWinner",
      "outputs": [],
      "stateMutability": "nonpayable",
      "type": "function"
    },
    {
      "inputs": [
        {
          "internalType": "uint256",
          "name": "_spinType",
          "type": "uint256"
        },
        {
          "internalType": "uint256",
          "name": "_amount",
          "type": "uint256"
        },
        {
          "internalType": "uint256",
          "name": "_value",
          "type": "uint256"
        },
        {
          "internalType": "uint256",
          "name": "_lastSpin",
          "type": "uint256"
        },
        {
          "internalType": "uint256",
          "name": "_sTime",
          "type": "uint256"
        },
        {
          "internalType": "uint256",
          "name": "_nonce",
          "type": "uint256"
        },
        {
          "internalType": "bytes",
          "name": "_sig",
          "type": "bytes"
        }
      ],
      "name": "spin",
      "outputs": [],
      "stateMutability": "nonpayable",
      "type": "function"
    },
    {
      "inputs": [
        {
          "internalType": "bytes4",
          "name": "interfaceId",
          "type": "bytes4"
        }
      ],
      "name": "supportsInterface",
      "outputs": [
        {
          "internalType": "bool",
          "name": "",
          "type": "bool"
        }
      ],
      "stateMutability": "view",
      "type": "function"
    },
    {
      "inputs": [],
      "name": "tokenId",
      "outputs": [
        {
          "internalType": "uint256",
          "name": "",
          "type": "uint256"
        }
      ],
      "stateMutability": "view",
      "type": "function"
    },
    {
      "inputs": [],
      "name": "totalPoint",
      "outputs": [
        {
          "internalType": "uint256",
          "name": "",
          "type": "uint256"
        }
      ],
      "stateMutability": "view",
      "type": "function"
    },
    {
      "inputs": [],
      "name": "vtd",
      "outputs": [
        {
          "internalType": "uint256",
          "name": "",
          "type": "uint256"
        }
      ],
      "stateMutability": "view",
      "type": "function"
    },
    {
      "inputs": [
        {
          "internalType": "address",
          "name": "to",
          "type": "address"
        },
        {
          "internalType": "uint256",
          "name": "amount",
          "type": "uint256"
        }
      ],
      "name": "withdrawNFT",
      "outputs": [],
      "stateMutability": "nonpayable",
      "type": "function"
    },
    {
      "stateMutability": "payable",
      "type": "receive"
    }
  ],
  "bytecode": "0x608060405260016004556103e8600555603c6006553480156200002157600080fd5b50604051620049633803806200496383398181016040528101906200004791906200047b565b81600160006101000a81548173ffffffffffffffffffffffffffffffffffffffff021916908373ffffffffffffffffffffffffffffffffffffffff16021790555080600260006101000a81548173ffffffffffffffffffffffffffffffffffffffff021916908373ffffffffffffffffffffffffffffffffffffffff16021790555083600360006101000a81548173ffffffffffffffffffffffffffffffffffffffff021916908373ffffffffffffffffffffffffffffffffffffffff16021790555082600d60006101000a81548173ffffffffffffffffffffffffffffffffffffffff021916908373ffffffffffffffffffffffffffffffffffffffff160217905550620001606000801b886200025760201b60201c565b50620001937fa49807205ce4d355092ef5a8a18f56e8913cf4a201fbe287825b095693c21775876200025760201b60201c565b50620001c67ff1b411d6abb365480ac902cc153c45e9ded5847a2265ce6d01945d253edb6bc7866200025760201b60201c565b50732fc95838c71e76ec69ff817983bff17c710f34e073ffffffffffffffffffffffffffffffffffffffff166336b91f2b846040518263ffffffff1660e01b81526004016200021691906200053f565b600060405180830381600087803b1580156200023157600080fd5b505af115801562000246573d6000803e3d6000fd5b50505050505050505050506200055c565b60006200026b83836200035a60201b60201c565b6200034f57600160008085815260200190815260200160002060000160008473ffffffffffffffffffffffffffffffffffffffff1673ffffffffffffffffffffffffffffffffffffffff16815260200190815260200160002060006101000a81548160ff021916908315150217905550620002eb620003c460201b60201c565b73ffffffffffffffffffffffffffffffffffffffff168273ffffffffffffffffffffffffffffffffffffffff16847f2f8788117e7eff1d82e926ec794901d17c78024a50270940304540a733656f0d60405160405180910390a46001905062000354565b600090505b92915050565b600080600084815260200190815260200160002060000160008373ffffffffffffffffffffffffffffffffffffffff1673ffffffffffffffffffffffffffffffffffffffff16815260200190815260200160002060009054906101000a900460ff16905092915050565b600033905090565b600080fd5b600073ffffffffffffffffffffffffffffffffffffffff82169050919050565b6000620003fe82620003d1565b9050919050565b6200041081620003f1565b81146200041c57600080fd5b50565b600081519050620004308162000405565b92915050565b60006200044382620003d1565b9050919050565b620004558162000436565b81146200046157600080fd5b50565b60008151905062000475816200044a565b92915050565b600080600080600080600060e0888a0312156200049d576200049c620003cc565b5b6000620004ad8a828b016200041f565b9750506020620004c08a828b016200041f565b9650506040620004d38a828b016200041f565b9550506060620004e68a828b016200041f565b9450506080620004f98a828b016200041f565b93505060a06200050c8a828b016200041f565b92505060c06200051f8a828b0162000464565b91505092959891949750929550565b6200053981620003f1565b82525050565b60006020820190506200055660008301846200052e565b92915050565b6143f7806200056c6000396000f3fe6080604052600436106102345760003560e01c806365cb14bc1161012e578063a6cfce34116100ab578063d9a6a1bd1161006f578063d9a6a1bd146107ec578063dbc4feb614610817578063de38d59714610842578063e32d35521461086d578063fd14723e146108965761023b565b8063a6cfce341461073f578063ad606c721461076a578063ad85e3bd14610781578063c6bd4425146107ac578063d547741f146107c35761023b565b806390824c5b116100f257806390824c5b1461066c57806391d148541461069757806398795ee6146106d45780639b5b9b18146106eb578063a217fddf146107145761023b565b806365cb14bc146105855780636d99ef46146105b057806375b238fc146105db5780638b899b46146106065780638c8356a9146106435761023b565b806336568abe116101bc5780634940dce8116101805780634940dce8146104b65780635b262a77146104df5780635b3fe49d146105085780636088e93a14610531578063634252dc1461055a5761023b565b806336568abe146103e35780633712e3841461040c5780633ea55e2c1461043757806341a21bcf1461046057806347ccca021461048b5761023b565b80632251d3f0116102035780632251d3f0146102f9578063248a9ca3146103245780632614160e1461036157806329206a701461039e5780632f2ff15d146103ba5761023b565b806301ffc9a71461023d5780630cd3c0041461027a57806317d70f7c146102a35780631fa2d215146102ce5761023b565b3661023b57005b005b34801561024957600080fd5b50610264600480360381019061025f9190612b44565b6108bf565b6040516102719190612b8c565b60405180910390f35b34801561028657600080fd5b506102a1600480360381019061029c9190612c09565b610939565b005b3480156102af57600080fd5b506102b8610989565b6040516102c59190612c58565b60405180910390f35b3480156102da57600080fd5b506102e361098f565b6040516102f09190612c58565b60405180910390f35b34801561030557600080fd5b5061030e610995565b60405161031b9190612cf2565b60405180910390f35b34801561033057600080fd5b5061034b60048036038101906103469190612d43565b6109bb565b6040516103589190612d7f565b60405180910390f35b34801561036d57600080fd5b5061038860048036038101906103839190612dd8565b6109da565b6040516103959190612c58565b60405180910390f35b6103b860048036038101906103b39190612e05565b6109f2565b005b3480156103c657600080fd5b506103e160048036038101906103dc9190612e6c565b610abf565b005b3480156103ef57600080fd5b5061040a60048036038101906104059190612e6c565b610ae1565b005b34801561041857600080fd5b50610421610b5c565b60405161042e9190612ebb565b60405180910390f35b34801561044357600080fd5b5061045e600480360381019061045991906130f2565b610b82565b005b34801561046c57600080fd5b50610475610d5f565b6040516104829190612c58565b60405180910390f35b34801561049757600080fd5b506104a0610d65565b6040516104ad91906131cc565b60405180910390f35b3480156104c257600080fd5b506104dd60048036038101906104d891906131e7565b610d8b565b005b3480156104eb57600080fd5b5061050660048036038101906105019190613314565b610fbf565b005b34801561051457600080fd5b5061052f600480360381019061052a91906133d2565b6113a5565b005b34801561053d57600080fd5b5061055860048036038101906105539190613425565b611553565b005b34801561056657600080fd5b5061056f61163e565b60405161057c9190612d7f565b60405180910390f35b34801561059157600080fd5b5061059a611662565b6040516105a79190612c58565b60405180910390f35b3480156105bc57600080fd5b506105c5611668565b6040516105d29190612b8c565b60405180910390f35b3480156105e757600080fd5b506105f061167b565b6040516105fd9190612d7f565b60405180910390f35b34801561061257600080fd5b5061062d60048036038101906106289190613425565b61169f565b60405161063a9190612c58565b60405180910390f35b34801561064f57600080fd5b5061066a60048036038101906106659190613465565b6116c4565b005b34801561067857600080fd5b50610681611701565b60405161068e9190612ebb565b60405180910390f35b3480156106a357600080fd5b506106be60048036038101906106b99190612e6c565b611727565b6040516106cb9190612b8c565b60405180910390f35b3480156106e057600080fd5b506106e9611791565b005b3480156106f757600080fd5b50610712600480360381019061070d9190613425565b611880565b005b34801561072057600080fd5b506107296119bb565b6040516107369190612d7f565b60405180910390f35b34801561074b57600080fd5b506107546119c2565b6040516107619190612c58565b60405180910390f35b34801561077657600080fd5b5061077f6119c8565b005b34801561078d57600080fd5b50610796611b19565b6040516107a39190612ebb565b60405180910390f35b3480156107b857600080fd5b506107c1611b3f565b005b3480156107cf57600080fd5b506107ea60048036038101906107e59190612e6c565b611c90565b005b3480156107f857600080fd5b50610801611cb2565b60405161080e9190612c58565b60405180910390f35b34801561082357600080fd5b5061082c611cb8565b6040516108399190612c58565b60405180910390f35b34801561084e57600080fd5b50610857611cbe565b6040516108649190612c58565b60405180910390f35b34801561087957600080fd5b50610894600480360381019061088f9190613314565b611cc4565b005b3480156108a257600080fd5b506108bd60048036038101906108b891906134a5565b611f65565b005b60007f7965db0b000000000000000000000000000000000000000000000000000000007bffffffffffffffffffffffffffffffffffffffffffffffffffffffff1916827bffffffffffffffffffffffffffffffffffffffffffffffffffffffff191614806109325750610931826126c1565b5b9050919050565b7ff1b411d6abb365480ac902cc153c45e9ded5847a2265ce6d01945d253edb6bc76109638161272b565b82600d60146101000a81548160ff02191690831515021790555081601181905550505050565b60045481565b60075481565b600260009054906101000a900473ffffffffffffffffffffffffffffffffffffffff1681565b6000806000838152602001908152602001600020600101549050919050565b600f6020528060005260406000206000915090505481565b80828486610a0091906135a6565b610a0a91906135a6565b610a1491906135a6565b3414610a55576040517f08c379a0000000000000000000000000000000000000000000000000000000008152600401610a4c90613637565b60405180910390fd5b8360076000828254610a6791906135a6565b925050819055508260086000828254610a8091906135a6565b925050819055508160096000828254610a9991906135a6565b9250508190555080600a6000828254610ab291906135a6565b9250508190555050505050565b610ac8826109bb565b610ad18161272b565b610adb838361273f565b50505050565b610ae9612830565b73ffffffffffffffffffffffffffffffffffffffff168173ffffffffffffffffffffffffffffffffffffffff1614610b4d576040517f6697b23200000000000000000000000000000000000000000000000000000000815260040160405180910390fd5b610b578282612838565b505050565b600b60009054906101000a900473ffffffffffffffffffffffffffffffffffffffff1681565b7ff1b411d6abb365480ac902cc153c45e9ded5847a2265ce6d01945d253edb6bc7610bac8161272b565b600d60149054906101000a900460ff1615610bfc576040517f08c379a0000000000000000000000000000000000000000000000000000000008152600401610bf3906136a3565b60405180910390fd5b600260009054906101000a900473ffffffffffffffffffffffffffffffffffffffff1673ffffffffffffffffffffffffffffffffffffffff16636857310785846040518363ffffffff1660e01b8152600401610c5992919061383f565b600060405180830381600087803b158015610c7357600080fd5b505af1158015610c87573d6000803e3d6000fd5b50505050600160009054906101000a900473ffffffffffffffffffffffffffffffffffffffff1673ffffffffffffffffffffffffffffffffffffffff1663f080a14c85600454866040518463ffffffff1660e01b8152600401610cec93929190613876565b600060405180830381600087803b158015610d0657600080fd5b505af1158015610d1a573d6000803e3d6000fd5b505050507fc2cb2c4ef377ffedd43e043b50e74ec1088bb60d04db824d04a60d6608f623cd848484604051610d51939291906138bb565b60405180910390a150505050565b60065481565b600160009054906101000a900473ffffffffffffffffffffffffffffffffffffffff1681565b7ff1b411d6abb365480ac902cc153c45e9ded5847a2265ce6d01945d253edb6bc7610db58161272b565b600d60149054906101000a900460ff168015610dd357506000601154115b610e12576040517f08c379a0000000000000000000000000000000000000000000000000000000008152600401610e0990613953565b60405180910390fd5b60004711610e55576040517f08c379a0000000000000000000000000000000000000000000000000000000008152600401610e4c906139bf565b60405180910390fd5b8151835114610e99576040517f08c379a0000000000000000000000000000000000000000000000000000000008152600401610e9090613a2b565b60405180910390fd5b6000600a54600954610eab91906135a6565b905060005b8451811015610fb8576000858281518110610ece57610ecd613a4b565b5b602002602001015190506000601154868481518110610ef057610eef613a4b565b5b602002602001015185610f039190613a7a565b610f0d9190613aeb565b905080471015610f52576040517f08c379a0000000000000000000000000000000000000000000000000000000008152600401610f4990613b68565b60405180910390fd5b6000811115610fa3578173ffffffffffffffffffffffffffffffffffffffff166108fc829081150290604051600060405180830381858888f19350505050158015610fa1573d6000803e3d6000fd5b505b50508080610fb090613b88565b915050610eb0565b5050505050565b600d60149054906101000a900460ff161561100f576040517f08c379a0000000000000000000000000000000000000000000000000000000008152600401611006906136a3565b60405180910390fd5b83600e60003373ffffffffffffffffffffffffffffffffffffffff1673ffffffffffffffffffffffffffffffffffffffff168152602001908152602001600020600089815260200190815260200160002054146110a1576040517f08c379a000000000000000000000000000000000000000000000000000000000815260040161109890613c1c565b60405180910390fd5b600654836110af91906135a6565b42106110f0576040517f08c379a00000000000000000000000000000000000000000000000000000000081526004016110e790613c88565b60405180910390fd5b6010600083815260200190815260200160002060009054906101000a900460ff1615611151576040517f08c379a000000000000000000000000000000000000000000000000000000000815260040161114890613cf4565b60405180910390fd5b600061118e338989898989896040516020016111739796959493929190613d7d565b6040516020818303038152906040528051906020012061292a565b905061119a818361299c565b6111d9576040517f08c379a00000000000000000000000000000000000000000000000000000000081526004016111d090613e4a565b60405180910390fd5b600260009054906101000a900473ffffffffffffffffffffffffffffffffffffffff1673ffffffffffffffffffffffffffffffffffffffff166379cc679033886040518363ffffffff1660e01b8152600401611236929190613e6a565b600060405180830381600087803b15801561125057600080fd5b505af1158015611264573d6000803e3d6000fd5b5050505060016010600085815260200190815260200160002060006101000a81548160ff02191690831515021790555042600e60003373ffffffffffffffffffffffffffffffffffffffff1673ffffffffffffffffffffffffffffffffffffffff16815260200190815260200160002060008a81526020019081526020016000208190555060018803611342573373ffffffffffffffffffffffffffffffffffffffff167f759647c6e0ef64ba58a247443390ca1ca127a0e56c0ca73b8e7adb81cdea686f8885604051611339929190613e93565b60405180910390a25b6002880361139b573373ffffffffffffffffffffffffffffffffffffffff167f064c6c90fdf69cdb269f2989d2db58656f9f0975deb0a85bc6c3e85ce03849368885604051611392929190613e93565b60405180910390a25b5050505050505050565b7ff1b411d6abb365480ac902cc153c45e9ded5847a2265ce6d01945d253edb6bc76113cf8161272b565b600d60149054906101000a900460ff161561141f576040517f08c379a0000000000000000000000000000000000000000000000000000000008152600401611416906136a3565b60405180910390fd5b600160009054906101000a900473ffffffffffffffffffffffffffffffffffffffff1673ffffffffffffffffffffffffffffffffffffffff166332d43bc2856040518263ffffffff1660e01b815260040161147a9190612ebb565b600060405180830381600087803b15801561149457600080fd5b505af11580156114a8573d6000803e3d6000fd5b5050505060008490508073ffffffffffffffffffffffffffffffffffffffff166108fc859081150290604051600060405180830381858888f193505050501580156114f7573d6000803e3d6000fd5b50836009600082825461150a9190613ebc565b925050819055507f70a5be4112706b3659f25bc36bf449699fc6f33183246bbd54f1001e4190ca7c85858560405161154493929190613ef0565b60405180910390a15050505050565b600160009054906101000a900473ffffffffffffffffffffffffffffffffffffffff1673ffffffffffffffffffffffffffffffffffffffff1663f1e4e5533384600454856040518563ffffffff1660e01b81526004016115b69493929190613f27565b600060405180830381600087803b1580156115d057600080fd5b505af11580156115e4573d6000803e3d6000fd5b505050503373ffffffffffffffffffffffffffffffffffffffff167ff279e6a1f5e320cca91135676d9cb6e44ca8a08c0b88342bcdb1144f6511b56860045483604051611632929190613e93565b60405180910390a25050565b7ff1b411d6abb365480ac902cc153c45e9ded5847a2265ce6d01945d253edb6bc781565b60085481565b600d60149054906101000a900460ff1681565b7fa49807205ce4d355092ef5a8a18f56e8913cf4a201fbe287825b095693c2177581565b600e602052816000526040600020602052806000526040600020600091509150505481565b7fa49807205ce4d355092ef5a8a18f56e8913cf4a201fbe287825b095693c217756116ee8161272b565b8260058190555081600681905550505050565b600d60009054906101000a900473ffffffffffffffffffffffffffffffffffffffff1681565b600080600084815260200190815260200160002060000160008373ffffffffffffffffffffffffffffffffffffffff1673ffffffffffffffffffffffffffffffffffffffff16815260200190815260200160002060009054906101000a900460ff16905092915050565b6000801b61179e8161272b565b600d60149054906101000a900460ff166117ed576040517f08c379a00000000000000000000000000000000000000000000000000000000081526004016117e490613953565b60405180910390fd5b60004711611830576040517f08c379a0000000000000000000000000000000000000000000000000000000008152600401611827906139bf565b60405180910390fd5b60003390508073ffffffffffffffffffffffffffffffffffffffff166108fc479081150290604051600060405180830381858888f1935050505015801561187b573d6000803e3d6000fd5b505050565b600d60149054906101000a900460ff16156118d0576040517f08c379a00000000000000000000000000000000000000000000000000000000081526004016118c7906136a3565b60405180910390fd5b600160009054906101000a900473ffffffffffffffffffffffffffffffffffffffff1673ffffffffffffffffffffffffffffffffffffffff166343dae6b43384600454856040518563ffffffff1660e01b81526004016119339493929190613f27565b600060405180830381600087803b15801561194d57600080fd5b505af1158015611961573d6000803e3d6000fd5b505050508173ffffffffffffffffffffffffffffffffffffffff167f90890809c654f11d6e72a28fa60149770a0d11ec6c92319d6ceb2bb0a4ea1a15600454836040516119af929190613e93565b60405180910390a25050565b6000801b81565b600a5481565b600060075411611a0d576040517f08c379a0000000000000000000000000000000000000000000000000000000008152600401611a04906139bf565b60405180910390fd5b600073ffffffffffffffffffffffffffffffffffffffff16600c60009054906101000a900473ffffffffffffffffffffffffffffffffffffffff1673ffffffffffffffffffffffffffffffffffffffff1603611a9e576040517f08c379a0000000000000000000000000000000000000000000000000000000008152600401611a9590613fb8565b60405180910390fd5b6000600c60009054906101000a900473ffffffffffffffffffffffffffffffffffffffff1690508073ffffffffffffffffffffffffffffffffffffffff166108fc6007549081150290604051600060405180830381858888f19350505050158015611b0d573d6000803e3d6000fd5b50600060078190555050565b600c60009054906101000a900473ffffffffffffffffffffffffffffffffffffffff1681565b600060085411611b84576040517f08c379a0000000000000000000000000000000000000000000000000000000008152600401611b7b906139bf565b60405180910390fd5b600073ffffffffffffffffffffffffffffffffffffffff16600b60009054906101000a900473ffffffffffffffffffffffffffffffffffffffff1673ffffffffffffffffffffffffffffffffffffffff1603611c15576040517f08c379a0000000000000000000000000000000000000000000000000000000008152600401611c0c90614024565b60405180910390fd5b6000600b60009054906101000a900473ffffffffffffffffffffffffffffffffffffffff1690508073ffffffffffffffffffffffffffffffffffffffff166108fc6008549081150290604051600060405180830381858888f19350505050158015611c84573d6000803e3d6000fd5b50600060088190555050565b611c99826109bb565b611ca28161272b565b611cac8383612838565b50505050565b60055481565b60115481565b60095481565b600d60149054906101000a900460ff1615611d14576040517f08c379a0000000000000000000000000000000000000000000000000000000008152600401611d0b906136a3565b60405180910390fd5b60065483611d2291906135a6565b4210611d63576040517f08c379a0000000000000000000000000000000000000000000000000000000008152600401611d5a90613c88565b60405180910390fd5b6010600083815260200190815260200160002060009054906101000a900460ff1615611dc4576040517f08c379a0000000000000000000000000000000000000000000000000000000008152600401611dbb90613cf4565b60405180910390fd5b6000611e0133898989898989604051602001611de69796959493929190613d7d565b6040516020818303038152906040528051906020012061292a565b9050611e0d818361299c565b611e4c576040517f08c379a0000000000000000000000000000000000000000000000000000000008152600401611e4390613e4a565b60405180910390fd5b600260009054906101000a900473ffffffffffffffffffffffffffffffffffffffff1673ffffffffffffffffffffffffffffffffffffffff166379cc679033886040518363ffffffff1660e01b8152600401611ea9929190613e6a565b600060405180830381600087803b158015611ec357600080fd5b505af1158015611ed7573d6000803e3d6000fd5b5050505060016010600085815260200190815260200160002060006101000a81548160ff0219169083151502179055503373ffffffffffffffffffffffffffffffffffffffff167f13f135658b67258df1952b1efe89331bc59bde07499073b16d5f4908012dce5b878a8a87604051611f539493929190614044565b60405180910390a25050505050505050565b600d60149054906101000a900460ff1615611fb5576040517f08c379a0000000000000000000000000000000000000000000000000000000008152600401611fac906136a3565b60405180910390fd5b60065486611fc391906135a6565b4210612004576040517f08c379a0000000000000000000000000000000000000000000000000000000008152600401611ffb90613c88565b60405180910390fd5b6010600085815260200190815260200160002060009054906101000a900460ff1615612065576040517f08c379a000000000000000000000000000000000000000000000000000000000815260040161205c906140d5565b60405180910390fd5b84600f60003373ffffffffffffffffffffffffffffffffffffffff1673ffffffffffffffffffffffffffffffffffffffff16815260200190815260200160002054146120e6576040517f08c379a00000000000000000000000000000000000000000000000000000000081526004016120dd90614141565b60405180910390fd5b6000612129336004548b8b8b8b8b8b8b60405160200161210e99989796959493929190614161565b6040516020818303038152906040528051906020012061292a565b9050612135818361299c565b612174576040517f08c379a000000000000000000000000000000000000000000000000000000000815260040161216b90613e4a565b60405180910390fd5b600184036122a357600260009054906101000a900473ffffffffffffffffffffffffffffffffffffffff1673ffffffffffffffffffffffffffffffffffffffff166379cc6790338a6040518363ffffffff1660e01b81526004016121d9929190613e6a565b600060405180830381600087803b1580156121f357600080fd5b505af1158015612207573d6000803e3d6000fd5b50505050600160009054906101000a900473ffffffffffffffffffffffffffffffffffffffff1673ffffffffffffffffffffffffffffffffffffffff166302e4ecc5336004548c6040518463ffffffff1660e01b815260040161226c93929190613ef0565b600060405180830381600087803b15801561228657600080fd5b505af115801561229a573d6000803e3d6000fd5b505050506125e0565b600284036123d257600260009054906101000a900473ffffffffffffffffffffffffffffffffffffffff1673ffffffffffffffffffffffffffffffffffffffff166379cc6790338a6040518363ffffffff1660e01b8152600401612308929190613e6a565b600060405180830381600087803b15801561232257600080fd5b505af1158015612336573d6000803e3d6000fd5b50505050600160009054906101000a900473ffffffffffffffffffffffffffffffffffffffff1673ffffffffffffffffffffffffffffffffffffffff16637729214b336004548c6040518463ffffffff1660e01b815260040161239b93929190613ef0565b600060405180830381600087803b1580156123b557600080fd5b505af11580156123c9573d6000803e3d6000fd5b505050506125df565b600260009054906101000a900473ffffffffffffffffffffffffffffffffffffffff1673ffffffffffffffffffffffffffffffffffffffff1663a9059cbb846127106005548c6124229190613a7a565b61242c9190613aeb565b6040518363ffffffff1660e01b8152600401612449929190613e6a565b6020604051808303816000875af1158015612468573d6000803e3d6000fd5b505050506040513d601f19601f8201168201806040525081019061248c9190614219565b61249557600080fd5b600260009054906101000a900473ffffffffffffffffffffffffffffffffffffffff1673ffffffffffffffffffffffffffffffffffffffff166379cc6790306127106005546127106124e79190613ebc565b8c6124f29190613a7a565b6124fc9190613aeb565b6040518363ffffffff1660e01b8152600401612519929190613e6a565b600060405180830381600087803b15801561253357600080fd5b505af1158015612547573d6000803e3d6000fd5b50505050600160009054906101000a900473ffffffffffffffffffffffffffffffffffffffff1673ffffffffffffffffffffffffffffffffffffffff166302e4ecc5336004548c6040518463ffffffff1660e01b81526004016125ac93929190613ef0565b600060405180830381600087803b1580156125c657600080fd5b505af11580156125da573d6000803e3d6000fd5b505050505b5b60016010600087815260200190815260200160002060006101000a81548160ff02191690831515021790555088600f60003373ffffffffffffffffffffffffffffffffffffffff1673ffffffffffffffffffffffffffffffffffffffff168152602001908152602001600020600082825461265b91906135a6565b925050819055503373ffffffffffffffffffffffffffffffffffffffff167fcf1d432606e0ee6a23fc32ce701ac36c9897204278c35ac9d65112344b2099176004548b886040516126ae93929190614246565b60405180910390a2505050505050505050565b60007f01ffc9a7000000000000000000000000000000000000000000000000000000007bffffffffffffffffffffffffffffffffffffffffffffffffffffffff1916827bffffffffffffffffffffffffffffffffffffffffffffffffffffffff1916149050919050565b61273c81612737612830565b612a00565b50565b600061274b8383611727565b61282557600160008085815260200190815260200160002060000160008473ffffffffffffffffffffffffffffffffffffffff1673ffffffffffffffffffffffffffffffffffffffff16815260200190815260200160002060006101000a81548160ff0219169083151502179055506127c2612830565b73ffffffffffffffffffffffffffffffffffffffff168273ffffffffffffffffffffffffffffffffffffffff16847f2f8788117e7eff1d82e926ec794901d17c78024a50270940304540a733656f0d60405160405180910390a46001905061282a565b600090505b92915050565b600033905090565b60006128448383611727565b1561291f57600080600085815260200190815260200160002060000160008473ffffffffffffffffffffffffffffffffffffffff1673ffffffffffffffffffffffffffffffffffffffff16815260200190815260200160002060006101000a81548160ff0219169083151502179055506128bc612830565b73ffffffffffffffffffffffffffffffffffffffff168273ffffffffffffffffffffffffffffffffffffffff16847ff6391f5c32d9c69d2a47ea670b442974b53935d1edc7fd64eb21e047a839171b60405160405180910390a460019050612924565b600090505b92915050565b6000806040518060400160405280601c81526020017f19457468657265756d205369676e6564204d6573736167653a0a33320000000081525090506000818460405160200161297a92919061430f565b6040516020818303038152906040528051906020012090508092505050919050565b60006129a88383612a51565b73ffffffffffffffffffffffffffffffffffffffff16600360009054906101000a900473ffffffffffffffffffffffffffffffffffffffff1673ffffffffffffffffffffffffffffffffffffffff1614905092915050565b612a0a8282611727565b612a4d5780826040517fe2517d3f000000000000000000000000000000000000000000000000000000008152600401612a44929190614337565b60405180910390fd5b5050565b60006041825114612a6157600080fd5b60008060006020850151915060408501519050606085015160001a925060018684848460405160008152602001604052604051612aa1949392919061437c565b6020604051602081039080840390855afa158015612ac3573d6000803e3d6000fd5b50505060206040510351935050505092915050565b6000604051905090565b600080fd5b600080fd5b60007fffffffff0000000000000000000000000000000000000000000000000000000082169050919050565b612b2181612aec565b8114612b2c57600080fd5b50565b600081359050612b3e81612b18565b92915050565b600060208284031215612b5a57612b59612ae2565b5b6000612b6884828501612b2f565b91505092915050565b60008115159050919050565b612b8681612b71565b82525050565b6000602082019050612ba16000830184612b7d565b92915050565b612bb081612b71565b8114612bbb57600080fd5b50565b600081359050612bcd81612ba7565b92915050565b6000819050919050565b612be681612bd3565b8114612bf157600080fd5b50565b600081359050612c0381612bdd565b92915050565b60008060408385031215612c2057612c1f612ae2565b5b6000612c2e85828601612bbe565b9250506020612c3f85828601612bf4565b9150509250929050565b612c5281612bd3565b82525050565b6000602082019050612c6d6000830184612c49565b92915050565b600073ffffffffffffffffffffffffffffffffffffffff82169050919050565b6000819050919050565b6000612cb8612cb3612cae84612c73565b612c93565b612c73565b9050919050565b6000612cca82612c9d565b9050919050565b6000612cdc82612cbf565b9050919050565b612cec81612cd1565b82525050565b6000602082019050612d076000830184612ce3565b92915050565b6000819050919050565b612d2081612d0d565b8114612d2b57600080fd5b50565b600081359050612d3d81612d17565b92915050565b600060208284031215612d5957612d58612ae2565b5b6000612d6784828501612d2e565b91505092915050565b612d7981612d0d565b82525050565b6000602082019050612d946000830184612d70565b92915050565b6000612da582612c73565b9050919050565b612db581612d9a565b8114612dc057600080fd5b50565b600081359050612dd281612dac565b92915050565b600060208284031215612dee57612ded612ae2565b5b6000612dfc84828501612dc3565b91505092915050565b60008060008060808587031215612e1f57612e1e612ae2565b5b6000612e2d87828801612bf4565b9450506020612e3e87828801612bf4565b9350506040612e4f87828801612bf4565b9250506060612e6087828801612bf4565b91505092959194509250565b60008060408385031215612e8357612e82612ae2565b5b6000612e9185828601612d2e565b9250506020612ea285828601612dc3565b9150509250929050565b612eb581612d9a565b82525050565b6000602082019050612ed06000830184612eac565b92915050565b600080fd5b6000601f19601f8301169050919050565b7f4e487b7100000000000000000000000000000000000000000000000000000000600052604160045260246000fd5b612f2482612edb565b810181811067ffffffffffffffff82111715612f4357612f42612eec565b5b80604052505050565b6000612f56612ad8565b9050612f628282612f1b565b919050565b600067ffffffffffffffff821115612f8257612f81612eec565b5b602082029050602081019050919050565b600080fd5b6000612fab612fa684612f67565b612f4c565b90508083825260208201905060208402830185811115612fce57612fcd612f93565b5b835b81811015612ff75780612fe38882612dc3565b845260208401935050602081019050612fd0565b5050509392505050565b600082601f83011261301657613015612ed6565b5b8135613026848260208601612f98565b91505092915050565b600067ffffffffffffffff82111561304a57613049612eec565b5b602082029050602081019050919050565b600061306e6130698461302f565b612f4c565b9050808382526020820190506020840283018581111561309157613090612f93565b5b835b818110156130ba57806130a68882612bf4565b845260208401935050602081019050613093565b5050509392505050565b600082601f8301126130d9576130d8612ed6565b5b81356130e984826020860161305b565b91505092915050565b60008060006060848603121561310b5761310a612ae2565b5b600084013567ffffffffffffffff81111561312957613128612ae7565b5b61313586828701613001565b935050602084013567ffffffffffffffff81111561315657613155612ae7565b5b613162868287016130c4565b925050604084013567ffffffffffffffff81111561318357613182612ae7565b5b61318f868287016130c4565b9150509250925092565b60006131a482612c9d565b9050919050565b60006131b682613199565b9050919050565b6131c6816131ab565b82525050565b60006020820190506131e160008301846131bd565b92915050565b600080604083850312156131fe576131fd612ae2565b5b600083013567ffffffffffffffff81111561321c5761321b612ae7565b5b61322885828601613001565b925050602083013567ffffffffffffffff81111561324957613248612ae7565b5b613255858286016130c4565b9150509250929050565b600080fd5b600067ffffffffffffffff82111561327f5761327e612eec565b5b61328882612edb565b9050602081019050919050565b82818337600083830152505050565b60006132b76132b284613264565b612f4c565b9050828152602081018484840111156132d3576132d261325f565b5b6132de848285613295565b509392505050565b600082601f8301126132fb576132fa612ed6565b5b813561330b8482602086016132a4565b91505092915050565b600080600080600080600060e0888a03121561333357613332612ae2565b5b60006133418a828b01612bf4565b97505060206133528a828b01612bf4565b96505060406133638a828b01612bf4565b95505060606133748a828b01612bf4565b94505060806133858a828b01612bf4565b93505060a06133968a828b01612bf4565b92505060c088013567ffffffffffffffff8111156133b7576133b6612ae7565b5b6133c38a828b016132e6565b91505092959891949750929550565b6000806000606084860312156133eb576133ea612ae2565b5b60006133f986828701612dc3565b935050602061340a86828701612bf4565b925050604061341b86828701612bf4565b9150509250925092565b6000806040838503121561343c5761343b612ae2565b5b600061344a85828601612dc3565b925050602061345b85828601612bf4565b9150509250929050565b6000806040838503121561347c5761347b612ae2565b5b600061348a85828601612bf4565b925050602061349b85828601612bf4565b9150509250929050565b600080600080600080600080610100898b0312156134c6576134c5612ae2565b5b60006134d48b828c01612bf4565b98505060206134e58b828c01612bf4565b97505060406134f68b828c01612bf4565b96505060606135078b828c01612bf4565b95505060806135188b828c01612bf4565b94505060a06135298b828c01612bf4565b93505060c061353a8b828c01612dc3565b92505060e089013567ffffffffffffffff81111561355b5761355a612ae7565b5b6135678b828c016132e6565b9150509295985092959890939650565b7f4e487b7100000000000000000000000000000000000000000000000000000000600052601160045260246000fd5b60006135b182612bd3565b91506135bc83612bd3565b92508282019050808211156135d4576135d3613577565b5b92915050565b600082825260208201905092915050565b7f4e65656420746f2073656e64206d6f7265206574686572000000000000000000600082015250565b60006136216017836135da565b915061362c826135eb565b602082019050919050565b6000602082019050818103600083015261365081613614565b9050919050565b7f47616d6520697320636c6f736564000000000000000000000000000000000000600082015250565b600061368d600e836135da565b915061369882613657565b602082019050919050565b600060208201905081810360008301526136bc81613680565b9050919050565b600081519050919050565b600082825260208201905092915050565b6000819050602082019050919050565b6136f881612d9a565b82525050565b600061370a83836136ef565b60208301905092915050565b6000602082019050919050565b600061372e826136c3565b61373881856136ce565b9350613743836136df565b8060005b8381101561377457815161375b88826136fe565b975061376683613716565b925050600181019050613747565b5085935050505092915050565b600081519050919050565b600082825260208201905092915050565b6000819050602082019050919050565b6137b681612bd3565b82525050565b60006137c883836137ad565b60208301905092915050565b6000602082019050919050565b60006137ec82613781565b6137f6818561378c565b93506138018361379d565b8060005b8381101561383257815161381988826137bc565b9750613824836137d4565b925050600181019050613805565b5085935050505092915050565b600060408201905081810360008301526138598185613723565b9050818103602083015261386d81846137e1565b90509392505050565b600060608201905081810360008301526138908186613723565b905061389f6020830185612c49565b81810360408301526138b181846137e1565b9050949350505050565b600060608201905081810360008301526138d58186613723565b905081810360208301526138e981856137e1565b905081810360408301526138fd81846137e1565b9050949350505050565b7f47616d65206973206e6f7420636c6f7365640000000000000000000000000000600082015250565b600061393d6012836135da565b915061394882613907565b602082019050919050565b6000602082019050818103600083015261396c81613930565b9050919050565b7f4e6f7468696e6720746f20776974686472617700000000000000000000000000600082015250565b60006139a96013836135da565b91506139b482613973565b602082019050919050565b600060208201905081810360008301526139d88161399c565b9050919050565b7f496e76616c696420696e707574206172726179206c656e677468000000000000600082015250565b6000613a15601a836135da565b9150613a20826139df565b602082019050919050565b60006020820190508181036000830152613a4481613a08565b9050919050565b7f4e487b7100000000000000000000000000000000000000000000000000000000600052603260045260246000fd5b6000613a8582612bd3565b9150613a9083612bd3565b9250828202613a9e81612bd3565b91508282048414831517613ab557613ab4613577565b5b5092915050565b7f4e487b7100000000000000000000000000000000000000000000000000000000600052601260045260246000fd5b6000613af682612bd3565b9150613b0183612bd3565b925082613b1157613b10613abc565b5b828204905092915050565b7f4e6f7468696e6720746f207061796f7574000000000000000000000000000000600082015250565b6000613b526011836135da565b9150613b5d82613b1c565b602082019050919050565b60006020820190508181036000830152613b8181613b45565b9050919050565b6000613b9382612bd3565b91507fffffffffffffffffffffffffffffffffffffffffffffffffffffffffffffffff8203613bc557613bc4613577565b5b600182019050919050565b7f496e76616c6964206c617374206275792074696d650000000000000000000000600082015250565b6000613c066015836135da565b9150613c1182613bd0565b602082019050919050565b60006020820190508181036000830152613c3581613bf9565b9050919050565b7f496e76616c69642074696d657374616d70000000000000000000000000000000600082015250565b6000613c726011836135da565b9150613c7d82613c3c565b602082019050919050565b60006020820190508181036000830152613ca181613c65565b9050919050565b7f4e6f6e6365206973207573656400000000000000000000000000000000000000600082015250565b6000613cde600d836135da565b9150613ce982613ca8565b602082019050919050565b60006020820190508181036000830152613d0d81613cd1565b9050919050565b60008160601b9050919050565b6000613d2c82613d14565b9050919050565b6000613d3e82613d21565b9050919050565b613d56613d5182612d9a565b613d33565b82525050565b6000819050919050565b613d77613d7282612bd3565b613d5c565b82525050565b6000613d89828a613d45565b601482019150613d998289613d66565b602082019150613da98288613d66565b602082019150613db98287613d66565b602082019150613dc98286613d66565b602082019150613dd98285613d66565b602082019150613de98284613d66565b60208201915081905098975050505050505050565b7f496e76616c6964207369676e6174757265000000000000000000000000000000600082015250565b6000613e346011836135da565b9150613e3f82613dfe565b602082019050919050565b60006020820190508181036000830152613e6381613e27565b9050919050565b6000604082019050613e7f6000830185612eac565b613e8c6020830184612c49565b9392505050565b6000604082019050613ea86000830185612c49565b613eb56020830184612c49565b9392505050565b6000613ec782612bd3565b9150613ed283612bd3565b9250828203905081811115613eea57613ee9613577565b5b92915050565b6000606082019050613f056000830186612eac565b613f126020830185612c49565b613f1f6040830184612c49565b949350505050565b6000608082019050613f3c6000830187612eac565b613f496020830186612eac565b613f566040830185612c49565b613f636060830184612c49565b95945050505050565b7f446576206973206e6f7420736574000000000000000000000000000000000000600082015250565b6000613fa2600e836135da565b9150613fad82613f6c565b602082019050919050565b60006020820190508181036000830152613fd181613f95565b9050919050565b7f4275726e206973206e6f74207365740000000000000000000000000000000000600082015250565b600061400e600f836135da565b915061401982613fd8565b602082019050919050565b6000602082019050818103600083015261403d81614001565b9050919050565b60006080820190506140596000830187612c49565b6140666020830186612c49565b6140736040830185612c49565b6140806060830184612c49565b95945050505050565b7f496e76616c6964206e6f6e636500000000000000000000000000000000000000600082015250565b60006140bf600d836135da565b91506140ca82614089565b602082019050919050565b600060208201905081810360008301526140ee816140b2565b9050919050565b7f6f75746461746564206e756d626572206f662067616e67737465720000000000600082015250565b600061412b601b836135da565b9150614136826140f5565b602082019050919050565b6000602082019050818103600083015261415a8161411e565b9050919050565b600061416d828c613d45565b60148201915061417d828b613d66565b60208201915061418d828a613d66565b60208201915061419d8289613d66565b6020820191506141ad8288613d66565b6020820191506141bd8287613d66565b6020820191506141cd8286613d66565b6020820191506141dd8285613d66565b6020820191506141ed8284613d45565b6014820191508190509a9950505050505050505050565b60008151905061421381612ba7565b92915050565b60006020828403121561422f5761422e612ae2565b5b600061423d84828501614204565b91505092915050565b600060608201905061425b6000830186612c49565b6142686020830185612c49565b6142756040830184612c49565b949350505050565b600081519050919050565b600081905092915050565b60005b838110156142b1578082015181840152602081019050614296565b60008484015250505050565b60006142c88261427d565b6142d28185614288565b93506142e2818560208601614293565b80840191505092915050565b6000819050919050565b61430961430482612d0d565b6142ee565b82525050565b600061431b82856142bd565b915061432782846142f8565b6020820191508190509392505050565b600060408201905061434c6000830185612eac565b6143596020830184612d70565b9392505050565b600060ff82169050919050565b61437681614360565b82525050565b60006080820190506143916000830187612d70565b61439e602083018661436d565b6143ab6040830185612d70565b6143b86060830184612d70565b9594505050505056fea26469706673582212200b134fb2a55ef246efffaf7fd4b30d213b861ec7a0bd51af4407fa9e730cc8e064736f6c63430008140033",
  "linkReferences": {},
  "deployedLinkReferences": {}
}