{
  "_format": "hh-sol-artifact-1",
  "contractName": "Gangster",
  "sourceName": "contracts/Gangster.sol",
  "abi": [
    {
      "inputs": [
        {
          "internalType": "address",
          "name": "defaultAdmin",
          "type": "address"
        },
        {
          "internalType": "address",
          "name": "minter",
          "type": "address"
        }
      ],
      "stateMutability": "nonpayable",
      "type": "constructor"
    },
    {
      "inputs": [],
      "name": "AccessControlBadConfirmation",
      "type": "error"
    },
    {
      "inputs": [
        {
          "internalType": "address",
          "name": "account",
          "type": "address"
        },
        {
          "internalType": "bytes32",
          "name": "neededRole",
          "type": "bytes32"
        }
      ],
      "name": "AccessControlUnauthorizedAccount",
      "type": "error"
    },
    {
      "inputs": [
        {
          "internalType": "address",
          "name": "sender",
          "type": "address"
        },
        {
          "internalType": "uint256",
          "name": "balance",
          "type": "uint256"
        },
        {
          "internalType": "uint256",
          "name": "needed",
          "type": "uint256"
        },
        {
          "internalType": "uint256",
          "name": "tokenId",
          "type": "uint256"
        }
      ],
      "name": "ERC1155InsufficientBalance",
      "type": "error"
    },
    {
      "inputs": [
        {
          "internalType": "address",
          "name": "approver",
          "type": "address"
        }
      ],
      "name": "ERC1155InvalidApprover",
      "type": "error"
    },
    {
      "inputs": [
        {
          "internalType": "uint256",
          "name": "idsLength",
          "type": "uint256"
        },
        {
          "internalType": "uint256",
          "name": "valuesLength",
          "type": "uint256"
        }
      ],
      "name": "ERC1155InvalidArrayLength",
      "type": "error"
    },
    {
      "inputs": [
        {
          "internalType": "address",
          "name": "operator",
          "type": "address"
        }
      ],
      "name": "ERC1155InvalidOperator",
      "type": "error"
    },
    {
      "inputs": [
        {
          "internalType": "address",
          "name": "receiver",
          "type": "address"
        }
      ],
      "name": "ERC1155InvalidReceiver",
      "type": "error"
    },
    {
      "inputs": [
        {
          "internalType": "address",
          "name": "sender",
          "type": "address"
        }
      ],
      "name": "ERC1155InvalidSender",
      "type": "error"
    },
    {
      "inputs": [
        {
          "internalType": "address",
          "name": "operator",
          "type": "address"
        },
        {
          "internalType": "address",
          "name": "owner",
          "type": "address"
        }
      ],
      "name": "ERC1155MissingApprovalForAll",
      "type": "error"
    },
    {
      "anonymous": false,
      "inputs": [
        {
          "indexed": true,
          "internalType": "address",
          "name": "account",
          "type": "address"
        },
        {
          "indexed": true,
          "internalType": "address",
          "name": "operator",
          "type": "address"
        },
        {
          "indexed": false,
          "internalType": "bool",
          "name": "approved",
          "type": "bool"
        }
      ],
      "name": "ApprovalForAll",
      "type": "event"
    },
    {
      "anonymous": false,
      "inputs": [
        {
          "indexed": true,
          "internalType": "bytes32",
          "name": "role",
          "type": "bytes32"
        },
        {
          "indexed": true,
          "internalType": "bytes32",
          "name": "previousAdminRole",
          "type": "bytes32"
        },
        {
          "indexed": true,
          "internalType": "bytes32",
          "name": "newAdminRole",
          "type": "bytes32"
        }
      ],
      "name": "RoleAdminChanged",
      "type": "event"
    },
    {
      "anonymous": false,
      "inputs": [
        {
          "indexed": true,
          "internalType": "bytes32",
          "name": "role",
          "type": "bytes32"
        },
        {
          "indexed": true,
          "internalType": "address",
          "name": "account",
          "type": "address"
        },
        {
          "indexed": true,
          "internalType": "address",
          "name": "sender",
          "type": "address"
        }
      ],
      "name": "RoleGranted",
      "type": "event"
    },
    {
      "anonymous": false,
      "inputs": [
        {
          "indexed": true,
          "internalType": "bytes32",
          "name": "role",
          "type": "bytes32"
        },
        {
          "indexed": true,
          "internalType": "address",
          "name": "account",
          "type": "address"
        },
        {
          "indexed": true,
          "internalType": "address",
          "name": "sender",
          "type": "address"
        }
      ],
      "name": "RoleRevoked",
      "type": "event"
    },
    {
      "anonymous": false,
      "inputs": [
        {
          "indexed": true,
          "internalType": "address",
          "name": "operator",
          "type": "address"
        },
        {
          "indexed": true,
          "internalType": "address",
          "name": "from",
          "type": "address"
        },
        {
          "indexed": true,
          "internalType": "address",
          "name": "to",
          "type": "address"
        },
        {
          "indexed": false,
          "internalType": "uint256[]",
          "name": "ids",
          "type": "uint256[]"
        },
        {
          "indexed": false,
          "internalType": "uint256[]",
          "name": "values",
          "type": "uint256[]"
        }
      ],
      "name": "TransferBatch",
      "type": "event"
    },
    {
      "anonymous": false,
      "inputs": [
        {
          "indexed": true,
          "internalType": "address",
          "name": "operator",
          "type": "address"
        },
        {
          "indexed": true,
          "internalType": "address",
          "name": "from",
          "type": "address"
        },
        {
          "indexed": true,
          "internalType": "address",
          "name": "to",
          "type": "address"
        },
        {
          "indexed": false,
          "internalType": "uint256",
          "name": "id",
          "type": "uint256"
        },
        {
          "indexed": false,
          "internalType": "uint256",
          "name": "value",
          "type": "uint256"
        }
      ],
      "name": "TransferSingle",
      "type": "event"
    },
    {
      "anonymous": false,
      "inputs": [
        {
          "indexed": false,
          "internalType": "string",
          "name": "value",
          "type": "string"
        },
        {
          "indexed": true,
          "internalType": "uint256",
          "name": "id",
          "type": "uint256"
        }
      ],
      "name": "URI",
      "type": "event"
    },
    {
      "inputs": [],
      "name": "DEFAULT_ADMIN_ROLE",
      "outputs": [
        {
          "internalType": "bytes32",
          "name": "",
          "type": "bytes32"
        }
      ],
      "stateMutability": "view",
      "type": "function"
    },
    {
      "inputs": [],
      "name": "MINTER_ROLE",
      "outputs": [
        {
          "internalType": "bytes32",
          "name": "",
          "type": "bytes32"
        }
      ],
      "stateMutability": "view",
      "type": "function"
    },
    {
      "inputs": [],
      "name": "URI_SETTER_ROLE",
      "outputs": [
        {
          "internalType": "bytes32",
          "name": "",
          "type": "bytes32"
        }
      ],
      "stateMutability": "view",
      "type": "function"
    },
    {
      "inputs": [
        {
          "internalType": "address",
          "name": "account",
          "type": "address"
        },
        {
          "internalType": "uint256",
          "name": "id",
          "type": "uint256"
        }
      ],
      "name": "balanceOf",
      "outputs": [
        {
          "internalType": "uint256",
          "name": "",
          "type": "uint256"
        }
      ],
      "stateMutability": "view",
      "type": "function"
    },
    {
      "inputs": [
        {
          "internalType": "address[]",
          "name": "accounts",
          "type": "address[]"
        },
        {
          "internalType": "uint256[]",
          "name": "ids",
          "type": "uint256[]"
        }
      ],
      "name": "balanceOfBatch",
      "outputs": [
        {
          "internalType": "uint256[]",
          "name": "",
          "type": "uint256[]"
        }
      ],
      "stateMutability": "view",
      "type": "function"
    },
    {
      "inputs": [
        {
          "internalType": "address",
          "name": "account",
          "type": "address"
        },
        {
          "internalType": "uint256",
          "name": "id",
          "type": "uint256"
        },
        {
          "internalType": "uint256",
          "name": "value",
          "type": "uint256"
        }
      ],
      "name": "burn",
      "outputs": [],
      "stateMutability": "nonpayable",
      "type": "function"
    },
    {
      "inputs": [
        {
          "internalType": "address",
          "name": "account",
          "type": "address"
        },
        {
          "internalType": "uint256[]",
          "name": "ids",
          "type": "uint256[]"
        },
        {
          "internalType": "uint256[]",
          "name": "values",
          "type": "uint256[]"
        }
      ],
      "name": "burnBatch",
      "outputs": [],
      "stateMutability": "nonpayable",
      "type": "function"
    },
    {
      "inputs": [
        {
          "internalType": "uint256",
          "name": "id",
          "type": "uint256"
        }
      ],
      "name": "exists",
      "outputs": [
        {
          "internalType": "bool",
          "name": "",
          "type": "bool"
        }
      ],
      "stateMutability": "view",
      "type": "function"
    },
    {
      "inputs": [
        {
          "internalType": "bytes32",
          "name": "role",
          "type": "bytes32"
        }
      ],
      "name": "getRoleAdmin",
      "outputs": [
        {
          "internalType": "bytes32",
          "name": "",
          "type": "bytes32"
        }
      ],
      "stateMutability": "view",
      "type": "function"
    },
    {
      "inputs": [
        {
          "internalType": "bytes32",
          "name": "role",
          "type": "bytes32"
        },
        {
          "internalType": "address",
          "name": "account",
          "type": "address"
        }
      ],
      "name": "grantRole",
      "outputs": [],
      "stateMutability": "nonpayable",
      "type": "function"
    },
    {
      "inputs": [
        {
          "internalType": "bytes32",
          "name": "role",
          "type": "bytes32"
        },
        {
          "internalType": "address",
          "name": "account",
          "type": "address"
        }
      ],
      "name": "hasRole",
      "outputs": [
        {
          "internalType": "bool",
          "name": "",
          "type": "bool"
        }
      ],
      "stateMutability": "view",
      "type": "function"
    },
    {
      "inputs": [
        {
          "internalType": "address",
          "name": "account",
          "type": "address"
        },
        {
          "internalType": "address",
          "name": "operator",
          "type": "address"
        }
      ],
      "name": "isApprovedForAll",
      "outputs": [
        {
          "internalType": "bool",
          "name": "",
          "type": "bool"
        }
      ],
      "stateMutability": "view",
      "type": "function"
    },
    {
      "inputs": [
        {
          "internalType": "address",
          "name": "account",
          "type": "address"
        },
        {
          "internalType": "uint256",
          "name": "id",
          "type": "uint256"
        },
        {
          "internalType": "uint256",
          "name": "amount",
          "type": "uint256"
        },
        {
          "internalType": "bytes",
          "name": "data",
          "type": "bytes"
        }
      ],
      "name": "mint",
      "outputs": [],
      "stateMutability": "nonpayable",
      "type": "function"
    },
    {
      "inputs": [
        {
          "internalType": "address",
          "name": "to",
          "type": "address"
        },
        {
          "internalType": "uint256[]",
          "name": "ids",
          "type": "uint256[]"
        },
        {
          "internalType": "uint256[]",
          "name": "amounts",
          "type": "uint256[]"
        },
        {
          "internalType": "bytes",
          "name": "data",
          "type": "bytes"
        }
      ],
      "name": "mintBatch",
      "outputs": [],
      "stateMutability": "nonpayable",
      "type": "function"
    },
    {
      "inputs": [
        {
          "internalType": "bytes32",
          "name": "role",
          "type": "bytes32"
        },
        {
          "internalType": "address",
          "name": "callerConfirmation",
          "type": "address"
        }
      ],
      "name": "renounceRole",
      "outputs": [],
      "stateMutability": "nonpayable",
      "type": "function"
    },
    {
      "inputs": [
        {
          "internalType": "bytes32",
          "name": "role",
          "type": "bytes32"
        },
        {
          "internalType": "address",
          "name": "account",
          "type": "address"
        }
      ],
      "name": "revokeRole",
      "outputs": [],
      "stateMutability": "nonpayable",
      "type": "function"
    },
    {
      "inputs": [
        {
          "internalType": "uint256",
          "name": "",
          "type": "uint256"
        },
        {
          "internalType": "uint256",
          "name": "value",
          "type": "uint256"
        }
      ],
      "name": "royaltyInfo",
      "outputs": [
        {
          "internalType": "address",
          "name": "receiver",
          "type": "address"
        },
        {
          "internalType": "uint256",
          "name": "royaltyAmount",
          "type": "uint256"
        }
      ],
      "stateMutability": "view",
      "type": "function"
    },
    {
      "inputs": [
        {
          "internalType": "address",
          "name": "from",
          "type": "address"
        },
        {
          "internalType": "address",
          "name": "to",
          "type": "address"
        },
        {
          "internalType": "uint256[]",
          "name": "ids",
          "type": "uint256[]"
        },
        {
          "internalType": "uint256[]",
          "name": "values",
          "type": "uint256[]"
        },
        {
          "internalType": "bytes",
          "name": "data",
          "type": "bytes"
        }
      ],
      "name": "safeBatchTransferFrom",
      "outputs": [],
      "stateMutability": "nonpayable",
      "type": "function"
    },
    {
      "inputs": [
        {
          "internalType": "address",
          "name": "from",
          "type": "address"
        },
        {
          "internalType": "address",
          "name": "to",
          "type": "address"
        },
        {
          "internalType": "uint256",
          "name": "id",
          "type": "uint256"
        },
        {
          "internalType": "uint256",
          "name": "value",
          "type": "uint256"
        },
        {
          "internalType": "bytes",
          "name": "data",
          "type": "bytes"
        }
      ],
      "name": "safeTransferFrom",
      "outputs": [],
      "stateMutability": "nonpayable",
      "type": "function"
    },
    {
      "inputs": [
        {
          "internalType": "address",
          "name": "operator",
          "type": "address"
        },
        {
          "internalType": "bool",
          "name": "approved",
          "type": "bool"
        }
      ],
      "name": "setApprovalForAll",
      "outputs": [],
      "stateMutability": "nonpayable",
      "type": "function"
    },
    {
      "inputs": [
        {
          "internalType": "address",
          "name": "recipient",
          "type": "address"
        },
        {
          "internalType": "uint256",
          "name": "value",
          "type": "uint256"
        }
      ],
      "name": "setRoyalties",
      "outputs": [],
      "stateMutability": "nonpayable",
      "type": "function"
    },
    {
      "inputs": [
        {
          "internalType": "string",
          "name": "newuri",
          "type": "string"
        }
      ],
      "name": "setURI",
      "outputs": [],
      "stateMutability": "nonpayable",
      "type": "function"
    },
    {
      "inputs": [
        {
          "internalType": "bytes4",
          "name": "interfaceId",
          "type": "bytes4"
        }
      ],
      "name": "supportsInterface",
      "outputs": [
        {
          "internalType": "bool",
          "name": "",
          "type": "bool"
        }
      ],
      "stateMutability": "view",
      "type": "function"
    },
    {
      "inputs": [],
      "name": "totalSupply",
      "outputs": [
        {
          "internalType": "uint256",
          "name": "",
          "type": "uint256"
        }
      ],
      "stateMutability": "view",
      "type": "function"
    },
    {
      "inputs": [
        {
          "internalType": "uint256",
          "name": "id",
          "type": "uint256"
        }
      ],
      "name": "totalSupply",
      "outputs": [
        {
          "internalType": "uint256",
          "name": "",
          "type": "uint256"
        }
      ],
      "stateMutability": "view",
      "type": "function"
    },
    {
      "inputs": [
        {
          "internalType": "uint256",
          "name": "",
          "type": "uint256"
        }
      ],
      "name": "uri",
      "outputs": [
        {
          "internalType": "string",
          "name": "",
          "type": "string"
        }
      ],
      "stateMutability": "view",
      "type": "function"
    }
  ],
  "bytecode": "0x60806040523480156200001157600080fd5b5060405162003e1438038062003e148339818101604052810190620000379190620002a0565b604051806020016040528060008152506200005881620000aa60201b60201c565b506200006e6000801b83620000bf60201b60201c565b50620000a17f9f2df0fed2c77648de5860a4cc508cd0818c85b8b8a1ab4ceeef8d981c8956a682620000bf60201b60201c565b50505062000648565b8060029081620000bb919062000561565b5050565b6000620000d38383620001c360201b60201c565b620001b85760016003600085815260200190815260200160002060000160008473ffffffffffffffffffffffffffffffffffffffff1673ffffffffffffffffffffffffffffffffffffffff16815260200190815260200160002060006101000a81548160ff021916908315150217905550620001546200022e60201b60201c565b73ffffffffffffffffffffffffffffffffffffffff168273ffffffffffffffffffffffffffffffffffffffff16847f2f8788117e7eff1d82e926ec794901d17c78024a50270940304540a733656f0d60405160405180910390a460019050620001bd565b600090505b92915050565b60006003600084815260200190815260200160002060000160008373ffffffffffffffffffffffffffffffffffffffff1673ffffffffffffffffffffffffffffffffffffffff16815260200190815260200160002060009054906101000a900460ff16905092915050565b600033905090565b600080fd5b600073ffffffffffffffffffffffffffffffffffffffff82169050919050565b600062000268826200023b565b9050919050565b6200027a816200025b565b81146200028657600080fd5b50565b6000815190506200029a816200026f565b92915050565b60008060408385031215620002ba57620002b962000236565b5b6000620002ca8582860162000289565b9250506020620002dd8582860162000289565b9150509250929050565b600081519050919050565b7f4e487b7100000000000000000000000000000000000000000000000000000000600052604160045260246000fd5b7f4e487b7100000000000000000000000000000000000000000000000000000000600052602260045260246000fd5b600060028204905060018216806200036957607f821691505b6020821081036200037f576200037e62000321565b5b50919050565b60008190508160005260206000209050919050565b60006020601f8301049050919050565b600082821b905092915050565b600060088302620003e97fffffffffffffffffffffffffffffffffffffffffffffffffffffffffffffffff82620003aa565b620003f58683620003aa565b95508019841693508086168417925050509392505050565b6000819050919050565b6000819050919050565b6000620004426200043c62000436846200040d565b62000417565b6200040d565b9050919050565b6000819050919050565b6200045e8362000421565b620004766200046d8262000449565b848454620003b7565b825550505050565b600090565b6200048d6200047e565b6200049a81848462000453565b505050565b5b81811015620004c257620004b660008262000483565b600181019050620004a0565b5050565b601f8211156200051157620004db8162000385565b620004e6846200039a565b81016020851015620004f6578190505b6200050e62000505856200039a565b8301826200049f565b50505b505050565b600082821c905092915050565b6000620005366000198460080262000516565b1980831691505092915050565b600062000551838362000523565b9150826002028217905092915050565b6200056c82620002e7565b67ffffffffffffffff811115620005885762000587620002f2565b5b62000594825462000350565b620005a1828285620004c6565b600060209050601f831160018114620005d95760008415620005c4578287015190505b620005d0858262000543565b86555062000640565b601f198416620005e98662000385565b60005b828110156200061357848901518255600182019150602085019450602081019050620005ec565b868310156200063357848901516200062f601f89168262000523565b8355505b6001600288020188555050505b505050505050565b6137bc80620006586000396000f3fe608060405234801561001057600080fd5b506004361061018d5760003560e01c80636b20c454116100de578063a22cb46511610097578063d547741f11610071578063d547741f146104b7578063e985e9c5146104d3578063f242432a14610503578063f5298aca1461051f5761018d565b8063a22cb4651461044d578063bd85b03914610469578063d5391393146104995761018d565b80636b20c4541461038d578063731133e9146103a95780637f345710146103c55780638c7ea24b146103e357806391d14854146103ff578063a217fddf1461042f5761018d565b8063248a9ca31161014b5780632f2ff15d116101255780632f2ff15d146102f557806336568abe146103115780634e1273f41461032d5780634f558e791461035d5761018d565b8063248a9ca3146102785780632a55205a146102a85780632eb2c2d6146102d95761018d565b8062fdd58e1461019257806301ffc9a7146101c257806302fe5305146101f25780630e89341c1461020e57806318160ddd1461023e5780631f7fdffa1461025c575b600080fd5b6101ac60048036038101906101a791906123dc565b61053b565b6040516101b9919061242b565b60405180910390f35b6101dc60048036038101906101d7919061249e565b610595565b6040516101e991906124e6565b60405180910390f35b61020c60048036038101906102079190612647565b6105a7565b005b61022860048036038101906102239190612690565b6105de565b604051610235919061273c565b60405180910390f35b610246610672565b604051610253919061242b565b60405180910390f35b610276600480360381019061027191906128c7565b61067c565b005b610292600480360381019061028d91906129b8565b6106b9565b60405161029f91906129f4565b60405180910390f35b6102c260048036038101906102bd9190612a0f565b6106d9565b6040516102d0929190612a5e565b60405180910390f35b6102f360048036038101906102ee9190612a87565b610799565b005b61030f600480360381019061030a9190612b56565b610841565b005b61032b60048036038101906103269190612b56565b610863565b005b61034760048036038101906103429190612c59565b6108de565b6040516103549190612d8f565b60405180910390f35b61037760048036038101906103729190612690565b6109ed565b60405161038491906124e6565b60405180910390f35b6103a760048036038101906103a29190612db1565b610a01565b005b6103c360048036038101906103be9190612e3c565b610aad565b005b6103cd610aea565b6040516103da91906129f4565b60405180910390f35b6103fd60048036038101906103f891906123dc565b610b0e565b005b61041960048036038101906104149190612b56565b610c06565b60405161042691906124e6565b60405180910390f35b610437610c71565b60405161044491906129f4565b60405180910390f35b61046760048036038101906104629190612eeb565b610c78565b005b610483600480360381019061047e9190612690565b610c8e565b604051610490919061242b565b60405180910390f35b6104a1610cab565b6040516104ae91906129f4565b60405180910390f35b6104d160048036038101906104cc9190612b56565b610ccf565b005b6104ed60048036038101906104e89190612f2b565b610cf1565b6040516104fa91906124e6565b60405180910390f35b61051d60048036038101906105189190612f6b565b610d85565b005b61053960048036038101906105349190613002565b610e2d565b005b600080600083815260200190815260200160002060008473ffffffffffffffffffffffffffffffffffffffff1673ffffffffffffffffffffffffffffffffffffffff16815260200190815260200160002054905092915050565b60006105a082610ed9565b9050919050565b7f7804d923f43a17d325d77e781528e0793b2edd9890ab45fc64efd7b4b427744c6105d181610f53565b6105da82610f67565b5050565b6060600280546105ed90613084565b80601f016020809104026020016040519081016040528092919081815260200182805461061990613084565b80156106665780601f1061063b57610100808354040283529160200191610666565b820191906000526020600020905b81548152906001019060200180831161064957829003601f168201915b50505050509050919050565b6000600554905090565b7f9f2df0fed2c77648de5860a4cc508cd0818c85b8b8a1ab4ceeef8d981c8956a66106a681610f53565b6106b285858585610f7a565b5050505050565b600060036000838152602001908152602001600020600101549050919050565b600080600060066040518060400160405290816000820160009054906101000a900473ffffffffffffffffffffffffffffffffffffffff1673ffffffffffffffffffffffffffffffffffffffff1673ffffffffffffffffffffffffffffffffffffffff1681526020016000820160149054906101000a900462ffffff1662ffffff1662ffffff1681525050905080600001519250612710816020015162ffffff168561078591906130e4565b61078f9190613155565b9150509250929050565b60006107a3611000565b90508073ffffffffffffffffffffffffffffffffffffffff168673ffffffffffffffffffffffffffffffffffffffff16141580156107e857506107e68682610cf1565b155b1561082c5780866040517fe237d922000000000000000000000000000000000000000000000000000000008152600401610823929190613186565b60405180910390fd5b6108398686868686611008565b505050505050565b61084a826106b9565b61085381610f53565b61085d8383611100565b50505050565b61086b611000565b73ffffffffffffffffffffffffffffffffffffffff168173ffffffffffffffffffffffffffffffffffffffff16146108cf576040517f6697b23200000000000000000000000000000000000000000000000000000000815260040160405180910390fd5b6108d982826111f2565b505050565b6060815183511461092a57815183516040517f5b0599910000000000000000000000000000000000000000000000000000000081526004016109219291906131af565b60405180910390fd5b6000835167ffffffffffffffff8111156109475761094661251c565b5b6040519080825280602002602001820160405280156109755781602001602082028036833780820191505090505b50905060005b84518110156109e2576109b261099a82876112e590919063ffffffff16565b6109ad83876112f990919063ffffffff16565b61053b565b8282815181106109c5576109c46131d8565b5b602002602001018181525050806109db90613207565b905061097b565b508091505092915050565b6000806109f983610c8e565b119050919050565b610a09611000565b73ffffffffffffffffffffffffffffffffffffffff168373ffffffffffffffffffffffffffffffffffffffff1614158015610a525750610a5083610a4b611000565b610cf1565b155b15610a9d57610a5f611000565b836040517fe237d922000000000000000000000000000000000000000000000000000000008152600401610a94929190613186565b60405180910390fd5b610aa883838361130d565b505050565b7f9f2df0fed2c77648de5860a4cc508cd0818c85b8b8a1ab4ceeef8d981c8956a6610ad781610f53565b610ae3858585856113a1565b5050505050565b7f7804d923f43a17d325d77e781528e0793b2edd9890ab45fc64efd7b4b427744c81565b6000801b610b1b81610f53565b612710821115610b60576040517f08c379a0000000000000000000000000000000000000000000000000000000008152600401610b579061329b565b60405180910390fd5b60405180604001604052808473ffffffffffffffffffffffffffffffffffffffff1681526020018362ffffff16815250600660008201518160000160006101000a81548173ffffffffffffffffffffffffffffffffffffffff021916908373ffffffffffffffffffffffffffffffffffffffff16021790555060208201518160000160146101000a81548162ffffff021916908362ffffff160217905550905050505050565b60006003600084815260200190815260200160002060000160008373ffffffffffffffffffffffffffffffffffffffff1673ffffffffffffffffffffffffffffffffffffffff16815260200190815260200160002060009054906101000a900460ff16905092915050565b6000801b81565b610c8a610c83611000565b838361143a565b5050565b600060046000838152602001908152602001600020549050919050565b7f9f2df0fed2c77648de5860a4cc508cd0818c85b8b8a1ab4ceeef8d981c8956a681565b610cd8826106b9565b610ce181610f53565b610ceb83836111f2565b50505050565b6000600160008473ffffffffffffffffffffffffffffffffffffffff1673ffffffffffffffffffffffffffffffffffffffff16815260200190815260200160002060008373ffffffffffffffffffffffffffffffffffffffff1673ffffffffffffffffffffffffffffffffffffffff16815260200190815260200160002060009054906101000a900460ff16905092915050565b6000610d8f611000565b90508073ffffffffffffffffffffffffffffffffffffffff168673ffffffffffffffffffffffffffffffffffffffff1614158015610dd45750610dd28682610cf1565b155b15610e185780866040517fe237d922000000000000000000000000000000000000000000000000000000008152600401610e0f929190613186565b60405180910390fd5b610e2586868686866115aa565b505050505050565b610e35611000565b73ffffffffffffffffffffffffffffffffffffffff168373ffffffffffffffffffffffffffffffffffffffff1614158015610e7e5750610e7c83610e77611000565b610cf1565b155b15610ec957610e8b611000565b836040517fe237d922000000000000000000000000000000000000000000000000000000008152600401610ec0929190613186565b60405180910390fd5b610ed48383836116b5565b505050565b60007f2a55205a000000000000000000000000000000000000000000000000000000007bffffffffffffffffffffffffffffffffffffffffffffffffffffffff1916827bffffffffffffffffffffffffffffffffffffffffffffffffffffffff19161480610f4c5750610f4b8261175c565b5b9050919050565b610f6481610f5f611000565b6117d6565b50565b8060029081610f769190613467565b5050565b600073ffffffffffffffffffffffffffffffffffffffff168473ffffffffffffffffffffffffffffffffffffffff1603610fec5760006040517f57f447ce000000000000000000000000000000000000000000000000000000008152600401610fe39190613539565b60405180910390fd5b610ffa600085858585611827565b50505050565b600033905090565b600073ffffffffffffffffffffffffffffffffffffffff168473ffffffffffffffffffffffffffffffffffffffff160361107a5760006040517f57f447ce0000000000000000000000000000000000000000000000000000000081526004016110719190613539565b60405180910390fd5b600073ffffffffffffffffffffffffffffffffffffffff168573ffffffffffffffffffffffffffffffffffffffff16036110ec5760006040517f01a835140000000000000000000000000000000000000000000000000000000081526004016110e39190613539565b60405180910390fd5b6110f98585858585611827565b5050505050565b600061110c8383610c06565b6111e75760016003600085815260200190815260200160002060000160008473ffffffffffffffffffffffffffffffffffffffff1673ffffffffffffffffffffffffffffffffffffffff16815260200190815260200160002060006101000a81548160ff021916908315150217905550611184611000565b73ffffffffffffffffffffffffffffffffffffffff168273ffffffffffffffffffffffffffffffffffffffff16847f2f8788117e7eff1d82e926ec794901d17c78024a50270940304540a733656f0d60405160405180910390a4600190506111ec565b600090505b92915050565b60006111fe8383610c06565b156112da5760006003600085815260200190815260200160002060000160008473ffffffffffffffffffffffffffffffffffffffff1673ffffffffffffffffffffffffffffffffffffffff16815260200190815260200160002060006101000a81548160ff021916908315150217905550611277611000565b73ffffffffffffffffffffffffffffffffffffffff168273ffffffffffffffffffffffffffffffffffffffff16847ff6391f5c32d9c69d2a47ea670b442974b53935d1edc7fd64eb21e047a839171b60405160405180910390a4600190506112df565b600090505b92915050565b600060208202602084010151905092915050565b600060208202602084010151905092915050565b600073ffffffffffffffffffffffffffffffffffffffff168373ffffffffffffffffffffffffffffffffffffffff160361137f5760006040517f01a835140000000000000000000000000000000000000000000000000000000081526004016113769190613539565b60405180910390fd5b61139c836000848460405180602001604052806000815250611827565b505050565b600073ffffffffffffffffffffffffffffffffffffffff168473ffffffffffffffffffffffffffffffffffffffff16036114135760006040517f57f447ce00000000000000000000000000000000000000000000000000000000815260040161140a9190613539565b60405180910390fd5b60008061142085856118d9565b91509150611432600087848487611827565b505050505050565b600073ffffffffffffffffffffffffffffffffffffffff168273ffffffffffffffffffffffffffffffffffffffff16036114ac5760006040517fced3e1000000000000000000000000000000000000000000000000000000000081526004016114a39190613539565b60405180910390fd5b80600160008573ffffffffffffffffffffffffffffffffffffffff1673ffffffffffffffffffffffffffffffffffffffff16815260200190815260200160002060008473ffffffffffffffffffffffffffffffffffffffff1673ffffffffffffffffffffffffffffffffffffffff16815260200190815260200160002060006101000a81548160ff0219169083151502179055508173ffffffffffffffffffffffffffffffffffffffff168373ffffffffffffffffffffffffffffffffffffffff167f17307eab39ab6107e8899845ad3d59bd9653f200f220920489ca2b5937696c318360405161159d91906124e6565b60405180910390a3505050565b600073ffffffffffffffffffffffffffffffffffffffff168473ffffffffffffffffffffffffffffffffffffffff160361161c5760006040517f57f447ce0000000000000000000000000000000000000000000000000000000081526004016116139190613539565b60405180910390fd5b600073ffffffffffffffffffffffffffffffffffffffff168573ffffffffffffffffffffffffffffffffffffffff160361168e5760006040517f01a835140000000000000000000000000000000000000000000000000000000081526004016116859190613539565b60405180910390fd5b60008061169b85856118d9565b915091506116ac8787848487611827565b50505050505050565b600073ffffffffffffffffffffffffffffffffffffffff168373ffffffffffffffffffffffffffffffffffffffff16036117275760006040517f01a8351400000000000000000000000000000000000000000000000000000000815260040161171e9190613539565b60405180910390fd5b60008061173484846118d9565b91509150611755856000848460405180602001604052806000815250611827565b5050505050565b60007f7965db0b000000000000000000000000000000000000000000000000000000007bffffffffffffffffffffffffffffffffffffffffffffffffffffffff1916827bffffffffffffffffffffffffffffffffffffffffffffffffffffffff191614806117cf57506117ce82611909565b5b9050919050565b6117e08282610c06565b6118235780826040517fe2517d3f00000000000000000000000000000000000000000000000000000000815260040161181a929190613554565b60405180910390fd5b5050565b611833858585856119eb565b600073ffffffffffffffffffffffffffffffffffffffff168473ffffffffffffffffffffffffffffffffffffffff16146118d2576000611871611000565b905060018451036118c15760006118926000866112f990919063ffffffff16565b905060006118aa6000866112f990919063ffffffff16565b90506118ba8389898585896119fd565b50506118d0565b6118cf818787878787611bb1565b5b505b5050505050565b60608060405191506001825283602083015260408201905060018152826020820152604081016040529250929050565b60007fd9b67a26000000000000000000000000000000000000000000000000000000007bffffffffffffffffffffffffffffffffffffffffffffffffffffffff1916827bffffffffffffffffffffffffffffffffffffffffffffffffffffffff191614806119d457507f0e89341c000000000000000000000000000000000000000000000000000000007bffffffffffffffffffffffffffffffffffffffffffffffffffffffff1916827bffffffffffffffffffffffffffffffffffffffffffffffffffffffff1916145b806119e457506119e382611d65565b5b9050919050565b6119f784848484611dcf565b50505050565b60008473ffffffffffffffffffffffffffffffffffffffff163b1115611ba9578373ffffffffffffffffffffffffffffffffffffffff1663f23a6e6187878686866040518663ffffffff1660e01b8152600401611a5e9594939291906135d2565b6020604051808303816000875af1925050508015611a9a57506040513d601f19601f82011682018060405250810190611a979190613641565b60015b611b1e573d8060008114611aca576040519150601f19603f3d011682016040523d82523d6000602084013e611acf565b606091505b506000815103611b1657846040517f57f447ce000000000000000000000000000000000000000000000000000000008152600401611b0d9190613539565b60405180910390fd5b805181602001fd5b63f23a6e6160e01b7bffffffffffffffffffffffffffffffffffffffffffffffffffffffff1916817bffffffffffffffffffffffffffffffffffffffffffffffffffffffff191614611ba757846040517f57f447ce000000000000000000000000000000000000000000000000000000008152600401611b9e9190613539565b60405180910390fd5b505b505050505050565b60008473ffffffffffffffffffffffffffffffffffffffff163b1115611d5d578373ffffffffffffffffffffffffffffffffffffffff1663bc197c8187878686866040518663ffffffff1660e01b8152600401611c1295949392919061366e565b6020604051808303816000875af1925050508015611c4e57506040513d601f19601f82011682018060405250810190611c4b9190613641565b60015b611cd2573d8060008114611c7e576040519150601f19603f3d011682016040523d82523d6000602084013e611c83565b606091505b506000815103611cca57846040517f57f447ce000000000000000000000000000000000000000000000000000000008152600401611cc19190613539565b60405180910390fd5b805181602001fd5b63bc197c8160e01b7bffffffffffffffffffffffffffffffffffffffffffffffffffffffff1916817bffffffffffffffffffffffffffffffffffffffffffffffffffffffff191614611d5b57846040517f57f447ce000000000000000000000000000000000000000000000000000000008152600401611d529190613539565b60405180910390fd5b505b505050505050565b60007f01ffc9a7000000000000000000000000000000000000000000000000000000007bffffffffffffffffffffffffffffffffffffffffffffffffffffffff1916827bffffffffffffffffffffffffffffffffffffffffffffffffffffffff1916149050919050565b611ddb84848484611f86565b600073ffffffffffffffffffffffffffffffffffffffff168473ffffffffffffffffffffffffffffffffffffffff1603611ebb576000805b8351811015611e9f576000838281518110611e3157611e306131d8565b5b602002602001015190508060046000878581518110611e5357611e526131d8565b5b602002602001015181526020019081526020016000206000828254611e7891906136d6565b925050819055508083611e8b91906136d6565b92505080611e9890613207565b9050611e13565b508060056000828254611eb291906136d6565b92505081905550505b600073ffffffffffffffffffffffffffffffffffffffff168373ffffffffffffffffffffffffffffffffffffffff1603611f80576000805b8351811015611f6d576000838281518110611f1157611f106131d8565b5b602002602001015190508060046000878581518110611f3357611f326131d8565b5b602002602001015181526020019081526020016000206000828254039250508190555080830192505080611f6690613207565b9050611ef3565b5080600560008282540392505081905550505b50505050565b8051825114611fd057815181516040517f5b059991000000000000000000000000000000000000000000000000000000008152600401611fc79291906131af565b60405180910390fd5b6000611fda611000565b905060005b83518110156121ef576000611ffd82866112f990919063ffffffff16565b9050600061201483866112f990919063ffffffff16565b9050600073ffffffffffffffffffffffffffffffffffffffff168873ffffffffffffffffffffffffffffffffffffffff161461214157600080600084815260200190815260200160002060008a73ffffffffffffffffffffffffffffffffffffffff1673ffffffffffffffffffffffffffffffffffffffff168152602001908152602001600020549050818110156120e957888183856040517f03dee4c50000000000000000000000000000000000000000000000000000000081526004016120e0949392919061370a565b60405180910390fd5b81810360008085815260200190815260200160002060008b73ffffffffffffffffffffffffffffffffffffffff1673ffffffffffffffffffffffffffffffffffffffff16815260200190815260200160002081905550505b600073ffffffffffffffffffffffffffffffffffffffff168773ffffffffffffffffffffffffffffffffffffffff16146121dc578060008084815260200190815260200160002060008973ffffffffffffffffffffffffffffffffffffffff1673ffffffffffffffffffffffffffffffffffffffff16815260200190815260200160002060008282546121d491906136d6565b925050819055505b5050806121e890613207565b9050611fdf565b5060018351036122ae57600061220f6000856112f990919063ffffffff16565b905060006122276000856112f990919063ffffffff16565b90508573ffffffffffffffffffffffffffffffffffffffff168773ffffffffffffffffffffffffffffffffffffffff168473ffffffffffffffffffffffffffffffffffffffff167fc3d58168c5ae7397731d063d5bbf3d657854427343f4c083240f7aacaa2d0f62858560405161229f9291906131af565b60405180910390a4505061232d565b8373ffffffffffffffffffffffffffffffffffffffff168573ffffffffffffffffffffffffffffffffffffffff168273ffffffffffffffffffffffffffffffffffffffff167f4a39dc06d4c0dbc64b70af90fd698a233a518aa5d07e595d983b8c0526c8f7fb868660405161232492919061374f565b60405180910390a45b5050505050565b6000604051905090565b600080fd5b600080fd5b600073ffffffffffffffffffffffffffffffffffffffff82169050919050565b600061237382612348565b9050919050565b61238381612368565b811461238e57600080fd5b50565b6000813590506123a08161237a565b92915050565b6000819050919050565b6123b9816123a6565b81146123c457600080fd5b50565b6000813590506123d6816123b0565b92915050565b600080604083850312156123f3576123f261233e565b5b600061240185828601612391565b9250506020612412858286016123c7565b9150509250929050565b612425816123a6565b82525050565b6000602082019050612440600083018461241c565b92915050565b60007fffffffff0000000000000000000000000000000000000000000000000000000082169050919050565b61247b81612446565b811461248657600080fd5b50565b60008135905061249881612472565b92915050565b6000602082840312156124b4576124b361233e565b5b60006124c284828501612489565b91505092915050565b60008115159050919050565b6124e0816124cb565b82525050565b60006020820190506124fb60008301846124d7565b92915050565b600080fd5b600080fd5b6000601f19601f8301169050919050565b7f4e487b7100000000000000000000000000000000000000000000000000000000600052604160045260246000fd5b6125548261250b565b810181811067ffffffffffffffff821117156125735761257261251c565b5b80604052505050565b6000612586612334565b9050612592828261254b565b919050565b600067ffffffffffffffff8211156125b2576125b161251c565b5b6125bb8261250b565b9050602081019050919050565b82818337600083830152505050565b60006125ea6125e584612597565b61257c565b90508281526020810184848401111561260657612605612506565b5b6126118482856125c8565b509392505050565b600082601f83011261262e5761262d612501565b5b813561263e8482602086016125d7565b91505092915050565b60006020828403121561265d5761265c61233e565b5b600082013567ffffffffffffffff81111561267b5761267a612343565b5b61268784828501612619565b91505092915050565b6000602082840312156126a6576126a561233e565b5b60006126b4848285016123c7565b91505092915050565b600081519050919050565b600082825260208201905092915050565b60005b838110156126f75780820151818401526020810190506126dc565b60008484015250505050565b600061270e826126bd565b61271881856126c8565b93506127288185602086016126d9565b6127318161250b565b840191505092915050565b600060208201905081810360008301526127568184612703565b905092915050565b600067ffffffffffffffff8211156127795761277861251c565b5b602082029050602081019050919050565b600080fd5b60006127a261279d8461275e565b61257c565b905080838252602082019050602084028301858111156127c5576127c461278a565b5b835b818110156127ee57806127da88826123c7565b8452602084019350506020810190506127c7565b5050509392505050565b600082601f83011261280d5761280c612501565b5b813561281d84826020860161278f565b91505092915050565b600067ffffffffffffffff8211156128415761284061251c565b5b61284a8261250b565b9050602081019050919050565b600061286a61286584612826565b61257c565b90508281526020810184848401111561288657612885612506565b5b6128918482856125c8565b509392505050565b600082601f8301126128ae576128ad612501565b5b81356128be848260208601612857565b91505092915050565b600080600080608085870312156128e1576128e061233e565b5b60006128ef87828801612391565b945050602085013567ffffffffffffffff8111156129105761290f612343565b5b61291c878288016127f8565b935050604085013567ffffffffffffffff81111561293d5761293c612343565b5b612949878288016127f8565b925050606085013567ffffffffffffffff81111561296a57612969612343565b5b61297687828801612899565b91505092959194509250565b6000819050919050565b61299581612982565b81146129a057600080fd5b50565b6000813590506129b28161298c565b92915050565b6000602082840312156129ce576129cd61233e565b5b60006129dc848285016129a3565b91505092915050565b6129ee81612982565b82525050565b6000602082019050612a0960008301846129e5565b92915050565b60008060408385031215612a2657612a2561233e565b5b6000612a34858286016123c7565b9250506020612a45858286016123c7565b9150509250929050565b612a5881612368565b82525050565b6000604082019050612a736000830185612a4f565b612a80602083018461241c565b9392505050565b600080600080600060a08688031215612aa357612aa261233e565b5b6000612ab188828901612391565b9550506020612ac288828901612391565b945050604086013567ffffffffffffffff811115612ae357612ae2612343565b5b612aef888289016127f8565b935050606086013567ffffffffffffffff811115612b1057612b0f612343565b5b612b1c888289016127f8565b925050608086013567ffffffffffffffff811115612b3d57612b3c612343565b5b612b4988828901612899565b9150509295509295909350565b60008060408385031215612b6d57612b6c61233e565b5b6000612b7b858286016129a3565b9250506020612b8c85828601612391565b9150509250929050565b600067ffffffffffffffff821115612bb157612bb061251c565b5b602082029050602081019050919050565b6000612bd5612bd084612b96565b61257c565b90508083825260208201905060208402830185811115612bf857612bf761278a565b5b835b81811015612c215780612c0d8882612391565b845260208401935050602081019050612bfa565b5050509392505050565b600082601f830112612c4057612c3f612501565b5b8135612c50848260208601612bc2565b91505092915050565b60008060408385031215612c7057612c6f61233e565b5b600083013567ffffffffffffffff811115612c8e57612c8d612343565b5b612c9a85828601612c2b565b925050602083013567ffffffffffffffff811115612cbb57612cba612343565b5b612cc7858286016127f8565b9150509250929050565b600081519050919050565b600082825260208201905092915050565b6000819050602082019050919050565b612d06816123a6565b82525050565b6000612d188383612cfd565b60208301905092915050565b6000602082019050919050565b6000612d3c82612cd1565b612d468185612cdc565b9350612d5183612ced565b8060005b83811015612d82578151612d698882612d0c565b9750612d7483612d24565b925050600181019050612d55565b5085935050505092915050565b60006020820190508181036000830152612da98184612d31565b905092915050565b600080600060608486031215612dca57612dc961233e565b5b6000612dd886828701612391565b935050602084013567ffffffffffffffff811115612df957612df8612343565b5b612e05868287016127f8565b925050604084013567ffffffffffffffff811115612e2657612e25612343565b5b612e32868287016127f8565b9150509250925092565b60008060008060808587031215612e5657612e5561233e565b5b6000612e6487828801612391565b9450506020612e75878288016123c7565b9350506040612e86878288016123c7565b925050606085013567ffffffffffffffff811115612ea757612ea6612343565b5b612eb387828801612899565b91505092959194509250565b612ec8816124cb565b8114612ed357600080fd5b50565b600081359050612ee581612ebf565b92915050565b60008060408385031215612f0257612f0161233e565b5b6000612f1085828601612391565b9250506020612f2185828601612ed6565b9150509250929050565b60008060408385031215612f4257612f4161233e565b5b6000612f5085828601612391565b9250506020612f6185828601612391565b9150509250929050565b600080600080600060a08688031215612f8757612f8661233e565b5b6000612f9588828901612391565b9550506020612fa688828901612391565b9450506040612fb7888289016123c7565b9350506060612fc8888289016123c7565b925050608086013567ffffffffffffffff811115612fe957612fe8612343565b5b612ff588828901612899565b9150509295509295909350565b60008060006060848603121561301b5761301a61233e565b5b600061302986828701612391565b935050602061303a868287016123c7565b925050604061304b868287016123c7565b9150509250925092565b7f4e487b7100000000000000000000000000000000000000000000000000000000600052602260045260246000fd5b6000600282049050600182168061309c57607f821691505b6020821081036130af576130ae613055565b5b50919050565b7f4e487b7100000000000000000000000000000000000000000000000000000000600052601160045260246000fd5b60006130ef826123a6565b91506130fa836123a6565b9250828202613108816123a6565b9150828204841483151761311f5761311e6130b5565b5b5092915050565b7f4e487b7100000000000000000000000000000000000000000000000000000000600052601260045260246000fd5b6000613160826123a6565b915061316b836123a6565b92508261317b5761317a613126565b5b828204905092915050565b600060408201905061319b6000830185612a4f565b6131a86020830184612a4f565b9392505050565b60006040820190506131c4600083018561241c565b6131d1602083018461241c565b9392505050565b7f4e487b7100000000000000000000000000000000000000000000000000000000600052603260045260246000fd5b6000613212826123a6565b91507fffffffffffffffffffffffffffffffffffffffffffffffffffffffffffffffff8203613244576132436130b5565b5b600182019050919050565b7f45524332393831526f79616c746965733a20546f6f2068696768000000000000600082015250565b6000613285601a836126c8565b91506132908261324f565b602082019050919050565b600060208201905081810360008301526132b481613278565b9050919050565b60008190508160005260206000209050919050565b60006020601f8301049050919050565b600082821b905092915050565b60006008830261331d7fffffffffffffffffffffffffffffffffffffffffffffffffffffffffffffffff826132e0565b61332786836132e0565b95508019841693508086168417925050509392505050565b6000819050919050565b600061336461335f61335a846123a6565b61333f565b6123a6565b9050919050565b6000819050919050565b61337e83613349565b61339261338a8261336b565b8484546132ed565b825550505050565b600090565b6133a761339a565b6133b2818484613375565b505050565b5b818110156133d6576133cb60008261339f565b6001810190506133b8565b5050565b601f82111561341b576133ec816132bb565b6133f5846132d0565b81016020851015613404578190505b613418613410856132d0565b8301826133b7565b50505b505050565b600082821c905092915050565b600061343e60001984600802613420565b1980831691505092915050565b6000613457838361342d565b9150826002028217905092915050565b613470826126bd565b67ffffffffffffffff8111156134895761348861251c565b5b6134938254613084565b61349e8282856133da565b600060209050601f8311600181146134d157600084156134bf578287015190505b6134c9858261344b565b865550613531565b601f1984166134df866132bb565b60005b82811015613507578489015182556001820191506020850194506020810190506134e2565b868310156135245784890151613520601f89168261342d565b8355505b6001600288020188555050505b505050505050565b600060208201905061354e6000830184612a4f565b92915050565b60006040820190506135696000830185612a4f565b61357660208301846129e5565b9392505050565b600081519050919050565b600082825260208201905092915050565b60006135a48261357d565b6135ae8185613588565b93506135be8185602086016126d9565b6135c78161250b565b840191505092915050565b600060a0820190506135e76000830188612a4f565b6135f46020830187612a4f565b613601604083018661241c565b61360e606083018561241c565b81810360808301526136208184613599565b90509695505050505050565b60008151905061363b81612472565b92915050565b6000602082840312156136575761365661233e565b5b60006136658482850161362c565b91505092915050565b600060a0820190506136836000830188612a4f565b6136906020830187612a4f565b81810360408301526136a28186612d31565b905081810360608301526136b68185612d31565b905081810360808301526136ca8184613599565b90509695505050505050565b60006136e1826123a6565b91506136ec836123a6565b9250828201905080821115613704576137036130b5565b5b92915050565b600060808201905061371f6000830187612a4f565b61372c602083018661241c565b613739604083018561241c565b613746606083018461241c565b95945050505050565b600060408201905081810360008301526137698185612d31565b9050818103602083015261377d8184612d31565b9050939250505056fea26469706673582212200ac5c11bb5b82a387044c886efe7866fb95ba9959e4fb03a55840eaa2fe8cc6f64736f6c63430008140033",
  "linkReferences": {},
  "deployedLinkReferences": {}
}