{
  "_format": "hh-sol-artifact-1",
  "contractName": "GANG",
  "sourceName": "contracts/GANG.sol",
  "abi": [
    {
      "inputs": [
        {
          "internalType": "address",
          "name": "defaultAdmin",
          "type": "address"
        },
        {
          "internalType": "address",
          "name": "minter",
          "type": "address"
        }
      ],
      "stateMutability": "nonpayable",
      "type": "constructor"
    },
    {
      "inputs": [],
      "name": "AccessControlBadConfirmation",
      "type": "error"
    },
    {
      "inputs": [
        {
          "internalType": "address",
          "name": "account",
          "type": "address"
        },
        {
          "internalType": "bytes32",
          "name": "neededRole",
          "type": "bytes32"
        }
      ],
      "name": "AccessControlUnauthorizedAccount",
      "type": "error"
    },
    {
      "inputs": [],
      "name": "ECDSAInvalidSignature",
      "type": "error"
    },
    {
      "inputs": [
        {
          "internalType": "uint256",
          "name": "length",
          "type": "uint256"
        }
      ],
      "name": "ECDSAInvalidSignatureLength",
      "type": "error"
    },
    {
      "inputs": [
        {
          "internalType": "bytes32",
          "name": "s",
          "type": "bytes32"
        }
      ],
      "name": "ECDSAInvalidSignatureS",
      "type": "error"
    },
    {
      "inputs": [
        {
          "internalType": "address",
          "name": "spender",
          "type": "address"
        },
        {
          "internalType": "uint256",
          "name": "allowance",
          "type": "uint256"
        },
        {
          "internalType": "uint256",
          "name": "needed",
          "type": "uint256"
        }
      ],
      "name": "ERC20InsufficientAllowance",
      "type": "error"
    },
    {
      "inputs": [
        {
          "internalType": "address",
          "name": "sender",
          "type": "address"
        },
        {
          "internalType": "uint256",
          "name": "balance",
          "type": "uint256"
        },
        {
          "internalType": "uint256",
          "name": "needed",
          "type": "uint256"
        }
      ],
      "name": "ERC20InsufficientBalance",
      "type": "error"
    },
    {
      "inputs": [
        {
          "internalType": "address",
          "name": "approver",
          "type": "address"
        }
      ],
      "name": "ERC20InvalidApprover",
      "type": "error"
    },
    {
      "inputs": [
        {
          "internalType": "address",
          "name": "receiver",
          "type": "address"
        }
      ],
      "name": "ERC20InvalidReceiver",
      "type": "error"
    },
    {
      "inputs": [
        {
          "internalType": "address",
          "name": "sender",
          "type": "address"
        }
      ],
      "name": "ERC20InvalidSender",
      "type": "error"
    },
    {
      "inputs": [
        {
          "internalType": "address",
          "name": "spender",
          "type": "address"
        }
      ],
      "name": "ERC20InvalidSpender",
      "type": "error"
    },
    {
      "inputs": [
        {
          "internalType": "uint256",
          "name": "deadline",
          "type": "uint256"
        }
      ],
      "name": "ERC2612ExpiredSignature",
      "type": "error"
    },
    {
      "inputs": [
        {
          "internalType": "address",
          "name": "signer",
          "type": "address"
        },
        {
          "internalType": "address",
          "name": "owner",
          "type": "address"
        }
      ],
      "name": "ERC2612InvalidSigner",
      "type": "error"
    },
    {
      "inputs": [
        {
          "internalType": "address",
          "name": "account",
          "type": "address"
        },
        {
          "internalType": "uint256",
          "name": "currentNonce",
          "type": "uint256"
        }
      ],
      "name": "InvalidAccountNonce",
      "type": "error"
    },
    {
      "inputs": [],
      "name": "InvalidShortString",
      "type": "error"
    },
    {
      "inputs": [],
      "name": "ReentrancyGuardReentrantCall",
      "type": "error"
    },
    {
      "inputs": [
        {
          "internalType": "string",
          "name": "str",
          "type": "string"
        }
      ],
      "name": "StringTooLong",
      "type": "error"
    },
    {
      "anonymous": false,
      "inputs": [
        {
          "indexed": true,
          "internalType": "address",
          "name": "owner",
          "type": "address"
        },
        {
          "indexed": true,
          "internalType": "address",
          "name": "spender",
          "type": "address"
        },
        {
          "indexed": false,
          "internalType": "uint256",
          "name": "value",
          "type": "uint256"
        }
      ],
      "name": "Approval",
      "type": "event"
    },
    {
      "anonymous": false,
      "inputs": [],
      "name": "EIP712DomainChanged",
      "type": "event"
    },
    {
      "anonymous": false,
      "inputs": [
        {
          "indexed": true,
          "internalType": "address",
          "name": "account",
          "type": "address"
        },
        {
          "indexed": false,
          "internalType": "bool",
          "name": "isExcluded",
          "type": "bool"
        }
      ],
      "name": "ExcludeFromFees",
      "type": "event"
    },
    {
      "anonymous": false,
      "inputs": [
        {
          "indexed": true,
          "internalType": "bytes32",
          "name": "role",
          "type": "bytes32"
        },
        {
          "indexed": true,
          "internalType": "bytes32",
          "name": "previousAdminRole",
          "type": "bytes32"
        },
        {
          "indexed": true,
          "internalType": "bytes32",
          "name": "newAdminRole",
          "type": "bytes32"
        }
      ],
      "name": "RoleAdminChanged",
      "type": "event"
    },
    {
      "anonymous": false,
      "inputs": [
        {
          "indexed": true,
          "internalType": "bytes32",
          "name": "role",
          "type": "bytes32"
        },
        {
          "indexed": true,
          "internalType": "address",
          "name": "account",
          "type": "address"
        },
        {
          "indexed": true,
          "internalType": "address",
          "name": "sender",
          "type": "address"
        }
      ],
      "name": "RoleGranted",
      "type": "event"
    },
    {
      "anonymous": false,
      "inputs": [
        {
          "indexed": true,
          "internalType": "bytes32",
          "name": "role",
          "type": "bytes32"
        },
        {
          "indexed": true,
          "internalType": "address",
          "name": "account",
          "type": "address"
        },
        {
          "indexed": true,
          "internalType": "address",
          "name": "sender",
          "type": "address"
        }
      ],
      "name": "RoleRevoked",
      "type": "event"
    },
    {
      "anonymous": false,
      "inputs": [
        {
          "indexed": false,
          "internalType": "uint256",
          "name": "tokensSwapped",
          "type": "uint256"
        },
        {
          "indexed": false,
          "internalType": "uint256",
          "name": "ethReceived",
          "type": "uint256"
        },
        {
          "indexed": false,
          "internalType": "uint256",
          "name": "tokensIntoLiquidity",
          "type": "uint256"
        }
      ],
      "name": "SwapAndLiquify",
      "type": "event"
    },
    {
      "anonymous": false,
      "inputs": [
        {
          "indexed": true,
          "internalType": "address",
          "name": "from",
          "type": "address"
        },
        {
          "indexed": true,
          "internalType": "address",
          "name": "to",
          "type": "address"
        },
        {
          "indexed": false,
          "internalType": "uint256",
          "name": "value",
          "type": "uint256"
        }
      ],
      "name": "Transfer",
      "type": "event"
    },
    {
      "inputs": [],
      "name": "DEFAULT_ADMIN_ROLE",
      "outputs": [
        {
          "internalType": "bytes32",
          "name": "",
          "type": "bytes32"
        }
      ],
      "stateMutability": "view",
      "type": "function"
    },
    {
      "inputs": [],
      "name": "DOMAIN_SEPARATOR",
      "outputs": [
        {
          "internalType": "bytes32",
          "name": "",
          "type": "bytes32"
        }
      ],
      "stateMutability": "view",
      "type": "function"
    },
    {
      "inputs": [],
      "name": "MINTER_ROLE",
      "outputs": [
        {
          "internalType": "bytes32",
          "name": "",
          "type": "bytes32"
        }
      ],
      "stateMutability": "view",
      "type": "function"
    },
    {
      "inputs": [],
      "name": "_defaultAdmin",
      "outputs": [
        {
          "internalType": "address",
          "name": "",
          "type": "address"
        }
      ],
      "stateMutability": "view",
      "type": "function"
    },
    {
      "inputs": [
        {
          "internalType": "address",
          "name": "owner",
          "type": "address"
        },
        {
          "internalType": "address",
          "name": "spender",
          "type": "address"
        }
      ],
      "name": "allowance",
      "outputs": [
        {
          "internalType": "uint256",
          "name": "",
          "type": "uint256"
        }
      ],
      "stateMutability": "view",
      "type": "function"
    },
    {
      "inputs": [
        {
          "internalType": "address",
          "name": "spender",
          "type": "address"
        },
        {
          "internalType": "uint256",
          "name": "value",
          "type": "uint256"
        }
      ],
      "name": "approve",
      "outputs": [
        {
          "internalType": "bool",
          "name": "",
          "type": "bool"
        }
      ],
      "stateMutability": "nonpayable",
      "type": "function"
    },
    {
      "inputs": [
        {
          "internalType": "address",
          "name": "account",
          "type": "address"
        }
      ],
      "name": "balanceOf",
      "outputs": [
        {
          "internalType": "uint256",
          "name": "",
          "type": "uint256"
        }
      ],
      "stateMutability": "view",
      "type": "function"
    },
    {
      "inputs": [
        {
          "internalType": "address[]",
          "name": "receivers",
          "type": "address[]"
        },
        {
          "internalType": "uint256[]",
          "name": "amounts",
          "type": "uint256[]"
        }
      ],
      "name": "batchMint",
      "outputs": [],
      "stateMutability": "nonpayable",
      "type": "function"
    },
    {
      "inputs": [
        {
          "internalType": "uint256",
          "name": "value",
          "type": "uint256"
        }
      ],
      "name": "burn",
      "outputs": [],
      "stateMutability": "nonpayable",
      "type": "function"
    },
    {
      "inputs": [],
      "name": "burnFee",
      "outputs": [
        {
          "internalType": "uint256",
          "name": "",
          "type": "uint256"
        }
      ],
      "stateMutability": "view",
      "type": "function"
    },
    {
      "inputs": [
        {
          "internalType": "address",
          "name": "account",
          "type": "address"
        },
        {
          "internalType": "uint256",
          "name": "value",
          "type": "uint256"
        }
      ],
      "name": "burnFrom",
      "outputs": [],
      "stateMutability": "nonpayable",
      "type": "function"
    },
    {
      "inputs": [],
      "name": "decimals",
      "outputs": [
        {
          "internalType": "uint8",
          "name": "",
          "type": "uint8"
        }
      ],
      "stateMutability": "view",
      "type": "function"
    },
    {
      "inputs": [],
      "name": "devFee",
      "outputs": [
        {
          "internalType": "uint256",
          "name": "",
          "type": "uint256"
        }
      ],
      "stateMutability": "view",
      "type": "function"
    },
    {
      "inputs": [],
      "name": "eip712Domain",
      "outputs": [
        {
          "internalType": "bytes1",
          "name": "fields",
          "type": "bytes1"
        },
        {
          "internalType": "string",
          "name": "name",
          "type": "string"
        },
        {
          "internalType": "string",
          "name": "version",
          "type": "string"
        },
        {
          "internalType": "uint256",
          "name": "chainId",
          "type": "uint256"
        },
        {
          "internalType": "address",
          "name": "verifyingContract",
          "type": "address"
        },
        {
          "internalType": "bytes32",
          "name": "salt",
          "type": "bytes32"
        },
        {
          "internalType": "uint256[]",
          "name": "extensions",
          "type": "uint256[]"
        }
      ],
      "stateMutability": "view",
      "type": "function"
    },
    {
      "inputs": [
        {
          "internalType": "address",
          "name": "account",
          "type": "address"
        },
        {
          "internalType": "bool",
          "name": "excluded",
          "type": "bool"
        }
      ],
      "name": "excludeFromFees",
      "outputs": [],
      "stateMutability": "nonpayable",
      "type": "function"
    },
    {
      "inputs": [],
      "name": "gangsterArena",
      "outputs": [
        {
          "internalType": "contract IGangsterArena",
          "name": "",
          "type": "address"
        }
      ],
      "stateMutability": "view",
      "type": "function"
    },
    {
      "inputs": [
        {
          "internalType": "bytes32",
          "name": "role",
          "type": "bytes32"
        }
      ],
      "name": "getRoleAdmin",
      "outputs": [
        {
          "internalType": "bytes32",
          "name": "",
          "type": "bytes32"
        }
      ],
      "stateMutability": "view",
      "type": "function"
    },
    {
      "inputs": [
        {
          "internalType": "bytes32",
          "name": "role",
          "type": "bytes32"
        },
        {
          "internalType": "address",
          "name": "account",
          "type": "address"
        }
      ],
      "name": "grantRole",
      "outputs": [],
      "stateMutability": "nonpayable",
      "type": "function"
    },
    {
      "inputs": [
        {
          "internalType": "bytes32",
          "name": "role",
          "type": "bytes32"
        },
        {
          "internalType": "address",
          "name": "account",
          "type": "address"
        }
      ],
      "name": "hasRole",
      "outputs": [
        {
          "internalType": "bool",
          "name": "",
          "type": "bool"
        }
      ],
      "stateMutability": "view",
      "type": "function"
    },
    {
      "inputs": [
        {
          "internalType": "address",
          "name": "account",
          "type": "address"
        }
      ],
      "name": "isExcludedFromFees",
      "outputs": [
        {
          "internalType": "bool",
          "name": "",
          "type": "bool"
        }
      ],
      "stateMutability": "view",
      "type": "function"
    },
    {
      "inputs": [],
      "name": "liquidityFee",
      "outputs": [
        {
          "internalType": "uint256",
          "name": "",
          "type": "uint256"
        }
      ],
      "stateMutability": "view",
      "type": "function"
    },
    {
      "inputs": [],
      "name": "manualSwapBack",
      "outputs": [],
      "stateMutability": "nonpayable",
      "type": "function"
    },
    {
      "inputs": [
        {
          "internalType": "address",
          "name": "to",
          "type": "address"
        },
        {
          "internalType": "uint256",
          "name": "amount",
          "type": "uint256"
        }
      ],
      "name": "mint",
      "outputs": [],
      "stateMutability": "nonpayable",
      "type": "function"
    },
    {
      "inputs": [],
      "name": "name",
      "outputs": [
        {
          "internalType": "string",
          "name": "",
          "type": "string"
        }
      ],
      "stateMutability": "view",
      "type": "function"
    },
    {
      "inputs": [
        {
          "internalType": "address",
          "name": "owner",
          "type": "address"
        }
      ],
      "name": "nonces",
      "outputs": [
        {
          "internalType": "uint256",
          "name": "",
          "type": "uint256"
        }
      ],
      "stateMutability": "view",
      "type": "function"
    },
    {
      "inputs": [
        {
          "internalType": "address",
          "name": "owner",
          "type": "address"
        },
        {
          "internalType": "address",
          "name": "spender",
          "type": "address"
        },
        {
          "internalType": "uint256",
          "name": "value",
          "type": "uint256"
        },
        {
          "internalType": "uint256",
          "name": "deadline",
          "type": "uint256"
        },
        {
          "internalType": "uint8",
          "name": "v",
          "type": "uint8"
        },
        {
          "internalType": "bytes32",
          "name": "r",
          "type": "bytes32"
        },
        {
          "internalType": "bytes32",
          "name": "s",
          "type": "bytes32"
        }
      ],
      "name": "permit",
      "outputs": [],
      "stateMutability": "nonpayable",
      "type": "function"
    },
    {
      "inputs": [],
      "name": "prizeFee",
      "outputs": [
        {
          "internalType": "uint256",
          "name": "",
          "type": "uint256"
        }
      ],
      "stateMutability": "view",
      "type": "function"
    },
    {
      "inputs": [
        {
          "internalType": "bytes32",
          "name": "role",
          "type": "bytes32"
        },
        {
          "internalType": "address",
          "name": "callerConfirmation",
          "type": "address"
        }
      ],
      "name": "renounceRole",
      "outputs": [],
      "stateMutability": "nonpayable",
      "type": "function"
    },
    {
      "inputs": [
        {
          "internalType": "bytes32",
          "name": "role",
          "type": "bytes32"
        },
        {
          "internalType": "address",
          "name": "account",
          "type": "address"
        }
      ],
      "name": "revokeRole",
      "outputs": [],
      "stateMutability": "nonpayable",
      "type": "function"
    },
    {
      "inputs": [
        {
          "internalType": "bytes4",
          "name": "interfaceId",
          "type": "bytes4"
        }
      ],
      "name": "supportsInterface",
      "outputs": [
        {
          "internalType": "bool",
          "name": "",
          "type": "bool"
        }
      ],
      "stateMutability": "view",
      "type": "function"
    },
    {
      "inputs": [],
      "name": "swapTokensAtAmount",
      "outputs": [
        {
          "internalType": "uint256",
          "name": "",
          "type": "uint256"
        }
      ],
      "stateMutability": "view",
      "type": "function"
    },
    {
      "inputs": [],
      "name": "symbol",
      "outputs": [
        {
          "internalType": "string",
          "name": "",
          "type": "string"
        }
      ],
      "stateMutability": "view",
      "type": "function"
    },
    {
      "inputs": [],
      "name": "tokensForLiquidity",
      "outputs": [
        {
          "internalType": "uint256",
          "name": "",
          "type": "uint256"
        }
      ],
      "stateMutability": "view",
      "type": "function"
    },
    {
      "inputs": [],
      "name": "tokensForRevShare",
      "outputs": [
        {
          "internalType": "uint256",
          "name": "",
          "type": "uint256"
        }
      ],
      "stateMutability": "view",
      "type": "function"
    },
    {
      "inputs": [],
      "name": "tokensForTeam",
      "outputs": [
        {
          "internalType": "uint256",
          "name": "",
          "type": "uint256"
        }
      ],
      "stateMutability": "view",
      "type": "function"
    },
    {
      "inputs": [],
      "name": "totalFees",
      "outputs": [
        {
          "internalType": "uint256",
          "name": "",
          "type": "uint256"
        }
      ],
      "stateMutability": "view",
      "type": "function"
    },
    {
      "inputs": [],
      "name": "totalSupply",
      "outputs": [
        {
          "internalType": "uint256",
          "name": "",
          "type": "uint256"
        }
      ],
      "stateMutability": "view",
      "type": "function"
    },
    {
      "inputs": [
        {
          "internalType": "address",
          "name": "to",
          "type": "address"
        },
        {
          "internalType": "uint256",
          "name": "value",
          "type": "uint256"
        }
      ],
      "name": "transfer",
      "outputs": [
        {
          "internalType": "bool",
          "name": "",
          "type": "bool"
        }
      ],
      "stateMutability": "nonpayable",
      "type": "function"
    },
    {
      "inputs": [
        {
          "internalType": "address",
          "name": "from",
          "type": "address"
        },
        {
          "internalType": "address",
          "name": "to",
          "type": "address"
        },
        {
          "internalType": "uint256",
          "name": "value",
          "type": "uint256"
        }
      ],
      "name": "transferFrom",
      "outputs": [
        {
          "internalType": "bool",
          "name": "",
          "type": "bool"
        }
      ],
      "stateMutability": "nonpayable",
      "type": "function"
    },
    {
      "inputs": [],
      "name": "uniswapV2Pair",
      "outputs": [
        {
          "internalType": "address",
          "name": "",
          "type": "address"
        }
      ],
      "stateMutability": "view",
      "type": "function"
    },
    {
      "inputs": [],
      "name": "uniswapV2Router",
      "outputs": [
        {
          "internalType": "contract IUniswapV2Router02",
          "name": "",
          "type": "address"
        }
      ],
      "stateMutability": "view",
      "type": "function"
    },
    {
      "inputs": [
        {
          "internalType": "uint256",
          "name": "_prizeFee",
          "type": "uint256"
        },
        {
          "internalType": "uint256",
          "name": "_liquidityFee",
          "type": "uint256"
        },
        {
          "internalType": "uint256",
          "name": "_devFee",
          "type": "uint256"
        },
        {
          "internalType": "uint256",
          "name": "_burnFee",
          "type": "uint256"
        }
      ],
      "name": "updateFees",
      "outputs": [],
      "stateMutability": "nonpayable",
      "type": "function"
    },
    {
      "inputs": [
        {
          "internalType": "address",
          "name": "_address",
          "type": "address"
        }
      ],
      "name": "updateGangsterArenaAddress",
      "outputs": [],
      "stateMutability": "nonpayable",
      "type": "function"
    },
    {
      "inputs": [
        {
          "internalType": "uint256",
          "name": "newAmount",
          "type": "uint256"
        }
      ],
      "name": "updateSwapTokensAtAmount",
      "outputs": [],
      "stateMutability": "nonpayable",
      "type": "function"
    },
    {
      "inputs": [
        {
          "internalType": "address",
          "name": "_uniswapV2Pair",
          "type": "address"
        },
        {
          "internalType": "address",
          "name": "_uniswapV2Router",
          "type": "address"
        }
      ],
      "name": "updateUniswapAddresses",
      "outputs": [],
      "stateMutability": "nonpayable",
      "type": "function"
    },
    {
      "inputs": [
        {
          "internalType": "address",
          "name": "toAddr",
          "type": "address"
        }
      ],
      "name": "withdrawStuckEth",
      "outputs": [],
      "stateMutability": "nonpayable",
      "type": "function"
    },
    {
      "inputs": [],
      "name": "withdrawStuckToken",
      "outputs": [],
      "stateMutability": "nonpayable",
      "type": "function"
    },
    {
      "stateMutability": "payable",
      "type": "receive"
    }
  ],
  "bytecode": "0x610160604052683635c9adc5dea00000600e556101f4600f5560fa6010556064601155609660125560006013556000601455600060155560006016553480156200004857600080fd5b50604051620051a6380380620051a683398181016040528101906200006e919062000762565b6040518060400160405280600481526020017f47414e4700000000000000000000000000000000000000000000000000000000815250806040518060400160405280600181526020017f31000000000000000000000000000000000000000000000000000000000000008152506040518060400160405280600481526020017f47414e47000000000000000000000000000000000000000000000000000000008152506040518060400160405280600581526020017f2447414e47000000000000000000000000000000000000000000000000000000815250816003908162000158919062000a23565b5080600490816200016a919062000a23565b505050620001836006836200031460201b90919060201c565b6101208181525050620001a16007826200031460201b90919060201c565b6101408181525050818051906020012060e08181525050808051906020012061010081815250504660a08181525050620001e06200036c60201b60201c565b608081815250503073ffffffffffffffffffffffffffffffffffffffff1660c08173ffffffffffffffffffffffffffffffffffffffff168152505050505060016009819055506200023b6000801b83620003c960201b60201c565b506200026e7f9f2df0fed2c77648de5860a4cc508cd0818c85b8b8a1ab4ceeef8d981c8956a682620003c960201b60201c565b5081600d60006101000a81548173ffffffffffffffffffffffffffffffffffffffff021916908373ffffffffffffffffffffffffffffffffffffffff160217905550620002c460006001620004cd60201b60201c565b620002d7306001620004cd60201b60201c565b6200030c600d60009054906101000a900473ffffffffffffffffffffffffffffffffffffffff166001620004cd60201b60201c565b505062000d60565b60006020835110156200033a5762000332836200058e60201b60201c565b905062000366565b826200034c83620005fb60201b60201c565b60000190816200035d919062000a23565b5060ff60001b90505b92915050565b60007f8b73c3c69bb8fe3d512ecc4cf759cc79239f7b179b0ffacaa9a75d522b39400f60e051610100514630604051602001620003ae95949392919062000b47565b60405160208183030381529060405280519060200120905090565b6000620003dd83836200060560201b60201c565b620004c25760016005600085815260200190815260200160002060000160008473ffffffffffffffffffffffffffffffffffffffff1673ffffffffffffffffffffffffffffffffffffffff16815260200190815260200160002060006101000a81548160ff0219169083151502179055506200045e6200067060201b60201c565b73ffffffffffffffffffffffffffffffffffffffff168273ffffffffffffffffffffffffffffffffffffffff16847f2f8788117e7eff1d82e926ec794901d17c78024a50270940304540a733656f0d60405160405180910390a460019050620004c7565b600090505b92915050565b6000801b620004e2816200067860201b60201c565b81601760008573ffffffffffffffffffffffffffffffffffffffff1673ffffffffffffffffffffffffffffffffffffffff16815260200190815260200160002060006101000a81548160ff0219169083151502179055508273ffffffffffffffffffffffffffffffffffffffff167f9d8f7706ea1113d1a167b526eca956215946dd36cc7df39eb16180222d8b5df78360405162000581919062000bc1565b60405180910390a2505050565b600080829050601f81511115620005de57826040517f305a27a9000000000000000000000000000000000000000000000000000000008152600401620005d5919062000c6d565b60405180910390fd5b805181620005ec9062000cc3565b60001c1760001b915050919050565b6000819050919050565b60006005600084815260200190815260200160002060000160008373ffffffffffffffffffffffffffffffffffffffff1673ffffffffffffffffffffffffffffffffffffffff16815260200190815260200160002060009054906101000a900460ff16905092915050565b600033905090565b62000699816200068d6200067060201b60201c565b6200069c60201b60201c565b50565b620006ae82826200060560201b60201c565b620006f45780826040517fe2517d3f000000000000000000000000000000000000000000000000000000008152600401620006eb92919062000d33565b60405180910390fd5b5050565b600080fd5b600073ffffffffffffffffffffffffffffffffffffffff82169050919050565b60006200072a82620006fd565b9050919050565b6200073c816200071d565b81146200074857600080fd5b50565b6000815190506200075c8162000731565b92915050565b600080604083850312156200077c576200077b620006f8565b5b60006200078c858286016200074b565b92505060206200079f858286016200074b565b9150509250929050565b600081519050919050565b7f4e487b7100000000000000000000000000000000000000000000000000000000600052604160045260246000fd5b7f4e487b7100000000000000000000000000000000000000000000000000000000600052602260045260246000fd5b600060028204905060018216806200082b57607f821691505b602082108103620008415762000840620007e3565b5b50919050565b60008190508160005260206000209050919050565b60006020601f8301049050919050565b600082821b905092915050565b600060088302620008ab7fffffffffffffffffffffffffffffffffffffffffffffffffffffffffffffffff826200086c565b620008b786836200086c565b95508019841693508086168417925050509392505050565b6000819050919050565b6000819050919050565b600062000904620008fe620008f884620008cf565b620008d9565b620008cf565b9050919050565b6000819050919050565b6200092083620008e3565b620009386200092f826200090b565b84845462000879565b825550505050565b600090565b6200094f62000940565b6200095c81848462000915565b505050565b5b8181101562000984576200097860008262000945565b60018101905062000962565b5050565b601f821115620009d3576200099d8162000847565b620009a8846200085c565b81016020851015620009b8578190505b620009d0620009c7856200085c565b83018262000961565b50505b505050565b600082821c905092915050565b6000620009f860001984600802620009d8565b1980831691505092915050565b600062000a138383620009e5565b9150826002028217905092915050565b62000a2e82620007a9565b67ffffffffffffffff81111562000a4a5762000a49620007b4565b5b62000a56825462000812565b62000a6382828562000988565b600060209050601f83116001811462000a9b576000841562000a86578287015190505b62000a92858262000a05565b86555062000b02565b601f19841662000aab8662000847565b60005b8281101562000ad55784890151825560018201915060208501945060208101905062000aae565b8683101562000af5578489015162000af1601f891682620009e5565b8355505b6001600288020188555050505b505050505050565b6000819050919050565b62000b1f8162000b0a565b82525050565b62000b3081620008cf565b82525050565b62000b41816200071d565b82525050565b600060a08201905062000b5e600083018862000b14565b62000b6d602083018762000b14565b62000b7c604083018662000b14565b62000b8b606083018562000b25565b62000b9a608083018462000b36565b9695505050505050565b60008115159050919050565b62000bbb8162000ba4565b82525050565b600060208201905062000bd8600083018462000bb0565b92915050565b600082825260208201905092915050565b60005b8381101562000c0f57808201518184015260208101905062000bf2565b60008484015250505050565b6000601f19601f8301169050919050565b600062000c3982620007a9565b62000c45818562000bde565b935062000c5781856020860162000bef565b62000c628162000c1b565b840191505092915050565b6000602082019050818103600083015262000c89818462000c2c565b905092915050565b600081519050919050565b6000819050602082019050919050565b600062000cba825162000b0a565b80915050919050565b600062000cd08262000c91565b8262000cdc8462000c9c565b905062000ce98162000cac565b9250602082101562000d2c5762000d277fffffffffffffffffffffffffffffffffffffffffffffffffffffffffffffffff836020036008026200086c565b831692505b5050919050565b600060408201905062000d4a600083018562000b36565b62000d59602083018462000b14565b9392505050565b60805160a05160c05160e0516101005161012051610140516143eb62000dbb60003960006120c101526000612086015260006127900152600061276f01526000611af201526000611b4801526000611b7101526143eb6000f3fe60806040526004361061028c5760003560e01c806370a082311161015a578063c0246668116100c1578063d547741f1161007a578063d547741f146109e1578063dd62ed3e14610a0a578063e2f4560514610a47578063ed5e365314610a72578063fce589d814610a9d578063fde83a3414610ac857610293565b8063c0246668146108e7578063c6616ba114610910578063c87f4a0614610939578063d257b34f14610964578063d505accf1461098d578063d5391393146109b657610293565b806385127ffa1161011357806385127ffa146107c157806391d14854146107ec57806395d89b411461082957806398118cb414610854578063a217fddf1461087f578063a9059cbb146108aa57610293565b806370a08231146106ad57806379cc6790146106ea5780637ca8448a146107135780637ecebe001461073c57806384b0196e1461077957806384dd4452146107aa57610293565b80632f2ff15d116101fe57806349bd5a5e116101b757806349bd5a5e146105b15780634fbee193146105dc5780634fe8de811461061957806366eb3785146106425780636827e76414610659578063685731071461068457610293565b80632f2ff15d146104b7578063313ce567146104e05780633644e5151461050b57806336568abe1461053657806340c10f191461055f57806342966c681461058857610293565b80631694505e116102505780631694505e1461039157806318160ddd146103bc5780631a8145bb146103e757806323b872dd14610412578063248a9ca31461044f57806324b9f3c11461048c57610293565b806301ffc9a71461029857806303901b47146102d557806306fdde03146102fe578063095ea7b31461032957806313114a9d1461036657610293565b3661029357005b600080fd5b3480156102a457600080fd5b506102bf60048036038101906102ba9190613249565b610af3565b6040516102cc9190613291565b60405180910390f35b3480156102e157600080fd5b506102fc60048036038101906102f7919061330a565b610b6d565b005b34801561030a57600080fd5b50610313610c01565b60405161032091906133da565b60405180910390f35b34801561033557600080fd5b50610350600480360381019061034b9190613432565b610c93565b60405161035d9190613291565b60405180910390f35b34801561037257600080fd5b5061037b610cb6565b6040516103889190613481565b60405180910390f35b34801561039d57600080fd5b506103a6610cbc565b6040516103b391906134fb565b60405180910390f35b3480156103c857600080fd5b506103d1610ce2565b6040516103de9190613481565b60405180910390f35b3480156103f357600080fd5b506103fc610cec565b6040516104099190613481565b60405180910390f35b34801561041e57600080fd5b5061043960048036038101906104349190613516565b610cf2565b6040516104469190613291565b60405180910390f35b34801561045b57600080fd5b506104766004803603810190610471919061359f565b610d21565b60405161048391906135db565b60405180910390f35b34801561049857600080fd5b506104a1610d41565b6040516104ae9190613481565b60405180910390f35b3480156104c357600080fd5b506104de60048036038101906104d991906135f6565b610d47565b005b3480156104ec57600080fd5b506104f5610d69565b6040516105029190613652565b60405180910390f35b34801561051757600080fd5b50610520610d72565b60405161052d91906135db565b60405180910390f35b34801561054257600080fd5b5061055d600480360381019061055891906135f6565b610d81565b005b34801561056b57600080fd5b5061058660048036038101906105819190613432565b610dfc565b005b34801561059457600080fd5b506105af60048036038101906105aa919061366d565b610e35565b005b3480156105bd57600080fd5b506105c6610e49565b6040516105d391906136a9565b60405180910390f35b3480156105e857600080fd5b5061060360048036038101906105fe91906136c4565b610e6f565b6040516106109190613291565b60405180910390f35b34801561062557600080fd5b50610640600480360381019061063b91906136c4565b610ec5565b005b34801561064e57600080fd5b50610657610f17565b005b34801561066557600080fd5b5061066e610f2f565b60405161067b9190613481565b60405180910390f35b34801561069057600080fd5b506106ab60048036038101906106a691906137ac565b610f35565b005b3480156106b957600080fd5b506106d460048036038101906106cf91906136c4565b610ff6565b6040516106e19190613481565b60405180910390f35b3480156106f657600080fd5b50610711600480360381019061070c9190613432565b61103e565b005b34801561071f57600080fd5b5061073a600480360381019061073591906136c4565b61105e565b005b34801561074857600080fd5b50610763600480360381019061075e91906136c4565b611098565b6040516107709190613481565b60405180910390f35b34801561078557600080fd5b5061078e6110aa565b6040516107a19796959493929190613926565b60405180910390f35b3480156107b657600080fd5b506107bf611154565b005b3480156107cd57600080fd5b506107d66112a9565b6040516107e391906139cb565b60405180910390f35b3480156107f857600080fd5b50610813600480360381019061080e91906135f6565b6112cf565b6040516108209190613291565b60405180910390f35b34801561083557600080fd5b5061083e61133a565b60405161084b91906133da565b60405180910390f35b34801561086057600080fd5b506108696113cc565b6040516108769190613481565b60405180910390f35b34801561088b57600080fd5b506108946113d2565b6040516108a191906135db565b60405180910390f35b3480156108b657600080fd5b506108d160048036038101906108cc9190613432565b6113d9565b6040516108de9190613291565b60405180910390f35b3480156108f357600080fd5b5061090e60048036038101906109099190613a12565b6113fc565b005b34801561091c57600080fd5b5061093760048036038101906109329190613a52565b6114b3565b005b34801561094557600080fd5b5061094e611571565b60405161095b9190613481565b60405180910390f35b34801561097057600080fd5b5061098b6004803603810190610986919061366d565b611577565b005b34801561099957600080fd5b506109b460048036038101906109af9190613ae5565b61158f565b005b3480156109c257600080fd5b506109cb6116d7565b6040516109d891906135db565b60405180910390f35b3480156109ed57600080fd5b50610a086004803603810190610a0391906135f6565b6116fb565b005b348015610a1657600080fd5b50610a316004803603810190610a2c919061330a565b61171d565b604051610a3e9190613481565b60405180910390f35b348015610a5357600080fd5b50610a5c6117a4565b604051610a699190613481565b60405180910390f35b348015610a7e57600080fd5b50610a876117aa565b604051610a9491906136a9565b60405180910390f35b348015610aa957600080fd5b50610ab26117d0565b604051610abf9190613481565b60405180910390f35b348015610ad457600080fd5b50610add6117d6565b604051610aea9190613481565b60405180910390f35b60007f7965db0b000000000000000000000000000000000000000000000000000000007bffffffffffffffffffffffffffffffffffffffffffffffffffffffff1916827bffffffffffffffffffffffffffffffffffffffffffffffffffffffff19161480610b665750610b65826117dc565b5b9050919050565b6000801b610b7a81611846565b82600b60006101000a81548173ffffffffffffffffffffffffffffffffffffffff021916908373ffffffffffffffffffffffffffffffffffffffff16021790555081600a60006101000a81548173ffffffffffffffffffffffffffffffffffffffff021916908373ffffffffffffffffffffffffffffffffffffffff160217905550505050565b606060038054610c1090613bb6565b80601f0160208091040260200160405190810160405280929190818152602001828054610c3c90613bb6565b8015610c895780601f10610c5e57610100808354040283529160200191610c89565b820191906000526020600020905b815481529060010190602001808311610c6c57829003601f168201915b5050505050905090565b600080610c9e61185a565b9050610cab818585611862565b600191505092915050565b600f5481565b600a60009054906101000a900473ffffffffffffffffffffffffffffffffffffffff1681565b6000600254905090565b60155481565b600080610cfd61185a565b9050610d0a858285611874565b610d15858585611908565b60019150509392505050565b600060056000838152602001908152602001600020600101549050919050565b60145481565b610d5082610d21565b610d5981611846565b610d6383836119fc565b50505050565b60006012905090565b6000610d7c611aee565b905090565b610d8961185a565b73ffffffffffffffffffffffffffffffffffffffff168173ffffffffffffffffffffffffffffffffffffffff1614610ded576040517f6697b23200000000000000000000000000000000000000000000000000000000815260040160405180910390fd5b610df78282611ba5565b505050565b7f9f2df0fed2c77648de5860a4cc508cd0818c85b8b8a1ab4ceeef8d981c8956a6610e2681611846565b610e308383611c98565b505050565b610e46610e4061185a565b82611d1a565b50565b600b60009054906101000a900473ffffffffffffffffffffffffffffffffffffffff1681565b6000601760008373ffffffffffffffffffffffffffffffffffffffff1673ffffffffffffffffffffffffffffffffffffffff16815260200190815260200160002060009054906101000a900460ff169050919050565b6000801b610ed281611846565b81600c60006101000a81548173ffffffffffffffffffffffffffffffffffffffff021916908373ffffffffffffffffffffffffffffffffffffffff1602179055505050565b6000801b610f2481611846565b610f2c611d9c565b50565b60125481565b7f9f2df0fed2c77648de5860a4cc508cd0818c85b8b8a1ab4ceeef8d981c8956a6610f5f81611846565b828290508585905014610f7157600080fd5b60005b858590508163ffffffff161015610fee57610fdb86868363ffffffff16818110610fa157610fa0613be7565b5b9050602002016020810190610fb691906136c4565b85858463ffffffff16818110610fcf57610fce613be7565b5b90506020020135611c98565b8080610fe690613c55565b915050610f74565b505050505050565b60008060008373ffffffffffffffffffffffffffffffffffffffff1673ffffffffffffffffffffffffffffffffffffffff168152602001908152602001600020549050919050565b6110508261104a61185a565b83611874565b61105a8282611d1a565b5050565b6000801b61106b81611846565b611094478373ffffffffffffffffffffffffffffffffffffffff16611fe190919063ffffffff16565b5050565b60006110a382612034565b9050919050565b6000606080600080600060606110be61207d565b6110c66120b8565b46306000801b600067ffffffffffffffff8111156110e7576110e6613c81565b5b6040519080825280602002602001820160405280156111155781602001602082028036833780820191505090505b507f0f00000000000000000000000000000000000000000000000000000000000000959493929190965096509650965096509650965090919293949596565b6000801b61116181611846565b60003073ffffffffffffffffffffffffffffffffffffffff166370a08231306040518263ffffffff1660e01b815260040161119c91906136a9565b602060405180830381865afa1580156111b9573d6000803e3d6000fd5b505050506040513d601f19601f820116820180604052508101906111dd9190613cc5565b90503073ffffffffffffffffffffffffffffffffffffffff1663a9059cbb33836040518363ffffffff1660e01b815260040161121a929190613cf2565b6020604051808303816000875af1158015611239573d6000803e3d6000fd5b505050506040513d601f19601f8201168201806040525081019061125d9190613d30565b503373ffffffffffffffffffffffffffffffffffffffff166108fc479081150290604051600060405180830381858888f193505050501580156112a4573d6000803e3d6000fd5b505050565b600c60009054906101000a900473ffffffffffffffffffffffffffffffffffffffff1681565b60006005600084815260200190815260200160002060000160008373ffffffffffffffffffffffffffffffffffffffff1673ffffffffffffffffffffffffffffffffffffffff16815260200190815260200160002060009054906101000a900460ff16905092915050565b60606004805461134990613bb6565b80601f016020809104026020016040519081016040528092919081815260200182805461137590613bb6565b80156113c25780601f10611397576101008083540402835291602001916113c2565b820191906000526020600020905b8154815290600101906020018083116113a557829003601f168201915b5050505050905090565b60115481565b6000801b81565b6000806113e461185a565b90506113f1818585611908565b600191505092915050565b6000801b61140981611846565b81601760008573ffffffffffffffffffffffffffffffffffffffff1673ffffffffffffffffffffffffffffffffffffffff16815260200190815260200160002060006101000a81548160ff0219169083151502179055508273ffffffffffffffffffffffffffffffffffffffff167f9d8f7706ea1113d1a167b526eca956215946dd36cc7df39eb16180222d8b5df7836040516114a69190613291565b60405180910390a2505050565b6000801b6114c081611846565b6103e8828486886114d19190613d5d565b6114db9190613d5d565b6114e59190613d5d565b1115611526576040517f08c379a000000000000000000000000000000000000000000000000000000000815260040161151d90613ddd565b60405180910390fd5b84601081905550836011819055508260128190555081601381905550818385876115509190613d5d565b61155a9190613d5d565b6115649190613d5d565b600f819055505050505050565b60105481565b6000801b61158481611846565b81600e819055505050565b834211156115d457836040517f627913020000000000000000000000000000000000000000000000000000000081526004016115cb9190613481565b60405180910390fd5b60007f6e71edae12b1b97f4d1f60370fef10105fa2faae0126114a169c64845d6126c98888886116038c6120f3565b8960405160200161161996959493929190613dfd565b604051602081830303815290604052805190602001209050600061163c8261214a565b9050600061164c82878787612164565b90508973ffffffffffffffffffffffffffffffffffffffff168173ffffffffffffffffffffffffffffffffffffffff16146116c057808a6040517f4b800e460000000000000000000000000000000000000000000000000000000081526004016116b7929190613e5e565b60405180910390fd5b6116cb8a8a8a611862565b50505050505050505050565b7f9f2df0fed2c77648de5860a4cc508cd0818c85b8b8a1ab4ceeef8d981c8956a681565b61170482610d21565b61170d81611846565b6117178383611ba5565b50505050565b6000600160008473ffffffffffffffffffffffffffffffffffffffff1673ffffffffffffffffffffffffffffffffffffffff16815260200190815260200160002060008373ffffffffffffffffffffffffffffffffffffffff1673ffffffffffffffffffffffffffffffffffffffff16815260200190815260200160002054905092915050565b600e5481565b600d60009054906101000a900473ffffffffffffffffffffffffffffffffffffffff1681565b60135481565b60165481565b60007f01ffc9a7000000000000000000000000000000000000000000000000000000007bffffffffffffffffffffffffffffffffffffffffffffffffffffffff1916827bffffffffffffffffffffffffffffffffffffffffffffffffffffffff1916149050919050565b6118578161185261185a565b612194565b50565b600033905090565b61186f83838360016121e5565b505050565b6000611880848461171d565b90507fffffffffffffffffffffffffffffffffffffffffffffffffffffffffffffffff811461190257818110156118f2578281836040517ffb8f41b20000000000000000000000000000000000000000000000000000000081526004016118e993929190613e87565b60405180910390fd5b611901848484840360006121e5565b5b50505050565b600073ffffffffffffffffffffffffffffffffffffffff168373ffffffffffffffffffffffffffffffffffffffff160361197a5760006040517f96c6fd1e00000000000000000000000000000000000000000000000000000000815260040161197191906136a9565b60405180910390fd5b600073ffffffffffffffffffffffffffffffffffffffff168273ffffffffffffffffffffffffffffffffffffffff16036119ec5760006040517fec442f050000000000000000000000000000000000000000000000000000000081526004016119e391906136a9565b60405180910390fd5b6119f78383836123bc565b505050565b6000611a0883836112cf565b611ae35760016005600085815260200190815260200160002060000160008473ffffffffffffffffffffffffffffffffffffffff1673ffffffffffffffffffffffffffffffffffffffff16815260200190815260200160002060006101000a81548160ff021916908315150217905550611a8061185a565b73ffffffffffffffffffffffffffffffffffffffff168273ffffffffffffffffffffffffffffffffffffffff16847f2f8788117e7eff1d82e926ec794901d17c78024a50270940304540a733656f0d60405160405180910390a460019050611ae8565b600090505b92915050565b60007f000000000000000000000000000000000000000000000000000000000000000073ffffffffffffffffffffffffffffffffffffffff163073ffffffffffffffffffffffffffffffffffffffff16148015611b6a57507f000000000000000000000000000000000000000000000000000000000000000046145b15611b97577f00000000000000000000000000000000000000000000000000000000000000009050611ba2565b611b9f61274a565b90505b90565b6000611bb183836112cf565b15611c8d5760006005600085815260200190815260200160002060000160008473ffffffffffffffffffffffffffffffffffffffff1673ffffffffffffffffffffffffffffffffffffffff16815260200190815260200160002060006101000a81548160ff021916908315150217905550611c2a61185a565b73ffffffffffffffffffffffffffffffffffffffff168273ffffffffffffffffffffffffffffffffffffffff16847ff6391f5c32d9c69d2a47ea670b442974b53935d1edc7fd64eb21e047a839171b60405160405180910390a460019050611c92565b600090505b92915050565b600073ffffffffffffffffffffffffffffffffffffffff168273ffffffffffffffffffffffffffffffffffffffff1603611d0a5760006040517fec442f05000000000000000000000000000000000000000000000000000000008152600401611d0191906136a9565b60405180910390fd5b611d16600083836123bc565b5050565b600073ffffffffffffffffffffffffffffffffffffffff168273ffffffffffffffffffffffffffffffffffffffff1603611d8c5760006040517f96c6fd1e000000000000000000000000000000000000000000000000000000008152600401611d8391906136a9565b60405180910390fd5b611d98826000836123bc565b5050565b611da46127e0565b6000611daf30610ff6565b90506000601654601454601554611dc69190613d5d565b611dd09190613d5d565b90506000821480611de15750600081145b15611ded575050611fd7565b60008160155484611dfe9190613ebe565b611e089190613f2f565b90506000611e1f828561282690919063ffffffff16565b90506000479050611e2f8261283c565b6000611e44824761282690919063ffffffff16565b90506000611e6f86611e6160165485612a7f90919063ffffffff16565b612a9590919063ffffffff16565b90506000611e9a87611e8c60155486612a7f90919063ffffffff16565b612a9590919063ffffffff16565b90506000818385611eab9190613f60565b611eb59190613f60565b9050600087118015611ec75750600082115b15611f1457611ed68783612aab565b7f17bbfb9a6069321b6ded73bd96327c9e6b7212a5cd51ff219cd61370acafb5618683601554604051611f0b93929190613f94565b60405180910390a15b600c60009054906101000a900473ffffffffffffffffffffffffffffffffffffffff1673ffffffffffffffffffffffffffffffffffffffff166329206a708285611f5e9190613d5d565b8560008560006040518663ffffffff1660e01b8152600401611f839493929190614006565b6000604051808303818588803b158015611f9c57600080fd5b505af1158015611fb0573d6000803e3d6000fd5b50505050506000601581905550600060148190555060006016819055505050505050505050505b611fdf612bab565b565b600080600080600085875af190508061202f576040517f08c379a000000000000000000000000000000000000000000000000000000000815260040161202690614097565b60405180910390fd5b505050565b6000600860008373ffffffffffffffffffffffffffffffffffffffff1673ffffffffffffffffffffffffffffffffffffffff168152602001908152602001600020549050919050565b60606120b360067f0000000000000000000000000000000000000000000000000000000000000000612bb590919063ffffffff16565b905090565b60606120ee60077f0000000000000000000000000000000000000000000000000000000000000000612bb590919063ffffffff16565b905090565b6000600860008373ffffffffffffffffffffffffffffffffffffffff1673ffffffffffffffffffffffffffffffffffffffff1681526020019081526020016000206000815480929190600101919050559050919050565b600061215d612157611aee565b83612c65565b9050919050565b60008060008061217688888888612ca6565b9250925092506121868282612d9a565b829350505050949350505050565b61219e82826112cf565b6121e15780826040517fe2517d3f0000000000000000000000000000000000000000000000000000000081526004016121d89291906140b7565b60405180910390fd5b5050565b600073ffffffffffffffffffffffffffffffffffffffff168473ffffffffffffffffffffffffffffffffffffffff16036122575760006040517fe602df0500000000000000000000000000000000000000000000000000000000815260040161224e91906136a9565b60405180910390fd5b600073ffffffffffffffffffffffffffffffffffffffff168373ffffffffffffffffffffffffffffffffffffffff16036122c95760006040517f94280d620000000000000000000000000000000000000000000000000000000081526004016122c091906136a9565b60405180910390fd5b81600160008673ffffffffffffffffffffffffffffffffffffffff1673ffffffffffffffffffffffffffffffffffffffff16815260200190815260200160002060008573ffffffffffffffffffffffffffffffffffffffff1673ffffffffffffffffffffffffffffffffffffffff1681526020019081526020016000208190555080156123b6578273ffffffffffffffffffffffffffffffffffffffff168473ffffffffffffffffffffffffffffffffffffffff167f8c5be1e5ebec7d5bd14f71427d1e84f3dd0314c0f7b2291e5b200ac8c7c3b925846040516123ad9190613481565b60405180910390a35b50505050565b6000810315612745576000600b60009054906101000a900473ffffffffffffffffffffffffffffffffffffffff1673ffffffffffffffffffffffffffffffffffffffff168473ffffffffffffffffffffffffffffffffffffffff161490506000600b60009054906101000a900473ffffffffffffffffffffffffffffffffffffffff1673ffffffffffffffffffffffffffffffffffffffff168473ffffffffffffffffffffffffffffffffffffffff161490506000601760008773ffffffffffffffffffffffffffffffffffffffff1673ffffffffffffffffffffffffffffffffffffffff16815260200190815260200160002060009054906101000a900460ff161580156125155750601760008673ffffffffffffffffffffffffffffffffffffffff1673ffffffffffffffffffffffffffffffffffffffff16815260200190815260200160002060009054906101000a900460ff16155b8015612526575081806125255750825b5b905060008061253430610ff6565b90506000600e54821015905080801561254a5750845b80156125a05750601760008a73ffffffffffffffffffffffffffffffffffffffff1673ffffffffffffffffffffffffffffffffffffffff16815260200190815260200160002060009054906101000a900460ff16155b80156125f65750601760008973ffffffffffffffffffffffffffffffffffffffff1673ffffffffffffffffffffffffffffffffffffffff16815260200190815260200160002060009054906101000a900460ff16155b1561260457612603611d9c565b5b831561273357612633612710612625600f548a612a7f90919063ffffffff16565b612a9590919063ffffffff16565b9250600f54601154846126469190613ebe565b6126509190613f2f565b601560008282546126619190613d5d565b92505081905550600f54601254846126799190613ebe565b6126839190613f2f565b601660008282546126949190613d5d565b92505081905550600f54601054846126ac9190613ebe565b6126b69190613f2f565b601460008282546126c79190613d5d565b925050819055506000600f54601354856126e19190613ebe565b6126eb9190613f2f565b9050600084111561272357600081111561270c5761270b8a600083612efe565b5b6127228a30838761271d9190613f60565b612efe565b5b838861272f9190613f60565b9750505b61273e898989612efe565b5050505050505b505050565b60007f8b73c3c69bb8fe3d512ecc4cf759cc79239f7b179b0ffacaa9a75d522b39400f7f00000000000000000000000000000000000000000000000000000000000000007f000000000000000000000000000000000000000000000000000000000000000046306040516020016127c59594939291906140e0565b60405160208183030381529060405280519060200120905090565b60026009540361281c576040517f3ee5aeb500000000000000000000000000000000000000000000000000000000815260040160405180910390fd5b6002600981905550565b600081836128349190613f60565b905092915050565b6000600267ffffffffffffffff81111561285957612858613c81565b5b6040519080825280602002602001820160405280156128875781602001602082028036833780820191505090505b509050308160008151811061289f5761289e613be7565b5b602002602001019073ffffffffffffffffffffffffffffffffffffffff16908173ffffffffffffffffffffffffffffffffffffffff1681525050600a60009054906101000a900473ffffffffffffffffffffffffffffffffffffffff1673ffffffffffffffffffffffffffffffffffffffff1663ad5c46486040518163ffffffff1660e01b8152600401602060405180830381865afa158015612946573d6000803e3d6000fd5b505050506040513d601f19601f8201168201806040525081019061296a9190614148565b8160018151811061297e5761297d613be7565b5b602002602001019073ffffffffffffffffffffffffffffffffffffffff16908173ffffffffffffffffffffffffffffffffffffffff16815250506129e530600a60009054906101000a900473ffffffffffffffffffffffffffffffffffffffff1684611862565b600a60009054906101000a900473ffffffffffffffffffffffffffffffffffffffff1673ffffffffffffffffffffffffffffffffffffffff1663791ac9478360008430426040518663ffffffff1660e01b8152600401612a49959493929190614233565b600060405180830381600087803b158015612a6357600080fd5b505af1158015612a77573d6000803e3d6000fd5b505050505050565b60008183612a8d9190613ebe565b905092915050565b60008183612aa39190613f2f565b905092915050565b612ad830600a60009054906101000a900473ffffffffffffffffffffffffffffffffffffffff1684611862565b600a60009054906101000a900473ffffffffffffffffffffffffffffffffffffffff1673ffffffffffffffffffffffffffffffffffffffff1663f305d719823085600080600d60009054906101000a900473ffffffffffffffffffffffffffffffffffffffff16426040518863ffffffff1660e01b8152600401612b619695949392919061428d565b60606040518083038185885af1158015612b7f573d6000803e3d6000fd5b50505050506040513d601f19601f82011682018060405250810190612ba491906142ee565b5050505050565b6001600981905550565b606060ff60001b8314612bd257612bcb83613123565b9050612c5f565b818054612bde90613bb6565b80601f0160208091040260200160405190810160405280929190818152602001828054612c0a90613bb6565b8015612c575780601f10612c2c57610100808354040283529160200191612c57565b820191906000526020600020905b815481529060010190602001808311612c3a57829003601f168201915b505050505090505b92915050565b60006040517f190100000000000000000000000000000000000000000000000000000000000081528360028201528260228201526042812091505092915050565b60008060007f7fffffffffffffffffffffffffffffff5d576e7357a4501ddfe92f46681b20a08460001c1115612ce6576000600385925092509250612d90565b600060018888888860405160008152602001604052604051612d0b9493929190614341565b6020604051602081039080840390855afa158015612d2d573d6000803e3d6000fd5b505050602060405103519050600073ffffffffffffffffffffffffffffffffffffffff168173ffffffffffffffffffffffffffffffffffffffff1603612d8157600060016000801b93509350935050612d90565b8060008060001b935093509350505b9450945094915050565b60006003811115612dae57612dad614386565b5b826003811115612dc157612dc0614386565b5b0315612efa5760016003811115612ddb57612dda614386565b5b826003811115612dee57612ded614386565b5b03612e25576040517ff645eedf00000000000000000000000000000000000000000000000000000000815260040160405180910390fd5b60026003811115612e3957612e38614386565b5b826003811115612e4c57612e4b614386565b5b03612e91578060001c6040517ffce698f7000000000000000000000000000000000000000000000000000000008152600401612e889190613481565b60405180910390fd5b600380811115612ea457612ea3614386565b5b826003811115612eb757612eb6614386565b5b03612ef957806040517fd78bce0c000000000000000000000000000000000000000000000000000000008152600401612ef091906135db565b60405180910390fd5b5b5050565b600073ffffffffffffffffffffffffffffffffffffffff168373ffffffffffffffffffffffffffffffffffffffff1603612f50578060026000828254612f449190613d5d565b92505081905550613023565b60008060008573ffffffffffffffffffffffffffffffffffffffff1673ffffffffffffffffffffffffffffffffffffffff16815260200190815260200160002054905081811015612fdc578381836040517fe450d38c000000000000000000000000000000000000000000000000000000008152600401612fd393929190613e87565b60405180910390fd5b8181036000808673ffffffffffffffffffffffffffffffffffffffff1673ffffffffffffffffffffffffffffffffffffffff16815260200190815260200160002081905550505b600073ffffffffffffffffffffffffffffffffffffffff168273ffffffffffffffffffffffffffffffffffffffff160361306c57806002600082825403925050819055506130b9565b806000808473ffffffffffffffffffffffffffffffffffffffff1673ffffffffffffffffffffffffffffffffffffffff168152602001908152602001600020600082825401925050819055505b8173ffffffffffffffffffffffffffffffffffffffff168373ffffffffffffffffffffffffffffffffffffffff167fddf252ad1be2c89b69c2b068fc378daa952ba7f163c4a11628f55a4df523b3ef836040516131169190613481565b60405180910390a3505050565b6060600061313083613197565b90506000602067ffffffffffffffff81111561314f5761314e613c81565b5b6040519080825280601f01601f1916602001820160405280156131815781602001600182028036833780820191505090505b5090508181528360208201528092505050919050565b60008060ff8360001c169050601f8111156131de576040517fb3512b0c00000000000000000000000000000000000000000000000000000000815260040160405180910390fd5b80915050919050565b600080fd5b600080fd5b60007fffffffff0000000000000000000000000000000000000000000000000000000082169050919050565b613226816131f1565b811461323157600080fd5b50565b6000813590506132438161321d565b92915050565b60006020828403121561325f5761325e6131e7565b5b600061326d84828501613234565b91505092915050565b60008115159050919050565b61328b81613276565b82525050565b60006020820190506132a66000830184613282565b92915050565b600073ffffffffffffffffffffffffffffffffffffffff82169050919050565b60006132d7826132ac565b9050919050565b6132e7816132cc565b81146132f257600080fd5b50565b600081359050613304816132de565b92915050565b60008060408385031215613321576133206131e7565b5b600061332f858286016132f5565b9250506020613340858286016132f5565b9150509250929050565b600081519050919050565b600082825260208201905092915050565b60005b83811015613384578082015181840152602081019050613369565b60008484015250505050565b6000601f19601f8301169050919050565b60006133ac8261334a565b6133b68185613355565b93506133c6818560208601613366565b6133cf81613390565b840191505092915050565b600060208201905081810360008301526133f481846133a1565b905092915050565b6000819050919050565b61340f816133fc565b811461341a57600080fd5b50565b60008135905061342c81613406565b92915050565b60008060408385031215613449576134486131e7565b5b6000613457858286016132f5565b92505060206134688582860161341d565b9150509250929050565b61347b816133fc565b82525050565b60006020820190506134966000830184613472565b92915050565b6000819050919050565b60006134c16134bc6134b7846132ac565b61349c565b6132ac565b9050919050565b60006134d3826134a6565b9050919050565b60006134e5826134c8565b9050919050565b6134f5816134da565b82525050565b600060208201905061351060008301846134ec565b92915050565b60008060006060848603121561352f5761352e6131e7565b5b600061353d868287016132f5565b935050602061354e868287016132f5565b925050604061355f8682870161341d565b9150509250925092565b6000819050919050565b61357c81613569565b811461358757600080fd5b50565b60008135905061359981613573565b92915050565b6000602082840312156135b5576135b46131e7565b5b60006135c38482850161358a565b91505092915050565b6135d581613569565b82525050565b60006020820190506135f060008301846135cc565b92915050565b6000806040838503121561360d5761360c6131e7565b5b600061361b8582860161358a565b925050602061362c858286016132f5565b9150509250929050565b600060ff82169050919050565b61364c81613636565b82525050565b60006020820190506136676000830184613643565b92915050565b600060208284031215613683576136826131e7565b5b60006136918482850161341d565b91505092915050565b6136a3816132cc565b82525050565b60006020820190506136be600083018461369a565b92915050565b6000602082840312156136da576136d96131e7565b5b60006136e8848285016132f5565b91505092915050565b600080fd5b600080fd5b600080fd5b60008083601f840112613716576137156136f1565b5b8235905067ffffffffffffffff811115613733576137326136f6565b5b60208301915083602082028301111561374f5761374e6136fb565b5b9250929050565b60008083601f84011261376c5761376b6136f1565b5b8235905067ffffffffffffffff811115613789576137886136f6565b5b6020830191508360208202830111156137a5576137a46136fb565b5b9250929050565b600080600080604085870312156137c6576137c56131e7565b5b600085013567ffffffffffffffff8111156137e4576137e36131ec565b5b6137f087828801613700565b9450945050602085013567ffffffffffffffff811115613813576138126131ec565b5b61381f87828801613756565b925092505092959194509250565b60007fff0000000000000000000000000000000000000000000000000000000000000082169050919050565b6138628161382d565b82525050565b600081519050919050565b600082825260208201905092915050565b6000819050602082019050919050565b61389d816133fc565b82525050565b60006138af8383613894565b60208301905092915050565b6000602082019050919050565b60006138d382613868565b6138dd8185613873565b93506138e883613884565b8060005b8381101561391957815161390088826138a3565b975061390b836138bb565b9250506001810190506138ec565b5085935050505092915050565b600060e08201905061393b600083018a613859565b818103602083015261394d81896133a1565b9050818103604083015261396181886133a1565b90506139706060830187613472565b61397d608083018661369a565b61398a60a08301856135cc565b81810360c083015261399c81846138c8565b905098975050505050505050565b60006139b5826134c8565b9050919050565b6139c5816139aa565b82525050565b60006020820190506139e060008301846139bc565b92915050565b6139ef81613276565b81146139fa57600080fd5b50565b600081359050613a0c816139e6565b92915050565b60008060408385031215613a2957613a286131e7565b5b6000613a37858286016132f5565b9250506020613a48858286016139fd565b9150509250929050565b60008060008060808587031215613a6c57613a6b6131e7565b5b6000613a7a8782880161341d565b9450506020613a8b8782880161341d565b9350506040613a9c8782880161341d565b9250506060613aad8782880161341d565b91505092959194509250565b613ac281613636565b8114613acd57600080fd5b50565b600081359050613adf81613ab9565b92915050565b600080600080600080600060e0888a031215613b0457613b036131e7565b5b6000613b128a828b016132f5565b9750506020613b238a828b016132f5565b9650506040613b348a828b0161341d565b9550506060613b458a828b0161341d565b9450506080613b568a828b01613ad0565b93505060a0613b678a828b0161358a565b92505060c0613b788a828b0161358a565b91505092959891949750929550565b7f4e487b7100000000000000000000000000000000000000000000000000000000600052602260045260246000fd5b60006002820490506001821680613bce57607f821691505b602082108103613be157613be0613b87565b5b50919050565b7f4e487b7100000000000000000000000000000000000000000000000000000000600052603260045260246000fd5b7f4e487b7100000000000000000000000000000000000000000000000000000000600052601160045260246000fd5b600063ffffffff82169050919050565b6000613c6082613c45565b915063ffffffff8203613c7657613c75613c16565b5b600182019050919050565b7f4e487b7100000000000000000000000000000000000000000000000000000000600052604160045260246000fd5b600081519050613cbf81613406565b92915050565b600060208284031215613cdb57613cda6131e7565b5b6000613ce984828501613cb0565b91505092915050565b6000604082019050613d07600083018561369a565b613d146020830184613472565b9392505050565b600081519050613d2a816139e6565b92915050565b600060208284031215613d4657613d456131e7565b5b6000613d5484828501613d1b565b91505092915050565b6000613d68826133fc565b9150613d73836133fc565b9250828201905080821115613d8b57613d8a613c16565b5b92915050565b7f46656573206d757374206265203c3d20313030302e0000000000000000000000600082015250565b6000613dc7601583613355565b9150613dd282613d91565b602082019050919050565b60006020820190508181036000830152613df681613dba565b9050919050565b600060c082019050613e1260008301896135cc565b613e1f602083018861369a565b613e2c604083018761369a565b613e396060830186613472565b613e466080830185613472565b613e5360a0830184613472565b979650505050505050565b6000604082019050613e73600083018561369a565b613e80602083018461369a565b9392505050565b6000606082019050613e9c600083018661369a565b613ea96020830185613472565b613eb66040830184613472565b949350505050565b6000613ec9826133fc565b9150613ed4836133fc565b9250828202613ee2816133fc565b91508282048414831517613ef957613ef8613c16565b5b5092915050565b7f4e487b7100000000000000000000000000000000000000000000000000000000600052601260045260246000fd5b6000613f3a826133fc565b9150613f45836133fc565b925082613f5557613f54613f00565b5b828204905092915050565b6000613f6b826133fc565b9150613f76836133fc565b9250828203905081811115613f8e57613f8d613c16565b5b92915050565b6000606082019050613fa96000830186613472565b613fb66020830185613472565b613fc36040830184613472565b949350505050565b6000819050919050565b6000613ff0613feb613fe684613fcb565b61349c565b6133fc565b9050919050565b61400081613fd5565b82525050565b600060808201905061401b6000830187613472565b6140286020830186613ff7565b6140356040830185613472565b6140426060830184613ff7565b95945050505050565b7f4554485f5452414e534645525f4641494c454400000000000000000000000000600082015250565b6000614081601383613355565b915061408c8261404b565b602082019050919050565b600060208201905081810360008301526140b081614074565b9050919050565b60006040820190506140cc600083018561369a565b6140d960208301846135cc565b9392505050565b600060a0820190506140f560008301886135cc565b61410260208301876135cc565b61410f60408301866135cc565b61411c6060830185613472565b614129608083018461369a565b9695505050505050565b600081519050614142816132de565b92915050565b60006020828403121561415e5761415d6131e7565b5b600061416c84828501614133565b91505092915050565b600081519050919050565b600082825260208201905092915050565b6000819050602082019050919050565b6141aa816132cc565b82525050565b60006141bc83836141a1565b60208301905092915050565b6000602082019050919050565b60006141e082614175565b6141ea8185614180565b93506141f583614191565b8060005b8381101561422657815161420d88826141b0565b9750614218836141c8565b9250506001810190506141f9565b5085935050505092915050565b600060a0820190506142486000830188613472565b6142556020830187613ff7565b818103604083015261426781866141d5565b9050614276606083018561369a565b6142836080830184613472565b9695505050505050565b600060c0820190506142a2600083018961369a565b6142af6020830188613472565b6142bc6040830187613ff7565b6142c96060830186613ff7565b6142d6608083018561369a565b6142e360a0830184613472565b979650505050505050565b600080600060608486031215614307576143066131e7565b5b600061431586828701613cb0565b935050602061432686828701613cb0565b925050604061433786828701613cb0565b9150509250925092565b600060808201905061435660008301876135cc565b6143636020830186613643565b61437060408301856135cc565b61437d60608301846135cc565b95945050505050565b7f4e487b7100000000000000000000000000000000000000000000000000000000600052602160045260246000fdfea264697066735822122019793483cf62c36ca59159ff2c638a3bb6fadcd283f673f2c04b73e55c6abe1a64736f6c63430008140033",
  "linkReferences": {},
  "deployedLinkReferences": {}
}