{
  "_format": "hh-sol-artifact-1",
  "contractName": "GangsterArena",
  "sourceName": "contracts/GangsterArena.sol",
  "abi": [
    {
      "inputs": [
        {
          "internalType": "address",
          "name": "initialOwner",
          "type": "address"
        }
      ],
      "stateMutability": "nonpayable",
      "type": "constructor"
    },
    {
      "inputs": [
        {
          "internalType": "address",
          "name": "owner",
          "type": "address"
        }
      ],
      "name": "OwnableInvalidOwner",
      "type": "error"
    },
    {
      "inputs": [
        {
          "internalType": "address",
          "name": "account",
          "type": "address"
        }
      ],
      "name": "OwnableUnauthorizedAccount",
      "type": "error"
    },
    {
      "anonymous": false,
      "inputs": [
        {
          "indexed": false,
          "internalType": "address[]",
          "name": "to",
          "type": "address[]"
        },
        {
          "indexed": false,
          "internalType": "uint256[]",
          "name": "tokenId",
          "type": "uint256[]"
        },
        {
          "indexed": false,
          "internalType": "uint256[]",
          "name": "amount",
          "type": "uint256[]"
        }
      ],
      "name": "Burn",
      "type": "event"
    },
    {
      "anonymous": false,
      "inputs": [
        {
          "indexed": false,
          "internalType": "address",
          "name": "to",
          "type": "address"
        },
        {
          "indexed": false,
          "internalType": "uint256",
          "name": "tokenId",
          "type": "uint256"
        },
        {
          "indexed": false,
          "internalType": "uint256",
          "name": "amount",
          "type": "uint256"
        }
      ],
      "name": "Deposit",
      "type": "event"
    },
    {
      "anonymous": false,
      "inputs": [
        {
          "indexed": true,
          "internalType": "address",
          "name": "previousOwner",
          "type": "address"
        },
        {
          "indexed": true,
          "internalType": "address",
          "name": "newOwner",
          "type": "address"
        }
      ],
      "name": "OwnershipTransferred",
      "type": "event"
    },
    {
      "anonymous": false,
      "inputs": [
        {
          "indexed": false,
          "internalType": "address",
          "name": "to",
          "type": "address"
        },
        {
          "indexed": false,
          "internalType": "uint256",
          "name": "tokenId",
          "type": "uint256"
        },
        {
          "indexed": false,
          "internalType": "uint256",
          "name": "amount",
          "type": "uint256"
        }
      ],
      "name": "Withdraw",
      "type": "event"
    },
    {
      "stateMutability": "payable",
      "type": "fallback"
    },
    {
      "inputs": [],
      "name": "BASE_PRICE",
      "outputs": [
        {
          "internalType": "uint256",
          "name": "",
          "type": "uint256"
        }
      ],
      "stateMutability": "view",
      "type": "function"
    },
    {
      "inputs": [],
      "name": "MAX_PER_BATCH",
      "outputs": [
        {
          "internalType": "uint256",
          "name": "",
          "type": "uint256"
        }
      ],
      "stateMutability": "view",
      "type": "function"
    },
    {
      "inputs": [
        {
          "internalType": "address",
          "name": "",
          "type": "address"
        }
      ],
      "name": "building",
      "outputs": [
        {
          "internalType": "uint256",
          "name": "",
          "type": "uint256"
        }
      ],
      "stateMutability": "view",
      "type": "function"
    },
    {
      "inputs": [
        {
          "internalType": "address[]",
          "name": "to",
          "type": "address[]"
        },
        {
          "internalType": "uint256[]",
          "name": "tokenId",
          "type": "uint256[]"
        },
        {
          "internalType": "uint256[]",
          "name": "amount",
          "type": "uint256[]"
        }
      ],
      "name": "burnNFT",
      "outputs": [],
      "stateMutability": "nonpayable",
      "type": "function"
    },
    {
      "inputs": [
        {
          "internalType": "address",
          "name": "from",
          "type": "address"
        },
        {
          "internalType": "uint256",
          "name": "tokenId",
          "type": "uint256"
        },
        {
          "internalType": "uint256",
          "name": "amount",
          "type": "uint256"
        }
      ],
      "name": "depositNFT",
      "outputs": [],
      "stateMutability": "nonpayable",
      "type": "function"
    },
    {
      "inputs": [
        {
          "internalType": "address",
          "name": "",
          "type": "address"
        }
      ],
      "name": "gangster",
      "outputs": [
        {
          "internalType": "uint256",
          "name": "",
          "type": "uint256"
        }
      ],
      "stateMutability": "view",
      "type": "function"
    },
    {
      "inputs": [],
      "name": "getBalance",
      "outputs": [
        {
          "internalType": "uint256",
          "name": "",
          "type": "uint256"
        }
      ],
      "stateMutability": "view",
      "type": "function"
    },
    {
      "inputs": [
        {
          "internalType": "address",
          "name": "",
          "type": "address"
        }
      ],
      "name": "goon",
      "outputs": [
        {
          "internalType": "uint256",
          "name": "",
          "type": "uint256"
        }
      ],
      "stateMutability": "view",
      "type": "function"
    },
    {
      "inputs": [
        {
          "internalType": "address",
          "name": "to",
          "type": "address"
        },
        {
          "internalType": "uint256",
          "name": "tokenId",
          "type": "uint256"
        },
        {
          "internalType": "uint256",
          "name": "amount",
          "type": "uint256"
        }
      ],
      "name": "mint",
      "outputs": [],
      "stateMutability": "payable",
      "type": "function"
    },
    {
      "inputs": [
        {
          "internalType": "address",
          "name": "to",
          "type": "address"
        },
        {
          "internalType": "uint256",
          "name": "tokenId",
          "type": "uint256"
        },
        {
          "internalType": "uint256",
          "name": "amount",
          "type": "uint256"
        },
        {
          "internalType": "bytes32[]",
          "name": "merkleProof",
          "type": "bytes32[]"
        }
      ],
      "name": "mintWL",
      "outputs": [],
      "stateMutability": "payable",
      "type": "function"
    },
    {
      "inputs": [
        {
          "internalType": "address",
          "name": "",
          "type": "address"
        }
      ],
      "name": "mintedAddess",
      "outputs": [
        {
          "internalType": "bool",
          "name": "",
          "type": "bool"
        }
      ],
      "stateMutability": "view",
      "type": "function"
    },
    {
      "inputs": [
        {
          "internalType": "address",
          "name": "operator",
          "type": "address"
        },
        {
          "internalType": "address",
          "name": "from",
          "type": "address"
        },
        {
          "internalType": "uint256",
          "name": "id",
          "type": "uint256"
        },
        {
          "internalType": "uint256",
          "name": "value",
          "type": "uint256"
        },
        {
          "internalType": "bytes",
          "name": "data",
          "type": "bytes"
        }
      ],
      "name": "onERC1155Received",
      "outputs": [
        {
          "internalType": "bytes4",
          "name": "",
          "type": "bytes4"
        }
      ],
      "stateMutability": "nonpayable",
      "type": "function"
    },
    {
      "inputs": [],
      "name": "owner",
      "outputs": [
        {
          "internalType": "address",
          "name": "",
          "type": "address"
        }
      ],
      "stateMutability": "view",
      "type": "function"
    },
    {
      "inputs": [],
      "name": "renounceOwnership",
      "outputs": [],
      "stateMutability": "nonpayable",
      "type": "function"
    },
    {
      "inputs": [
        {
          "internalType": "address payable",
          "name": "_address",
          "type": "address"
        }
      ],
      "name": "setContractAddress",
      "outputs": [],
      "stateMutability": "nonpayable",
      "type": "function"
    },
    {
      "inputs": [
        {
          "internalType": "uint256",
          "name": "_maxPerBatch",
          "type": "uint256"
        }
      ],
      "name": "setMaxPerBatch",
      "outputs": [],
      "stateMutability": "nonpayable",
      "type": "function"
    },
    {
      "inputs": [
        {
          "internalType": "uint256[]",
          "name": "_tokenMaxSupplies",
          "type": "uint256[]"
        }
      ],
      "name": "setTokenMaxSupply",
      "outputs": [],
      "stateMutability": "nonpayable",
      "type": "function"
    },
    {
      "inputs": [
        {
          "internalType": "uint256",
          "name": "",
          "type": "uint256"
        }
      ],
      "name": "tokenMaxSupply",
      "outputs": [
        {
          "internalType": "uint256",
          "name": "",
          "type": "uint256"
        }
      ],
      "stateMutability": "view",
      "type": "function"
    },
    {
      "inputs": [
        {
          "internalType": "address",
          "name": "newOwner",
          "type": "address"
        }
      ],
      "name": "transferOwnership",
      "outputs": [],
      "stateMutability": "nonpayable",
      "type": "function"
    },
    {
      "inputs": [],
      "name": "withdraw",
      "outputs": [],
      "stateMutability": "nonpayable",
      "type": "function"
    },
    {
      "inputs": [
        {
          "internalType": "address",
          "name": "to",
          "type": "address"
        },
        {
          "internalType": "uint256",
          "name": "tokenId",
          "type": "uint256"
        },
        {
          "internalType": "uint256",
          "name": "amount",
          "type": "uint256"
        }
      ],
      "name": "withdrawNFT",
      "outputs": [],
      "stateMutability": "nonpayable",
      "type": "function"
    },
    {
      "stateMutability": "payable",
      "type": "receive"
    }
  ],
  "bytecode": "0x608060405266f52322698080006003556103e86004553480156200002257600080fd5b50604051620023a0380380620023a0833981810160405281019062000048919062000205565b80600073ffffffffffffffffffffffffffffffffffffffff168173ffffffffffffffffffffffffffffffffffffffff1603620000be5760006040517f1e4fbdf7000000000000000000000000000000000000000000000000000000008152600401620000b5919062000248565b60405180910390fd5b620000cf81620000d760201b60201c565b505062000265565b60008060009054906101000a900473ffffffffffffffffffffffffffffffffffffffff169050816000806101000a81548173ffffffffffffffffffffffffffffffffffffffff021916908373ffffffffffffffffffffffffffffffffffffffff1602179055508173ffffffffffffffffffffffffffffffffffffffff168173ffffffffffffffffffffffffffffffffffffffff167f8be0079c531659141344cd1fd0a4f28419497f9722a3daafe3b4186f6b6457e060405160405180910390a35050565b600080fd5b600073ffffffffffffffffffffffffffffffffffffffff82169050919050565b6000620001cd82620001a0565b9050919050565b620001df81620001c0565b8114620001eb57600080fd5b50565b600081519050620001ff81620001d4565b92915050565b6000602082840312156200021e576200021d6200019b565b5b60006200022e84828501620001ee565b91505092915050565b6200024281620001c0565b82525050565b60006020820190506200025f600083018462000237565b92915050565b61212b80620002756000396000f3fe60806040526004361061012d5760003560e01c8063800b0d35116100ab578063ede6ec5d1161006f578063ede6ec5d1461039f578063f23a6e61146103dc578063f2fde38b14610419578063f72fc7cb14610442578063f86325ed1461046d578063ff81ce351461049857610134565b8063800b0d35146102dd5780638da5cb5b14610306578063d39ac12714610331578063ddb352751461035a578063ddf294ba1461037657610134565b80633ccfd60b116100f25780633ccfd60b14610234578063477bddaa1461024b5780634d67ad7614610274578063715018a61461029d57806372a8ccb4146102b457610134565b80624221f01461013657806312065fe014610173578063156e29f61461019e5780631786cb2f146101ba57806325c6a573146101f757610134565b3661013457005b005b34801561014257600080fd5b5061015d600480360381019061015891906112d0565b6104d5565b60405161016a919061130c565b60405180910390f35b34801561017f57600080fd5b506101886104ed565b604051610195919061130c565b60405180910390f35b6101b860048036038101906101b39190611385565b6104f5565b005b3480156101c657600080fd5b506101e160048036038101906101dc91906113d8565b610a54565b6040516101ee919061130c565b60405180910390f35b34801561020357600080fd5b5061021e600480360381019061021991906113d8565b610a6c565b60405161022b9190611420565b60405180910390f35b34801561024057600080fd5b50610249610a8c565b005b34801561025757600080fd5b50610272600480360381019061026d9190611479565b610b26565b005b34801561028057600080fd5b5061029b60048036038101906102969190611385565b610bb3565b005b3480156102a957600080fd5b506102b2610d23565b005b3480156102c057600080fd5b506102db60048036038101906102d69190611385565b610d37565b005b3480156102e957600080fd5b5061030460048036038101906102ff91906116c2565b610e25565b005b34801561031257600080fd5b5061031b610fa1565b6040516103289190611778565b60405180910390f35b34801561033d57600080fd5b50610358600480360381019061035391906117ee565b610fca565b005b610374600480360381019061036f9190611891565b611029565b005b34801561038257600080fd5b5061039d600480360381019061039891906112d0565b611030565b005b3480156103ab57600080fd5b506103c660048036038101906103c191906113d8565b611042565b6040516103d3919061130c565b60405180910390f35b3480156103e857600080fd5b5061040360048036038101906103fe919061196f565b61105a565b6040516104109190611a44565b60405180910390f35b34801561042557600080fd5b50610440600480360381019061043b91906113d8565b611089565b005b34801561044e57600080fd5b5061045761110f565b604051610464919061130c565b60405180910390f35b34801561047957600080fd5b50610482611115565b60405161048f919061130c565b60405180910390f35b3480156104a457600080fd5b506104bf60048036038101906104ba91906113d8565b61111b565b6040516104cc919061130c565b60405180910390f35b60056020528060005260406000206000915090505481565b600047905090565b60006005600084815260200190815260200160002054905060008103610550576040517f08c379a000000000000000000000000000000000000000000000000000000000815260040161054790611abc565b60405180910390fd5b600454821115610595576040517f08c379a000000000000000000000000000000000000000000000000000000000815260040161058c90611b28565b60405180910390fd5b600560008481526020019081526020016000205482600160009054906101000a900473ffffffffffffffffffffffffffffffffffffffff1673ffffffffffffffffffffffffffffffffffffffff1663bd85b039866040518263ffffffff1660e01b8152600401610605919061130c565b602060405180830381865afa158015610622573d6000803e3d6000fd5b505050506040513d601f19601f820116820180604052508101906106469190611b5d565b6106509190611bb9565b1115610691576040517f08c379a000000000000000000000000000000000000000000000000000000000815260040161068890611c39565b60405180910390fd5b8160035461069f9190611c59565b3410156106e1576040517f08c379a00000000000000000000000000000000000000000000000000000000081526004016106d890611ce7565b60405180910390fd5b600182036107d357600160009054906101000a900473ffffffffffffffffffffffffffffffffffffffff1673ffffffffffffffffffffffffffffffffffffffff1663731133e9308560016040518463ffffffff1660e01b815260040161074993929190611d83565b600060405180830381600087803b15801561076357600080fd5b505af1158015610777573d6000803e3d6000fd5b505050506001600860008673ffffffffffffffffffffffffffffffffffffffff1673ffffffffffffffffffffffffffffffffffffffff16815260200190815260200160002060008282546107cb9190611bb9565b925050819055505b60018211156109a4576000600167ffffffffffffffff8111156107f9576107f86114bc565b5b6040519080825280602002602001820160405280156108275781602001602082028036833780820191505090505b509050838160008151811061083f5761083e611dcd565b5b6020026020010181815250506000600167ffffffffffffffff811115610868576108676114bc565b5b6040519080825280602002602001820160405280156108965781602001602082028036833780820191505090505b50905083816000815181106108ae576108ad611dcd565b5b602002602001018181525050600160009054906101000a900473ffffffffffffffffffffffffffffffffffffffff1673ffffffffffffffffffffffffffffffffffffffff16631f7fdffa3084846040518463ffffffff1660e01b815260040161091993929190611eba565b600060405180830381600087803b15801561093357600080fd5b505af1158015610947573d6000803e3d6000fd5b5050505083600860008873ffffffffffffffffffffffffffffffffffffffff1673ffffffffffffffffffffffffffffffffffffffff168152602001908152602001600020600082825461099a9190611bb9565b9250508190555050505b600660008573ffffffffffffffffffffffffffffffffffffffff1673ffffffffffffffffffffffffffffffffffffffff16815260200190815260200160002060009054906101000a900460ff16610a4e576001600660008673ffffffffffffffffffffffffffffffffffffffff1673ffffffffffffffffffffffffffffffffffffffff16815260200190815260200160002060006101000a81548160ff0219169083151502179055505b50505050565b60096020528060005260406000206000915090505481565b60066020528060005260406000206000915054906101000a900460ff1681565b610a94611133565b60004711610ad7576040517f08c379a0000000000000000000000000000000000000000000000000000000008152600401610ace90611f5e565b60405180910390fd5b60003390508073ffffffffffffffffffffffffffffffffffffffff166108fc479081150290604051600060405180830381858888f19350505050158015610b22573d6000803e3d6000fd5b5050565b610b2e611133565b80600260006101000a81548173ffffffffffffffffffffffffffffffffffffffff021916908373ffffffffffffffffffffffffffffffffffffffff16021790555080600160006101000a81548173ffffffffffffffffffffffffffffffffffffffff021916908373ffffffffffffffffffffffffffffffffffffffff16021790555050565b80600860003373ffffffffffffffffffffffffffffffffffffffff1673ffffffffffffffffffffffffffffffffffffffff168152602001908152602001600020541015610c35576040517f08c379a0000000000000000000000000000000000000000000000000000000008152600401610c2c90611fca565b60405180910390fd5b600160009054906101000a900473ffffffffffffffffffffffffffffffffffffffff1673ffffffffffffffffffffffffffffffffffffffff1663f242432a308585856040518563ffffffff1660e01b8152600401610c969493929190611fea565b600060405180830381600087803b158015610cb057600080fd5b505af1158015610cc4573d6000803e3d6000fd5b5050505080600860003373ffffffffffffffffffffffffffffffffffffffff1673ffffffffffffffffffffffffffffffffffffffff1681526020019081526020016000206000828254610d179190612042565b92505081905550505050565b610d2b611133565b610d3560006111ba565b565b600160009054906101000a900473ffffffffffffffffffffffffffffffffffffffff1673ffffffffffffffffffffffffffffffffffffffff1663f242432a333085856040518563ffffffff1660e01b8152600401610d989493929190611fea565b600060405180830381600087803b158015610db257600080fd5b505af1158015610dc6573d6000803e3d6000fd5b5050505080600860008573ffffffffffffffffffffffffffffffffffffffff1673ffffffffffffffffffffffffffffffffffffffff1681526020019081526020016000206000828254610e199190611bb9565b92505081905550505050565b610e2d611133565b60005b8351811015610f9b57600160009054906101000a900473ffffffffffffffffffffffffffffffffffffffff1673ffffffffffffffffffffffffffffffffffffffff1663f5298aca30858481518110610e8b57610e8a611dcd565b5b6020026020010151858581518110610ea657610ea5611dcd565b5b60200260200101516040518463ffffffff1660e01b8152600401610ecc93929190612076565b600060405180830381600087803b158015610ee657600080fd5b505af1158015610efa573d6000803e3d6000fd5b50505050818181518110610f1157610f10611dcd565b5b602002602001015160086000868481518110610f3057610f2f611dcd565b5b602002602001015173ffffffffffffffffffffffffffffffffffffffff1673ffffffffffffffffffffffffffffffffffffffff1681526020019081526020016000206000828254610f819190612042565b925050819055508080610f93906120ad565b915050610e30565b50505050565b60008060009054906101000a900473ffffffffffffffffffffffffffffffffffffffff16905090565b610fd2611133565b60005b8282905081101561102457828282818110610ff357610ff2611dcd565b5b905060200201356005600083815260200190815260200160002081905550808061101c906120ad565b915050610fd5565b505050565b5050505050565b611038611133565b8060048190555050565b60086020528060005260406000206000915090505481565b60007ff23a6e612e1ff4830e658fe43f4e3cb4a5f8170bd5d9e69fb5d7a7fa9e4fdf9790509695505050505050565b611091611133565b600073ffffffffffffffffffffffffffffffffffffffff168173ffffffffffffffffffffffffffffffffffffffff16036111035760006040517f1e4fbdf70000000000000000000000000000000000000000000000000000000081526004016110fa9190611778565b60405180910390fd5b61110c816111ba565b50565b60045481565b60035481565b60076020528060005260406000206000915090505481565b61113b61127e565b73ffffffffffffffffffffffffffffffffffffffff16611159610fa1565b73ffffffffffffffffffffffffffffffffffffffff16146111b85761117c61127e565b6040517f118cdaa70000000000000000000000000000000000000000000000000000000081526004016111af9190611778565b60405180910390fd5b565b60008060009054906101000a900473ffffffffffffffffffffffffffffffffffffffff169050816000806101000a81548173ffffffffffffffffffffffffffffffffffffffff021916908373ffffffffffffffffffffffffffffffffffffffff1602179055508173ffffffffffffffffffffffffffffffffffffffff168173ffffffffffffffffffffffffffffffffffffffff167f8be0079c531659141344cd1fd0a4f28419497f9722a3daafe3b4186f6b6457e060405160405180910390a35050565b600033905090565b6000604051905090565b600080fd5b600080fd5b6000819050919050565b6112ad8161129a565b81146112b857600080fd5b50565b6000813590506112ca816112a4565b92915050565b6000602082840312156112e6576112e5611290565b5b60006112f4848285016112bb565b91505092915050565b6113068161129a565b82525050565b600060208201905061132160008301846112fd565b92915050565b600073ffffffffffffffffffffffffffffffffffffffff82169050919050565b600061135282611327565b9050919050565b61136281611347565b811461136d57600080fd5b50565b60008135905061137f81611359565b92915050565b60008060006060848603121561139e5761139d611290565b5b60006113ac86828701611370565b93505060206113bd868287016112bb565b92505060406113ce868287016112bb565b9150509250925092565b6000602082840312156113ee576113ed611290565b5b60006113fc84828501611370565b91505092915050565b60008115159050919050565b61141a81611405565b82525050565b60006020820190506114356000830184611411565b92915050565b600061144682611327565b9050919050565b6114568161143b565b811461146157600080fd5b50565b6000813590506114738161144d565b92915050565b60006020828403121561148f5761148e611290565b5b600061149d84828501611464565b91505092915050565b600080fd5b6000601f19601f8301169050919050565b7f4e487b7100000000000000000000000000000000000000000000000000000000600052604160045260246000fd5b6114f4826114ab565b810181811067ffffffffffffffff82111715611513576115126114bc565b5b80604052505050565b6000611526611286565b905061153282826114eb565b919050565b600067ffffffffffffffff821115611552576115516114bc565b5b602082029050602081019050919050565b600080fd5b600061157b61157684611537565b61151c565b9050808382526020820190506020840283018581111561159e5761159d611563565b5b835b818110156115c757806115b38882611370565b8452602084019350506020810190506115a0565b5050509392505050565b600082601f8301126115e6576115e56114a6565b5b81356115f6848260208601611568565b91505092915050565b600067ffffffffffffffff82111561161a576116196114bc565b5b602082029050602081019050919050565b600061163e611639846115ff565b61151c565b9050808382526020820190506020840283018581111561166157611660611563565b5b835b8181101561168a578061167688826112bb565b845260208401935050602081019050611663565b5050509392505050565b600082601f8301126116a9576116a86114a6565b5b81356116b984826020860161162b565b91505092915050565b6000806000606084860312156116db576116da611290565b5b600084013567ffffffffffffffff8111156116f9576116f8611295565b5b611705868287016115d1565b935050602084013567ffffffffffffffff81111561172657611725611295565b5b61173286828701611694565b925050604084013567ffffffffffffffff81111561175357611752611295565b5b61175f86828701611694565b9150509250925092565b61177281611347565b82525050565b600060208201905061178d6000830184611769565b92915050565b600080fd5b60008083601f8401126117ae576117ad6114a6565b5b8235905067ffffffffffffffff8111156117cb576117ca611793565b5b6020830191508360208202830111156117e7576117e6611563565b5b9250929050565b6000806020838503121561180557611804611290565b5b600083013567ffffffffffffffff81111561182357611822611295565b5b61182f85828601611798565b92509250509250929050565b60008083601f840112611851576118506114a6565b5b8235905067ffffffffffffffff81111561186e5761186d611793565b5b60208301915083602082028301111561188a57611889611563565b5b9250929050565b6000806000806000608086880312156118ad576118ac611290565b5b60006118bb88828901611370565b95505060206118cc888289016112bb565b94505060406118dd888289016112bb565b935050606086013567ffffffffffffffff8111156118fe576118fd611295565b5b61190a8882890161183b565b92509250509295509295909350565b60008083601f84011261192f5761192e6114a6565b5b8235905067ffffffffffffffff81111561194c5761194b611793565b5b60208301915083600182028301111561196857611967611563565b5b9250929050565b60008060008060008060a0878903121561198c5761198b611290565b5b600061199a89828a01611370565b96505060206119ab89828a01611370565b95505060406119bc89828a016112bb565b94505060606119cd89828a016112bb565b935050608087013567ffffffffffffffff8111156119ee576119ed611295565b5b6119fa89828a01611919565b92509250509295509295509295565b60007fffffffff0000000000000000000000000000000000000000000000000000000082169050919050565b611a3e81611a09565b82525050565b6000602082019050611a596000830184611a35565b92915050565b600082825260208201905092915050565b7f496e76616c696420746f6b656e20696400000000000000000000000000000000600082015250565b6000611aa6601083611a5f565b9150611ab182611a70565b602082019050919050565b60006020820190508181036000830152611ad581611a99565b9050919050565b7f4d61782070657220626174636820726561636865640000000000000000000000600082015250565b6000611b12601583611a5f565b9150611b1d82611adc565b602082019050919050565b60006020820190508181036000830152611b4181611b05565b9050919050565b600081519050611b57816112a4565b92915050565b600060208284031215611b7357611b72611290565b5b6000611b8184828501611b48565b91505092915050565b7f4e487b7100000000000000000000000000000000000000000000000000000000600052601160045260246000fd5b6000611bc48261129a565b9150611bcf8361129a565b9250828201905080821115611be757611be6611b8a565b5b92915050565b7f4d617820737570706c7920726561636865640000000000000000000000000000600082015250565b6000611c23601283611a5f565b9150611c2e82611bed565b602082019050919050565b60006020820190508181036000830152611c5281611c16565b9050919050565b6000611c648261129a565b9150611c6f8361129a565b9250828202611c7d8161129a565b91508282048414831517611c9457611c93611b8a565b5b5092915050565b7f4e65656420746f2073656e64206d6f7265206574686572000000000000000000600082015250565b6000611cd1601783611a5f565b9150611cdc82611c9b565b602082019050919050565b60006020820190508181036000830152611d0081611cc4565b9050919050565b6000819050919050565b6000819050919050565b6000611d36611d31611d2c84611d07565b611d11565b61129a565b9050919050565b611d4681611d1b565b82525050565b600082825260208201905092915050565b50565b6000611d6d600083611d4c565b9150611d7882611d5d565b600082019050919050565b6000608082019050611d986000830186611769565b611da560208301856112fd565b611db26040830184611d3d565b8181036060830152611dc381611d60565b9050949350505050565b7f4e487b7100000000000000000000000000000000000000000000000000000000600052603260045260246000fd5b600081519050919050565b600082825260208201905092915050565b6000819050602082019050919050565b611e318161129a565b82525050565b6000611e438383611e28565b60208301905092915050565b6000602082019050919050565b6000611e6782611dfc565b611e718185611e07565b9350611e7c83611e18565b8060005b83811015611ead578151611e948882611e37565b9750611e9f83611e4f565b925050600181019050611e80565b5085935050505092915050565b6000608082019050611ecf6000830186611769565b8181036020830152611ee18185611e5c565b90508181036040830152611ef58184611e5c565b90508181036060830152611f0881611d60565b9050949350505050565b7f4e6f7468696e6720746f20776974686472617700000000000000000000000000600082015250565b6000611f48601383611a5f565b9150611f5382611f12565b602082019050919050565b60006020820190508181036000830152611f7781611f3b565b9050919050565b7f496e73756666696369656e742062616c616e6365000000000000000000000000600082015250565b6000611fb4601483611a5f565b9150611fbf82611f7e565b602082019050919050565b60006020820190508181036000830152611fe381611fa7565b9050919050565b600060a082019050611fff6000830187611769565b61200c6020830186611769565b61201960408301856112fd565b61202660608301846112fd565b818103608083015261203781611d60565b905095945050505050565b600061204d8261129a565b91506120588361129a565b92508282039050818111156120705761206f611b8a565b5b92915050565b600060608201905061208b6000830186611769565b61209860208301856112fd565b6120a560408301846112fd565b949350505050565b60006120b88261129a565b91507fffffffffffffffffffffffffffffffffffffffffffffffffffffffffffffffff82036120ea576120e9611b8a565b5b60018201905091905056fea2646970667358221220b9d5255bcf903b1a2a89bda34cf396d51e5c4d9537a5cce3d3a638389fa29ed364736f6c63430008140033",
  "linkReferences": {},
  "deployedLinkReferences": {}
}