{
  "_format": "hh-sol-artifact-1",
  "contractName": "Minter",
  "sourceName": "contracts/Minter.sol",
  "abi": [
    {
      "inputs": [
        {
          "internalType": "address",
          "name": "initialOwner",
          "type": "address"
        },
        {
          "internalType": "address",
          "name": "_gangster",
          "type": "address"
        },
        {
          "internalType": "address",
          "name": "_signer",
          "type": "address"
        }
      ],
      "stateMutability": "nonpayable",
      "type": "constructor"
    },
    {
      "inputs": [
        {
          "internalType": "address",
          "name": "owner",
          "type": "address"
        }
      ],
      "name": "OwnableInvalidOwner",
      "type": "error"
    },
    {
      "inputs": [
        {
          "internalType": "address",
          "name": "account",
          "type": "address"
        }
      ],
      "name": "OwnableUnauthorizedAccount",
      "type": "error"
    },
    {
      "anonymous": false,
      "inputs": [
        {
          "indexed": false,
          "internalType": "address",
          "name": "addr",
          "type": "address"
        },
        {
          "indexed": false,
          "internalType": "uint256",
          "name": "amount",
          "type": "uint256"
        },
        {
          "indexed": false,
          "internalType": "uint256",
          "name": "phaseId",
          "type": "uint256"
        }
      ],
      "name": "Mint",
      "type": "event"
    },
    {
      "anonymous": false,
      "inputs": [
        {
          "indexed": true,
          "internalType": "address",
          "name": "previousOwner",
          "type": "address"
        },
        {
          "indexed": true,
          "internalType": "address",
          "name": "newOwner",
          "type": "address"
        }
      ],
      "name": "OwnershipTransferred",
      "type": "event"
    },
    {
      "stateMutability": "payable",
      "type": "fallback"
    },
    {
      "inputs": [],
      "name": "emegencyWithdraw",
      "outputs": [],
      "stateMutability": "nonpayable",
      "type": "function"
    },
    {
      "inputs": [],
      "name": "getBalance",
      "outputs": [
        {
          "internalType": "uint256",
          "name": "",
          "type": "uint256"
        }
      ],
      "stateMutability": "view",
      "type": "function"
    },
    {
      "inputs": [
        {
          "internalType": "uint256",
          "name": "",
          "type": "uint256"
        }
      ],
      "name": "mintPhase",
      "outputs": [
        {
          "internalType": "uint256",
          "name": "MAX_PER_BATCH",
          "type": "uint256"
        },
        {
          "internalType": "uint256",
          "name": "MAX_PER_WALLET",
          "type": "uint256"
        },
        {
          "internalType": "uint256",
          "name": "MAX_SUPPLY",
          "type": "uint256"
        },
        {
          "internalType": "uint256",
          "name": "currentSupply",
          "type": "uint256"
        },
        {
          "internalType": "uint256",
          "name": "BASE_PRICE",
          "type": "uint256"
        },
        {
          "internalType": "bool",
          "name": "status",
          "type": "bool"
        },
        {
          "internalType": "bool",
          "name": "whitelistedOnly",
          "type": "bool"
        }
      ],
      "stateMutability": "view",
      "type": "function"
    },
    {
      "inputs": [
        {
          "internalType": "uint256",
          "name": "phaseId",
          "type": "uint256"
        },
        {
          "internalType": "uint256",
          "name": "amount",
          "type": "uint256"
        },
        {
          "internalType": "bytes",
          "name": "sig",
          "type": "bytes"
        }
      ],
      "name": "mint",
      "outputs": [],
      "stateMutability": "payable",
      "type": "function"
    },
    {
      "inputs": [
        {
          "internalType": "uint256",
          "name": "",
          "type": "uint256"
        },
        {
          "internalType": "address",
          "name": "",
          "type": "address"
        }
      ],
      "name": "mintedAddr",
      "outputs": [
        {
          "internalType": "uint256",
          "name": "",
          "type": "uint256"
        }
      ],
      "stateMutability": "view",
      "type": "function"
    },
    {
      "inputs": [],
      "name": "owner",
      "outputs": [
        {
          "internalType": "address",
          "name": "",
          "type": "address"
        }
      ],
      "stateMutability": "view",
      "type": "function"
    },
    {
      "inputs": [],
      "name": "renounceOwnership",
      "outputs": [],
      "stateMutability": "nonpayable",
      "type": "function"
    },
    {
      "inputs": [
        {
          "internalType": "address",
          "name": "newOwner",
          "type": "address"
        }
      ],
      "name": "transferOwnership",
      "outputs": [],
      "stateMutability": "nonpayable",
      "type": "function"
    },
    {
      "inputs": [
        {
          "internalType": "uint256",
          "name": "_maxSupply",
          "type": "uint256"
        }
      ],
      "name": "updateConfig",
      "outputs": [],
      "stateMutability": "nonpayable",
      "type": "function"
    },
    {
      "inputs": [
        {
          "internalType": "uint256",
          "name": "_phaseId",
          "type": "uint256"
        },
        {
          "internalType": "uint256",
          "name": "_maxSupply",
          "type": "uint256"
        },
        {
          "internalType": "uint256",
          "name": "_maxPerBatch",
          "type": "uint256"
        },
        {
          "internalType": "uint256",
          "name": "_maxPerWallet",
          "type": "uint256"
        },
        {
          "internalType": "uint256",
          "name": "_basePrice",
          "type": "uint256"
        },
        {
          "internalType": "bool",
          "name": "_status",
          "type": "bool"
        },
        {
          "internalType": "bool",
          "name": "_whitelistedOnly",
          "type": "bool"
        }
      ],
      "name": "updatePhase",
      "outputs": [],
      "stateMutability": "nonpayable",
      "type": "function"
    },
    {
      "stateMutability": "payable",
      "type": "receive"
    }
  ],
  "bytecode": "0x60806040526107d06003553480156200001757600080fd5b5060405162001b7438038062001b7483398181016040528101906200003d91906200027e565b82600073ffffffffffffffffffffffffffffffffffffffff168173ffffffffffffffffffffffffffffffffffffffff1603620000b35760006040517f1e4fbdf7000000000000000000000000000000000000000000000000000000008152600401620000aa9190620002eb565b60405180910390fd5b620000c4816200015060201b60201c565b5081600160006101000a81548173ffffffffffffffffffffffffffffffffffffffff021916908373ffffffffffffffffffffffffffffffffffffffff16021790555080600260006101000a81548173ffffffffffffffffffffffffffffffffffffffff021916908373ffffffffffffffffffffffffffffffffffffffff16021790555050505062000308565b60008060009054906101000a900473ffffffffffffffffffffffffffffffffffffffff169050816000806101000a81548173ffffffffffffffffffffffffffffffffffffffff021916908373ffffffffffffffffffffffffffffffffffffffff1602179055508173ffffffffffffffffffffffffffffffffffffffff168173ffffffffffffffffffffffffffffffffffffffff167f8be0079c531659141344cd1fd0a4f28419497f9722a3daafe3b4186f6b6457e060405160405180910390a35050565b600080fd5b600073ffffffffffffffffffffffffffffffffffffffff82169050919050565b6000620002468262000219565b9050919050565b620002588162000239565b81146200026457600080fd5b50565b60008151905062000278816200024d565b92915050565b6000806000606084860312156200029a576200029962000214565b5b6000620002aa8682870162000267565b9350506020620002bd8682870162000267565b9250506040620002d08682870162000267565b9150509250925092565b620002e58162000239565b82525050565b6000602082019050620003026000830184620002da565b92915050565b61185c80620003186000396000f3fe6080604052600436106100955760003560e01c80638da5cb5b116100595780638da5cb5b1461016f5780638f33b4f01461019a57806398795ee6146101b6578063d045586d146101cd578063f2fde38b146102105761009c565b80630db506701461009e57806312065fe0146100db57806315b5cd79146101065780631871e6a81461012f578063715018a6146101585761009c565b3661009c57005b005b3480156100aa57600080fd5b506100c560048036038101906100c09190610db9565b610239565b6040516100d29190610e08565b60405180910390f35b3480156100e757600080fd5b506100f061025e565b6040516100fd9190610e08565b60405180910390f35b34801561011257600080fd5b5061012d60048036038101906101289190610e23565b610266565b005b34801561013b57600080fd5b5061015660048036038101906101519190610e88565b610278565b005b34801561016457600080fd5b5061016d610351565b005b34801561017b57600080fd5b50610184610365565b6040516101919190610f39565b60405180910390f35b6101b460048036038101906101af919061109a565b61038e565b005b3480156101c257600080fd5b506101cb610906565b005b3480156101d957600080fd5b506101f460048036038101906101ef9190610e23565b6109a0565b6040516102079796959493929190611118565b60405180910390f35b34801561021c57600080fd5b5061023760048036038101906102329190611187565b6109fc565b005b6005602052816000526040600020602052806000526040600020600091509150505481565b600047905090565b61026e610a82565b8060038190555050565b610280610a82565b856004600089815260200190815260200160002060020181905550846004600089815260200190815260200160002060000181905550836004600089815260200190815260200160002060010181905550826004600089815260200190815260200160002060040181905550816004600089815260200190815260200160002060050160006101000a81548160ff021916908315150217905550806004600089815260200190815260200160002060050160016101000a81548160ff02191690831515021790555050505050505050565b610359610a82565b6103636000610b09565b565b60008060009054906101000a900473ffffffffffffffffffffffffffffffffffffffff16905090565b6004600084815260200190815260200160002060050160009054906101000a900460ff166103f1576040517f08c379a00000000000000000000000000000000000000000000000000000000081526004016103e890611211565b60405180910390fd5b816004600085815260200190815260200160002060000154101561044a576040517f08c379a00000000000000000000000000000000000000000000000000000000081526004016104419061127d565b60405180910390fd5b600460008481526020019081526020016000206002015482600460008681526020019081526020016000206003015461048391906112cc565b10156104c4576040517f08c379a00000000000000000000000000000000000000000000000000000000081526004016104bb9061134c565b60405180910390fd5b60035482600160009054906101000a900473ffffffffffffffffffffffffffffffffffffffff1673ffffffffffffffffffffffffffffffffffffffff1663bd85b03960016040518263ffffffff1660e01b815260040161052491906113b1565b602060405180830381865afa158015610541573d6000803e3d6000fd5b505050506040513d601f19601f8201168201806040525081019061056591906113e1565b61056f91906112cc565b10156105b0576040517f08c379a00000000000000000000000000000000000000000000000000000000081526004016105a79061134c565b60405180910390fd5b816005600085815260200190815260200160002060003373ffffffffffffffffffffffffffffffffffffffff1673ffffffffffffffffffffffffffffffffffffffff1681526020019081526020016000205461060c91906112cc565b60046000858152602001908152602001600020600101541015610664576040517f08c379a000000000000000000000000000000000000000000000000000000000815260040161065b9061145a565b60405180910390fd5b6000600460008581526020019081526020016000206004015411156106b2576004600084815260200190815260200160002060040154826106a5919061147a565b3410156106b157600080fd5b5b6004600084815260200190815260200160002060050160019054906101000a900460ff16156107a05760006107103385856040516020016106f593929190611525565b60405160208183030381529060405280519060200120610bcd565b905061075f8183600260009054906101000a900473ffffffffffffffffffffffffffffffffffffffff1673ffffffffffffffffffffffffffffffffffffffff16610c3f9092919063ffffffff16565b61079e576040517f08c379a0000000000000000000000000000000000000000000000000000000008152600401610795906115ae565b60405180910390fd5b505b600160009054906101000a900473ffffffffffffffffffffffffffffffffffffffff1673ffffffffffffffffffffffffffffffffffffffff1663731133e9336001856040518463ffffffff1660e01b815260040161080093929190611605565b600060405180830381600087803b15801561081a57600080fd5b505af115801561082e573d6000803e3d6000fd5b50505050816005600085815260200190815260200160002060003373ffffffffffffffffffffffffffffffffffffffff1673ffffffffffffffffffffffffffffffffffffffff168152602001908152602001600020600082825461089291906112cc565b92505081905550816004600085815260200190815260200160002060030160008282546108bf91906112cc565b925050819055507f4c209b5fc8ad50758f13e2e1088ba56a560dff690a1c6fef26394f4c03821c4f3383856040516108f99392919061164f565b60405180910390a1505050565b61090e610a82565b60004711610951576040517f08c379a0000000000000000000000000000000000000000000000000000000008152600401610948906116d2565b60405180910390fd5b60003390508073ffffffffffffffffffffffffffffffffffffffff166108fc479081150290604051600060405180830381858888f1935050505015801561099c573d6000803e3d6000fd5b5050565b60046020528060005260406000206000915090508060000154908060010154908060020154908060030154908060040154908060050160009054906101000a900460ff16908060050160019054906101000a900460ff16905087565b610a04610a82565b600073ffffffffffffffffffffffffffffffffffffffff168173ffffffffffffffffffffffffffffffffffffffff1603610a765760006040517f1e4fbdf7000000000000000000000000000000000000000000000000000000008152600401610a6d9190610f39565b60405180910390fd5b610a7f81610b09565b50565b610a8a610c82565b73ffffffffffffffffffffffffffffffffffffffff16610aa8610365565b73ffffffffffffffffffffffffffffffffffffffff1614610b0757610acb610c82565b6040517f118cdaa7000000000000000000000000000000000000000000000000000000008152600401610afe9190610f39565b60405180910390fd5b565b60008060009054906101000a900473ffffffffffffffffffffffffffffffffffffffff169050816000806101000a81548173ffffffffffffffffffffffffffffffffffffffff021916908373ffffffffffffffffffffffffffffffffffffffff1602179055508173ffffffffffffffffffffffffffffffffffffffff168173ffffffffffffffffffffffffffffffffffffffff167f8be0079c531659141344cd1fd0a4f28419497f9722a3daafe3b4186f6b6457e060405160405180910390a35050565b6000806040518060400160405280601c81526020017f19457468657265756d205369676e6564204d6573736167653a0a333200000000815250905060008184604051602001610c1d92919061178e565b6040516020818303038152906040528051906020012090508092505050919050565b6000610c4b8383610c8a565b73ffffffffffffffffffffffffffffffffffffffff168473ffffffffffffffffffffffffffffffffffffffff161490509392505050565b600033905090565b60006041825114610c9a57600080fd5b60008060006020850151915060408501519050606085015160001a925060018684848460405160008152602001604052604051610cda94939291906117e1565b6020604051602081039080840390855afa158015610cfc573d6000803e3d6000fd5b50505060206040510351935050505092915050565b6000604051905090565b600080fd5b600080fd5b6000819050919050565b610d3881610d25565b8114610d4357600080fd5b50565b600081359050610d5581610d2f565b92915050565b600073ffffffffffffffffffffffffffffffffffffffff82169050919050565b6000610d8682610d5b565b9050919050565b610d9681610d7b565b8114610da157600080fd5b50565b600081359050610db381610d8d565b92915050565b60008060408385031215610dd057610dcf610d1b565b5b6000610dde85828601610d46565b9250506020610def85828601610da4565b9150509250929050565b610e0281610d25565b82525050565b6000602082019050610e1d6000830184610df9565b92915050565b600060208284031215610e3957610e38610d1b565b5b6000610e4784828501610d46565b91505092915050565b60008115159050919050565b610e6581610e50565b8114610e7057600080fd5b50565b600081359050610e8281610e5c565b92915050565b600080600080600080600060e0888a031215610ea757610ea6610d1b565b5b6000610eb58a828b01610d46565b9750506020610ec68a828b01610d46565b9650506040610ed78a828b01610d46565b9550506060610ee88a828b01610d46565b9450506080610ef98a828b01610d46565b93505060a0610f0a8a828b01610e73565b92505060c0610f1b8a828b01610e73565b91505092959891949750929550565b610f3381610d7b565b82525050565b6000602082019050610f4e6000830184610f2a565b92915050565b600080fd5b600080fd5b6000601f19601f8301169050919050565b7f4e487b7100000000000000000000000000000000000000000000000000000000600052604160045260246000fd5b610fa782610f5e565b810181811067ffffffffffffffff82111715610fc657610fc5610f6f565b5b80604052505050565b6000610fd9610d11565b9050610fe58282610f9e565b919050565b600067ffffffffffffffff82111561100557611004610f6f565b5b61100e82610f5e565b9050602081019050919050565b82818337600083830152505050565b600061103d61103884610fea565b610fcf565b90508281526020810184848401111561105957611058610f59565b5b61106484828561101b565b509392505050565b600082601f83011261108157611080610f54565b5b813561109184826020860161102a565b91505092915050565b6000806000606084860312156110b3576110b2610d1b565b5b60006110c186828701610d46565b93505060206110d286828701610d46565b925050604084013567ffffffffffffffff8111156110f3576110f2610d20565b5b6110ff8682870161106c565b9150509250925092565b61111281610e50565b82525050565b600060e08201905061112d600083018a610df9565b61113a6020830189610df9565b6111476040830188610df9565b6111546060830187610df9565b6111616080830186610df9565b61116e60a0830185611109565b61117b60c0830184611109565b98975050505050505050565b60006020828403121561119d5761119c610d1b565b5b60006111ab84828501610da4565b91505092915050565b600082825260208201905092915050565b7f4d696e74207068617365206973206e6f7420617661696c61626c650000000000600082015250565b60006111fb601b836111b4565b9150611206826111c5565b602082019050919050565b6000602082019050818103600083015261122a816111ee565b9050919050565b7f4f766572206d6178207065722062617463680000000000000000000000000000600082015250565b60006112676012836111b4565b915061127282611231565b602082019050919050565b600060208201905081810360008301526112968161125a565b9050919050565b7f4e487b7100000000000000000000000000000000000000000000000000000000600052601160045260246000fd5b60006112d782610d25565b91506112e283610d25565b92508282019050808211156112fa576112f961129d565b5b92915050565b7f4f766572206d617820737570706c790000000000000000000000000000000000600082015250565b6000611336600f836111b4565b915061134182611300565b602082019050919050565b6000602082019050818103600083015261136581611329565b9050919050565b6000819050919050565b6000819050919050565b600061139b6113966113918461136c565b611376565b610d25565b9050919050565b6113ab81611380565b82525050565b60006020820190506113c660008301846113a2565b92915050565b6000815190506113db81610d2f565b92915050565b6000602082840312156113f7576113f6610d1b565b5b6000611405848285016113cc565b91505092915050565b7f4f766572206d617820776c000000000000000000000000000000000000000000600082015250565b6000611444600b836111b4565b915061144f8261140e565b602082019050919050565b6000602082019050818103600083015261147381611437565b9050919050565b600061148582610d25565b915061149083610d25565b925082820261149e81610d25565b915082820484148315176114b5576114b461129d565b5b5092915050565b60008160601b9050919050565b60006114d4826114bc565b9050919050565b60006114e6826114c9565b9050919050565b6114fe6114f982610d7b565b6114db565b82525050565b6000819050919050565b61151f61151a82610d25565b611504565b82525050565b600061153182866114ed565b601482019150611541828561150e565b602082019150611551828461150e565b602082019150819050949350505050565b7f496e76616c6964207369676e6174757265000000000000000000000000000000600082015250565b60006115986011836111b4565b91506115a382611562565b602082019050919050565b600060208201905081810360008301526115c78161158b565b9050919050565b600082825260208201905092915050565b50565b60006115ef6000836115ce565b91506115fa826115df565b600082019050919050565b600060808201905061161a6000830186610f2a565b61162760208301856113a2565b6116346040830184610df9565b8181036060830152611645816115e2565b9050949350505050565b60006060820190506116646000830186610f2a565b6116716020830185610df9565b61167e6040830184610df9565b949350505050565b7f4e6f7468696e6720746f20776974686472617700000000000000000000000000600082015250565b60006116bc6013836111b4565b91506116c782611686565b602082019050919050565b600060208201905081810360008301526116eb816116af565b9050919050565b600081519050919050565b600081905092915050565b60005b8381101561172657808201518184015260208101905061170b565b60008484015250505050565b600061173d826116f2565b61174781856116fd565b9350611757818560208601611708565b80840191505092915050565b6000819050919050565b6000819050919050565b61178861178382611763565b61176d565b82525050565b600061179a8285611732565b91506117a68284611777565b6020820191508190509392505050565b6117bf81611763565b82525050565b600060ff82169050919050565b6117db816117c5565b82525050565b60006080820190506117f660008301876117b6565b61180360208301866117d2565b61181060408301856117b6565b61181d60608301846117b6565b9594505050505056fea26469706673582212201db497d7be9df097081231b6f632cbfd42ab33e044ce2751e3284165c258664c64736f6c63430008140033",
  "linkReferences": {},
  "deployedLinkReferences": {}
}