{
  "_format": "hh-sol-artifact-1",
  "contractName": "Gangster",
  "sourceName": "contracts/Gangster.sol",
  "abi": [
    {
      "inputs": [
        {
          "internalType": "address",
          "name": "defaultAdmin",
          "type": "address"
        },
        {
          "internalType": "address",
          "name": "minter",
          "type": "address"
        }
      ],
      "stateMutability": "nonpayable",
      "type": "constructor"
    },
    {
      "inputs": [],
      "name": "AccessControlBadConfirmation",
      "type": "error"
    },
    {
      "inputs": [
        {
          "internalType": "address",
          "name": "account",
          "type": "address"
        },
        {
          "internalType": "bytes32",
          "name": "neededRole",
          "type": "bytes32"
        }
      ],
      "name": "AccessControlUnauthorizedAccount",
      "type": "error"
    },
    {
      "inputs": [
        {
          "internalType": "address",
          "name": "sender",
          "type": "address"
        },
        {
          "internalType": "uint256",
          "name": "balance",
          "type": "uint256"
        },
        {
          "internalType": "uint256",
          "name": "needed",
          "type": "uint256"
        },
        {
          "internalType": "uint256",
          "name": "tokenId",
          "type": "uint256"
        }
      ],
      "name": "ERC1155InsufficientBalance",
      "type": "error"
    },
    {
      "inputs": [
        {
          "internalType": "address",
          "name": "approver",
          "type": "address"
        }
      ],
      "name": "ERC1155InvalidApprover",
      "type": "error"
    },
    {
      "inputs": [
        {
          "internalType": "uint256",
          "name": "idsLength",
          "type": "uint256"
        },
        {
          "internalType": "uint256",
          "name": "valuesLength",
          "type": "uint256"
        }
      ],
      "name": "ERC1155InvalidArrayLength",
      "type": "error"
    },
    {
      "inputs": [
        {
          "internalType": "address",
          "name": "operator",
          "type": "address"
        }
      ],
      "name": "ERC1155InvalidOperator",
      "type": "error"
    },
    {
      "inputs": [
        {
          "internalType": "address",
          "name": "receiver",
          "type": "address"
        }
      ],
      "name": "ERC1155InvalidReceiver",
      "type": "error"
    },
    {
      "inputs": [
        {
          "internalType": "address",
          "name": "sender",
          "type": "address"
        }
      ],
      "name": "ERC1155InvalidSender",
      "type": "error"
    },
    {
      "inputs": [
        {
          "internalType": "address",
          "name": "operator",
          "type": "address"
        },
        {
          "internalType": "address",
          "name": "owner",
          "type": "address"
        }
      ],
      "name": "ERC1155MissingApprovalForAll",
      "type": "error"
    },
    {
      "anonymous": false,
      "inputs": [
        {
          "indexed": true,
          "internalType": "address",
          "name": "account",
          "type": "address"
        },
        {
          "indexed": true,
          "internalType": "address",
          "name": "operator",
          "type": "address"
        },
        {
          "indexed": false,
          "internalType": "bool",
          "name": "approved",
          "type": "bool"
        }
      ],
      "name": "ApprovalForAll",
      "type": "event"
    },
    {
      "anonymous": false,
      "inputs": [
        {
          "indexed": true,
          "internalType": "bytes32",
          "name": "role",
          "type": "bytes32"
        },
        {
          "indexed": true,
          "internalType": "bytes32",
          "name": "previousAdminRole",
          "type": "bytes32"
        },
        {
          "indexed": true,
          "internalType": "bytes32",
          "name": "newAdminRole",
          "type": "bytes32"
        }
      ],
      "name": "RoleAdminChanged",
      "type": "event"
    },
    {
      "anonymous": false,
      "inputs": [
        {
          "indexed": true,
          "internalType": "bytes32",
          "name": "role",
          "type": "bytes32"
        },
        {
          "indexed": true,
          "internalType": "address",
          "name": "account",
          "type": "address"
        },
        {
          "indexed": true,
          "internalType": "address",
          "name": "sender",
          "type": "address"
        }
      ],
      "name": "RoleGranted",
      "type": "event"
    },
    {
      "anonymous": false,
      "inputs": [
        {
          "indexed": true,
          "internalType": "bytes32",
          "name": "role",
          "type": "bytes32"
        },
        {
          "indexed": true,
          "internalType": "address",
          "name": "account",
          "type": "address"
        },
        {
          "indexed": true,
          "internalType": "address",
          "name": "sender",
          "type": "address"
        }
      ],
      "name": "RoleRevoked",
      "type": "event"
    },
    {
      "anonymous": false,
      "inputs": [
        {
          "indexed": true,
          "internalType": "address",
          "name": "operator",
          "type": "address"
        },
        {
          "indexed": true,
          "internalType": "address",
          "name": "from",
          "type": "address"
        },
        {
          "indexed": true,
          "internalType": "address",
          "name": "to",
          "type": "address"
        },
        {
          "indexed": false,
          "internalType": "uint256[]",
          "name": "ids",
          "type": "uint256[]"
        },
        {
          "indexed": false,
          "internalType": "uint256[]",
          "name": "values",
          "type": "uint256[]"
        }
      ],
      "name": "TransferBatch",
      "type": "event"
    },
    {
      "anonymous": false,
      "inputs": [
        {
          "indexed": true,
          "internalType": "address",
          "name": "operator",
          "type": "address"
        },
        {
          "indexed": true,
          "internalType": "address",
          "name": "from",
          "type": "address"
        },
        {
          "indexed": true,
          "internalType": "address",
          "name": "to",
          "type": "address"
        },
        {
          "indexed": false,
          "internalType": "uint256",
          "name": "id",
          "type": "uint256"
        },
        {
          "indexed": false,
          "internalType": "uint256",
          "name": "value",
          "type": "uint256"
        }
      ],
      "name": "TransferSingle",
      "type": "event"
    },
    {
      "anonymous": false,
      "inputs": [
        {
          "indexed": false,
          "internalType": "string",
          "name": "value",
          "type": "string"
        },
        {
          "indexed": true,
          "internalType": "uint256",
          "name": "id",
          "type": "uint256"
        }
      ],
      "name": "URI",
      "type": "event"
    },
    {
      "inputs": [],
      "name": "DEFAULT_ADMIN_ROLE",
      "outputs": [
        {
          "internalType": "bytes32",
          "name": "",
          "type": "bytes32"
        }
      ],
      "stateMutability": "view",
      "type": "function"
    },
    {
      "inputs": [],
      "name": "MINTER_ROLE",
      "outputs": [
        {
          "internalType": "bytes32",
          "name": "",
          "type": "bytes32"
        }
      ],
      "stateMutability": "view",
      "type": "function"
    },
    {
      "inputs": [],
      "name": "URI_SETTER_ROLE",
      "outputs": [
        {
          "internalType": "bytes32",
          "name": "",
          "type": "bytes32"
        }
      ],
      "stateMutability": "view",
      "type": "function"
    },
    {
      "inputs": [
        {
          "internalType": "address",
          "name": "account",
          "type": "address"
        },
        {
          "internalType": "uint256",
          "name": "id",
          "type": "uint256"
        }
      ],
      "name": "balanceOf",
      "outputs": [
        {
          "internalType": "uint256",
          "name": "",
          "type": "uint256"
        }
      ],
      "stateMutability": "view",
      "type": "function"
    },
    {
      "inputs": [
        {
          "internalType": "address[]",
          "name": "accounts",
          "type": "address[]"
        },
        {
          "internalType": "uint256[]",
          "name": "ids",
          "type": "uint256[]"
        }
      ],
      "name": "balanceOfBatch",
      "outputs": [
        {
          "internalType": "uint256[]",
          "name": "",
          "type": "uint256[]"
        }
      ],
      "stateMutability": "view",
      "type": "function"
    },
    {
      "inputs": [
        {
          "internalType": "address",
          "name": "account",
          "type": "address"
        },
        {
          "internalType": "uint256",
          "name": "id",
          "type": "uint256"
        },
        {
          "internalType": "uint256",
          "name": "value",
          "type": "uint256"
        }
      ],
      "name": "burn",
      "outputs": [],
      "stateMutability": "nonpayable",
      "type": "function"
    },
    {
      "inputs": [
        {
          "internalType": "address",
          "name": "account",
          "type": "address"
        },
        {
          "internalType": "uint256[]",
          "name": "ids",
          "type": "uint256[]"
        },
        {
          "internalType": "uint256[]",
          "name": "values",
          "type": "uint256[]"
        }
      ],
      "name": "burnBatch",
      "outputs": [],
      "stateMutability": "nonpayable",
      "type": "function"
    },
    {
      "inputs": [
        {
          "internalType": "uint256",
          "name": "id",
          "type": "uint256"
        }
      ],
      "name": "exists",
      "outputs": [
        {
          "internalType": "bool",
          "name": "",
          "type": "bool"
        }
      ],
      "stateMutability": "view",
      "type": "function"
    },
    {
      "inputs": [
        {
          "internalType": "bytes32",
          "name": "role",
          "type": "bytes32"
        }
      ],
      "name": "getRoleAdmin",
      "outputs": [
        {
          "internalType": "bytes32",
          "name": "",
          "type": "bytes32"
        }
      ],
      "stateMutability": "view",
      "type": "function"
    },
    {
      "inputs": [
        {
          "internalType": "bytes32",
          "name": "role",
          "type": "bytes32"
        },
        {
          "internalType": "address",
          "name": "account",
          "type": "address"
        }
      ],
      "name": "grantRole",
      "outputs": [],
      "stateMutability": "nonpayable",
      "type": "function"
    },
    {
      "inputs": [
        {
          "internalType": "bytes32",
          "name": "role",
          "type": "bytes32"
        },
        {
          "internalType": "address",
          "name": "account",
          "type": "address"
        }
      ],
      "name": "hasRole",
      "outputs": [
        {
          "internalType": "bool",
          "name": "",
          "type": "bool"
        }
      ],
      "stateMutability": "view",
      "type": "function"
    },
    {
      "inputs": [
        {
          "internalType": "address",
          "name": "account",
          "type": "address"
        },
        {
          "internalType": "address",
          "name": "operator",
          "type": "address"
        }
      ],
      "name": "isApprovedForAll",
      "outputs": [
        {
          "internalType": "bool",
          "name": "",
          "type": "bool"
        }
      ],
      "stateMutability": "view",
      "type": "function"
    },
    {
      "inputs": [
        {
          "internalType": "address",
          "name": "account",
          "type": "address"
        },
        {
          "internalType": "uint256",
          "name": "id",
          "type": "uint256"
        },
        {
          "internalType": "uint256",
          "name": "amount",
          "type": "uint256"
        },
        {
          "internalType": "bytes",
          "name": "data",
          "type": "bytes"
        }
      ],
      "name": "mint",
      "outputs": [],
      "stateMutability": "nonpayable",
      "type": "function"
    },
    {
      "inputs": [
        {
          "internalType": "address",
          "name": "to",
          "type": "address"
        },
        {
          "internalType": "uint256[]",
          "name": "ids",
          "type": "uint256[]"
        },
        {
          "internalType": "uint256[]",
          "name": "amounts",
          "type": "uint256[]"
        },
        {
          "internalType": "bytes",
          "name": "data",
          "type": "bytes"
        }
      ],
      "name": "mintBatch",
      "outputs": [],
      "stateMutability": "nonpayable",
      "type": "function"
    },
    {
      "inputs": [
        {
          "internalType": "bytes32",
          "name": "role",
          "type": "bytes32"
        },
        {
          "internalType": "address",
          "name": "callerConfirmation",
          "type": "address"
        }
      ],
      "name": "renounceRole",
      "outputs": [],
      "stateMutability": "nonpayable",
      "type": "function"
    },
    {
      "inputs": [
        {
          "internalType": "bytes32",
          "name": "role",
          "type": "bytes32"
        },
        {
          "internalType": "address",
          "name": "account",
          "type": "address"
        }
      ],
      "name": "revokeRole",
      "outputs": [],
      "stateMutability": "nonpayable",
      "type": "function"
    },
    {
      "inputs": [
        {
          "internalType": "address",
          "name": "from",
          "type": "address"
        },
        {
          "internalType": "address",
          "name": "to",
          "type": "address"
        },
        {
          "internalType": "uint256[]",
          "name": "ids",
          "type": "uint256[]"
        },
        {
          "internalType": "uint256[]",
          "name": "values",
          "type": "uint256[]"
        },
        {
          "internalType": "bytes",
          "name": "data",
          "type": "bytes"
        }
      ],
      "name": "safeBatchTransferFrom",
      "outputs": [],
      "stateMutability": "nonpayable",
      "type": "function"
    },
    {
      "inputs": [
        {
          "internalType": "address",
          "name": "from",
          "type": "address"
        },
        {
          "internalType": "address",
          "name": "to",
          "type": "address"
        },
        {
          "internalType": "uint256",
          "name": "id",
          "type": "uint256"
        },
        {
          "internalType": "uint256",
          "name": "value",
          "type": "uint256"
        },
        {
          "internalType": "bytes",
          "name": "data",
          "type": "bytes"
        }
      ],
      "name": "safeTransferFrom",
      "outputs": [],
      "stateMutability": "nonpayable",
      "type": "function"
    },
    {
      "inputs": [
        {
          "internalType": "address",
          "name": "operator",
          "type": "address"
        },
        {
          "internalType": "bool",
          "name": "approved",
          "type": "bool"
        }
      ],
      "name": "setApprovalForAll",
      "outputs": [],
      "stateMutability": "nonpayable",
      "type": "function"
    },
    {
      "inputs": [
        {
          "internalType": "string",
          "name": "newuri",
          "type": "string"
        }
      ],
      "name": "setURI",
      "outputs": [],
      "stateMutability": "nonpayable",
      "type": "function"
    },
    {
      "inputs": [
        {
          "internalType": "bytes4",
          "name": "interfaceId",
          "type": "bytes4"
        }
      ],
      "name": "supportsInterface",
      "outputs": [
        {
          "internalType": "bool",
          "name": "",
          "type": "bool"
        }
      ],
      "stateMutability": "view",
      "type": "function"
    },
    {
      "inputs": [],
      "name": "totalSupply",
      "outputs": [
        {
          "internalType": "uint256",
          "name": "",
          "type": "uint256"
        }
      ],
      "stateMutability": "view",
      "type": "function"
    },
    {
      "inputs": [
        {
          "internalType": "uint256",
          "name": "id",
          "type": "uint256"
        }
      ],
      "name": "totalSupply",
      "outputs": [
        {
          "internalType": "uint256",
          "name": "",
          "type": "uint256"
        }
      ],
      "stateMutability": "view",
      "type": "function"
    },
    {
      "inputs": [
        {
          "internalType": "uint256",
          "name": "",
          "type": "uint256"
        }
      ],
      "name": "uri",
      "outputs": [
        {
          "internalType": "string",
          "name": "",
          "type": "string"
        }
      ],
      "stateMutability": "view",
      "type": "function"
    }
  ],
  "bytecode": "0x60806040523480156200001157600080fd5b50604051620039e8380380620039e88339818101604052810190620000379190620002a0565b604051806020016040528060008152506200005881620000aa60201b60201c565b506200006e6000801b83620000bf60201b60201c565b50620000a17f9f2df0fed2c77648de5860a4cc508cd0818c85b8b8a1ab4ceeef8d981c8956a682620000bf60201b60201c565b50505062000648565b8060029081620000bb919062000561565b5050565b6000620000d38383620001c360201b60201c565b620001b85760016003600085815260200190815260200160002060000160008473ffffffffffffffffffffffffffffffffffffffff1673ffffffffffffffffffffffffffffffffffffffff16815260200190815260200160002060006101000a81548160ff021916908315150217905550620001546200022e60201b60201c565b73ffffffffffffffffffffffffffffffffffffffff168273ffffffffffffffffffffffffffffffffffffffff16847f2f8788117e7eff1d82e926ec794901d17c78024a50270940304540a733656f0d60405160405180910390a460019050620001bd565b600090505b92915050565b60006003600084815260200190815260200160002060000160008373ffffffffffffffffffffffffffffffffffffffff1673ffffffffffffffffffffffffffffffffffffffff16815260200190815260200160002060009054906101000a900460ff16905092915050565b600033905090565b600080fd5b600073ffffffffffffffffffffffffffffffffffffffff82169050919050565b600062000268826200023b565b9050919050565b6200027a816200025b565b81146200028657600080fd5b50565b6000815190506200029a816200026f565b92915050565b60008060408385031215620002ba57620002b962000236565b5b6000620002ca8582860162000289565b9250506020620002dd8582860162000289565b9150509250929050565b600081519050919050565b7f4e487b7100000000000000000000000000000000000000000000000000000000600052604160045260246000fd5b7f4e487b7100000000000000000000000000000000000000000000000000000000600052602260045260246000fd5b600060028204905060018216806200036957607f821691505b6020821081036200037f576200037e62000321565b5b50919050565b60008190508160005260206000209050919050565b60006020601f8301049050919050565b600082821b905092915050565b600060088302620003e97fffffffffffffffffffffffffffffffffffffffffffffffffffffffffffffffff82620003aa565b620003f58683620003aa565b95508019841693508086168417925050509392505050565b6000819050919050565b6000819050919050565b6000620004426200043c62000436846200040d565b62000417565b6200040d565b9050919050565b6000819050919050565b6200045e8362000421565b620004766200046d8262000449565b848454620003b7565b825550505050565b600090565b6200048d6200047e565b6200049a81848462000453565b505050565b5b81811015620004c257620004b660008262000483565b600181019050620004a0565b5050565b601f8211156200051157620004db8162000385565b620004e6846200039a565b81016020851015620004f6578190505b6200050e62000505856200039a565b8301826200049f565b50505b505050565b600082821c905092915050565b6000620005366000198460080262000516565b1980831691505092915050565b600062000551838362000523565b9150826002028217905092915050565b6200056c82620002e7565b67ffffffffffffffff811115620005885762000587620002f2565b5b62000594825462000350565b620005a1828285620004c6565b600060209050601f831160018114620005d95760008415620005c4578287015190505b620005d0858262000543565b86555062000640565b601f198416620005e98662000385565b60005b828110156200061357848901518255600182019150602085019450602081019050620005ec565b868310156200063357848901516200062f601f89168262000523565b8355505b6001600288020188555050505b505050505050565b61339080620006586000396000f3fe608060405234801561001057600080fd5b50600436106101575760003560e01c80636b20c454116100c3578063bd85b0391161007c578063bd85b039146103e6578063d539139314610416578063d547741f14610434578063e985e9c514610450578063f242432a14610480578063f5298aca1461049c57610157565b80636b20c45414610326578063731133e9146103425780637f3457101461035e57806391d148541461037c578063a217fddf146103ac578063a22cb465146103ca57610157565b8063248a9ca311610115578063248a9ca3146102425780632eb2c2d6146102725780632f2ff15d1461028e57806336568abe146102aa5780634e1273f4146102c65780634f558e79146102f657610157565b8062fdd58e1461015c57806301ffc9a71461018c57806302fe5305146101bc5780630e89341c146101d857806318160ddd146102085780631f7fdffa14610226575b600080fd5b61017660048036038101906101719190612127565b6104b8565b6040516101839190612176565b60405180910390f35b6101a660048036038101906101a191906121e9565b610512565b6040516101b39190612231565b60405180910390f35b6101d660048036038101906101d19190612392565b610524565b005b6101f260048036038101906101ed91906123db565b61055b565b6040516101ff9190612487565b60405180910390f35b6102106105ef565b60405161021d9190612176565b60405180910390f35b610240600480360381019061023b9190612612565b6105f9565b005b61025c60048036038101906102579190612703565b610636565b604051610269919061273f565b60405180910390f35b61028c6004803603810190610287919061275a565b610656565b005b6102a860048036038101906102a39190612829565b6106fe565b005b6102c460048036038101906102bf9190612829565b610720565b005b6102e060048036038101906102db919061292c565b61079b565b6040516102ed9190612a62565b60405180910390f35b610310600480360381019061030b91906123db565b6108aa565b60405161031d9190612231565b60405180910390f35b610340600480360381019061033b9190612a84565b6108be565b005b61035c60048036038101906103579190612b0f565b61096a565b005b6103666109a7565b604051610373919061273f565b60405180910390f35b61039660048036038101906103919190612829565b6109cb565b6040516103a39190612231565b60405180910390f35b6103b4610a36565b6040516103c1919061273f565b60405180910390f35b6103e460048036038101906103df9190612bbe565b610a3d565b005b61040060048036038101906103fb91906123db565b610a53565b60405161040d9190612176565b60405180910390f35b61041e610a70565b60405161042b919061273f565b60405180910390f35b61044e60048036038101906104499190612829565b610a94565b005b61046a60048036038101906104659190612bfe565b610ab6565b6040516104779190612231565b60405180910390f35b61049a60048036038101906104959190612c3e565b610b4a565b005b6104b660048036038101906104b19190612cd5565b610bf2565b005b600080600083815260200190815260200160002060008473ffffffffffffffffffffffffffffffffffffffff1673ffffffffffffffffffffffffffffffffffffffff16815260200190815260200160002054905092915050565b600061051d82610c9e565b9050919050565b7f7804d923f43a17d325d77e781528e0793b2edd9890ab45fc64efd7b4b427744c61054e81610d18565b61055782610d2c565b5050565b60606002805461056a90612d57565b80601f016020809104026020016040519081016040528092919081815260200182805461059690612d57565b80156105e35780601f106105b8576101008083540402835291602001916105e3565b820191906000526020600020905b8154815290600101906020018083116105c657829003601f168201915b50505050509050919050565b6000600554905090565b7f9f2df0fed2c77648de5860a4cc508cd0818c85b8b8a1ab4ceeef8d981c8956a661062381610d18565b61062f85858585610d3f565b5050505050565b600060036000838152602001908152602001600020600101549050919050565b6000610660610dc5565b90508073ffffffffffffffffffffffffffffffffffffffff168673ffffffffffffffffffffffffffffffffffffffff16141580156106a557506106a38682610ab6565b155b156106e95780866040517fe237d9220000000000000000000000000000000000000000000000000000000081526004016106e0929190612d97565b60405180910390fd5b6106f68686868686610dcd565b505050505050565b61070782610636565b61071081610d18565b61071a8383610ec5565b50505050565b610728610dc5565b73ffffffffffffffffffffffffffffffffffffffff168173ffffffffffffffffffffffffffffffffffffffff161461078c576040517f6697b23200000000000000000000000000000000000000000000000000000000815260040160405180910390fd5b6107968282610fb7565b505050565b606081518351146107e757815183516040517f5b0599910000000000000000000000000000000000000000000000000000000081526004016107de929190612dc0565b60405180910390fd5b6000835167ffffffffffffffff81111561080457610803612267565b5b6040519080825280602002602001820160405280156108325781602001602082028036833780820191505090505b50905060005b845181101561089f5761086f61085782876110aa90919063ffffffff16565b61086a83876110be90919063ffffffff16565b6104b8565b82828151811061088257610881612de9565b5b6020026020010181815250508061089890612e47565b9050610838565b508091505092915050565b6000806108b683610a53565b119050919050565b6108c6610dc5565b73ffffffffffffffffffffffffffffffffffffffff168373ffffffffffffffffffffffffffffffffffffffff161415801561090f575061090d83610908610dc5565b610ab6565b155b1561095a5761091c610dc5565b836040517fe237d922000000000000000000000000000000000000000000000000000000008152600401610951929190612d97565b60405180910390fd5b6109658383836110d2565b505050565b7f9f2df0fed2c77648de5860a4cc508cd0818c85b8b8a1ab4ceeef8d981c8956a661099481610d18565b6109a085858585611166565b5050505050565b7f7804d923f43a17d325d77e781528e0793b2edd9890ab45fc64efd7b4b427744c81565b60006003600084815260200190815260200160002060000160008373ffffffffffffffffffffffffffffffffffffffff1673ffffffffffffffffffffffffffffffffffffffff16815260200190815260200160002060009054906101000a900460ff16905092915050565b6000801b81565b610a4f610a48610dc5565b83836111ff565b5050565b600060046000838152602001908152602001600020549050919050565b7f9f2df0fed2c77648de5860a4cc508cd0818c85b8b8a1ab4ceeef8d981c8956a681565b610a9d82610636565b610aa681610d18565b610ab08383610fb7565b50505050565b6000600160008473ffffffffffffffffffffffffffffffffffffffff1673ffffffffffffffffffffffffffffffffffffffff16815260200190815260200160002060008373ffffffffffffffffffffffffffffffffffffffff1673ffffffffffffffffffffffffffffffffffffffff16815260200190815260200160002060009054906101000a900460ff16905092915050565b6000610b54610dc5565b90508073ffffffffffffffffffffffffffffffffffffffff168673ffffffffffffffffffffffffffffffffffffffff1614158015610b995750610b978682610ab6565b155b15610bdd5780866040517fe237d922000000000000000000000000000000000000000000000000000000008152600401610bd4929190612d97565b60405180910390fd5b610bea868686868661136f565b505050505050565b610bfa610dc5565b73ffffffffffffffffffffffffffffffffffffffff168373ffffffffffffffffffffffffffffffffffffffff1614158015610c435750610c4183610c3c610dc5565b610ab6565b155b15610c8e57610c50610dc5565b836040517fe237d922000000000000000000000000000000000000000000000000000000008152600401610c85929190612d97565b60405180910390fd5b610c9983838361147a565b505050565b60007f7965db0b000000000000000000000000000000000000000000000000000000007bffffffffffffffffffffffffffffffffffffffffffffffffffffffff1916827bffffffffffffffffffffffffffffffffffffffffffffffffffffffff19161480610d115750610d1082611521565b5b9050919050565b610d2981610d24610dc5565b611603565b50565b8060029081610d3b919061303b565b5050565b600073ffffffffffffffffffffffffffffffffffffffff168473ffffffffffffffffffffffffffffffffffffffff1603610db15760006040517f57f447ce000000000000000000000000000000000000000000000000000000008152600401610da8919061310d565b60405180910390fd5b610dbf600085858585611654565b50505050565b600033905090565b600073ffffffffffffffffffffffffffffffffffffffff168473ffffffffffffffffffffffffffffffffffffffff1603610e3f5760006040517f57f447ce000000000000000000000000000000000000000000000000000000008152600401610e36919061310d565b60405180910390fd5b600073ffffffffffffffffffffffffffffffffffffffff168573ffffffffffffffffffffffffffffffffffffffff1603610eb15760006040517f01a83514000000000000000000000000000000000000000000000000000000008152600401610ea8919061310d565b60405180910390fd5b610ebe8585858585611654565b5050505050565b6000610ed183836109cb565b610fac5760016003600085815260200190815260200160002060000160008473ffffffffffffffffffffffffffffffffffffffff1673ffffffffffffffffffffffffffffffffffffffff16815260200190815260200160002060006101000a81548160ff021916908315150217905550610f49610dc5565b73ffffffffffffffffffffffffffffffffffffffff168273ffffffffffffffffffffffffffffffffffffffff16847f2f8788117e7eff1d82e926ec794901d17c78024a50270940304540a733656f0d60405160405180910390a460019050610fb1565b600090505b92915050565b6000610fc383836109cb565b1561109f5760006003600085815260200190815260200160002060000160008473ffffffffffffffffffffffffffffffffffffffff1673ffffffffffffffffffffffffffffffffffffffff16815260200190815260200160002060006101000a81548160ff02191690831515021790555061103c610dc5565b73ffffffffffffffffffffffffffffffffffffffff168273ffffffffffffffffffffffffffffffffffffffff16847ff6391f5c32d9c69d2a47ea670b442974b53935d1edc7fd64eb21e047a839171b60405160405180910390a4600190506110a4565b600090505b92915050565b600060208202602084010151905092915050565b600060208202602084010151905092915050565b600073ffffffffffffffffffffffffffffffffffffffff168373ffffffffffffffffffffffffffffffffffffffff16036111445760006040517f01a8351400000000000000000000000000000000000000000000000000000000815260040161113b919061310d565b60405180910390fd5b611161836000848460405180602001604052806000815250611654565b505050565b600073ffffffffffffffffffffffffffffffffffffffff168473ffffffffffffffffffffffffffffffffffffffff16036111d85760006040517f57f447ce0000000000000000000000000000000000000000000000000000000081526004016111cf919061310d565b60405180910390fd5b6000806111e58585611706565b915091506111f7600087848487611654565b505050505050565b600073ffffffffffffffffffffffffffffffffffffffff168273ffffffffffffffffffffffffffffffffffffffff16036112715760006040517fced3e100000000000000000000000000000000000000000000000000000000008152600401611268919061310d565b60405180910390fd5b80600160008573ffffffffffffffffffffffffffffffffffffffff1673ffffffffffffffffffffffffffffffffffffffff16815260200190815260200160002060008473ffffffffffffffffffffffffffffffffffffffff1673ffffffffffffffffffffffffffffffffffffffff16815260200190815260200160002060006101000a81548160ff0219169083151502179055508173ffffffffffffffffffffffffffffffffffffffff168373ffffffffffffffffffffffffffffffffffffffff167f17307eab39ab6107e8899845ad3d59bd9653f200f220920489ca2b5937696c31836040516113629190612231565b60405180910390a3505050565b600073ffffffffffffffffffffffffffffffffffffffff168473ffffffffffffffffffffffffffffffffffffffff16036113e15760006040517f57f447ce0000000000000000000000000000000000000000000000000000000081526004016113d8919061310d565b60405180910390fd5b600073ffffffffffffffffffffffffffffffffffffffff168573ffffffffffffffffffffffffffffffffffffffff16036114535760006040517f01a8351400000000000000000000000000000000000000000000000000000000815260040161144a919061310d565b60405180910390fd5b6000806114608585611706565b915091506114718787848487611654565b50505050505050565b600073ffffffffffffffffffffffffffffffffffffffff168373ffffffffffffffffffffffffffffffffffffffff16036114ec5760006040517f01a835140000000000000000000000000000000000000000000000000000000081526004016114e3919061310d565b60405180910390fd5b6000806114f98484611706565b9150915061151a856000848460405180602001604052806000815250611654565b5050505050565b60007fd9b67a26000000000000000000000000000000000000000000000000000000007bffffffffffffffffffffffffffffffffffffffffffffffffffffffff1916827bffffffffffffffffffffffffffffffffffffffffffffffffffffffff191614806115ec57507f0e89341c000000000000000000000000000000000000000000000000000000007bffffffffffffffffffffffffffffffffffffffffffffffffffffffff1916827bffffffffffffffffffffffffffffffffffffffffffffffffffffffff1916145b806115fc57506115fb82611736565b5b9050919050565b61160d82826109cb565b6116505780826040517fe2517d3f000000000000000000000000000000000000000000000000000000008152600401611647929190613128565b60405180910390fd5b5050565b611660858585856117a0565b600073ffffffffffffffffffffffffffffffffffffffff168473ffffffffffffffffffffffffffffffffffffffff16146116ff57600061169e610dc5565b905060018451036116ee5760006116bf6000866110be90919063ffffffff16565b905060006116d76000866110be90919063ffffffff16565b90506116e78389898585896117b2565b50506116fd565b6116fc818787878787611966565b5b505b5050505050565b60608060405191506001825283602083015260408201905060018152826020820152604081016040529250929050565b60007f01ffc9a7000000000000000000000000000000000000000000000000000000007bffffffffffffffffffffffffffffffffffffffffffffffffffffffff1916827bffffffffffffffffffffffffffffffffffffffffffffffffffffffff1916149050919050565b6117ac84848484611b1a565b50505050565b60008473ffffffffffffffffffffffffffffffffffffffff163b111561195e578373ffffffffffffffffffffffffffffffffffffffff1663f23a6e6187878686866040518663ffffffff1660e01b81526004016118139594939291906131a6565b6020604051808303816000875af192505050801561184f57506040513d601f19601f8201168201806040525081019061184c9190613215565b60015b6118d3573d806000811461187f576040519150601f19603f3d011682016040523d82523d6000602084013e611884565b606091505b5060008151036118cb57846040517f57f447ce0000000000000000000000000000000000000000000000000000000081526004016118c2919061310d565b60405180910390fd5b805181602001fd5b63f23a6e6160e01b7bffffffffffffffffffffffffffffffffffffffffffffffffffffffff1916817bffffffffffffffffffffffffffffffffffffffffffffffffffffffff19161461195c57846040517f57f447ce000000000000000000000000000000000000000000000000000000008152600401611953919061310d565b60405180910390fd5b505b505050505050565b60008473ffffffffffffffffffffffffffffffffffffffff163b1115611b12578373ffffffffffffffffffffffffffffffffffffffff1663bc197c8187878686866040518663ffffffff1660e01b81526004016119c7959493929190613242565b6020604051808303816000875af1925050508015611a0357506040513d601f19601f82011682018060405250810190611a009190613215565b60015b611a87573d8060008114611a33576040519150601f19603f3d011682016040523d82523d6000602084013e611a38565b606091505b506000815103611a7f57846040517f57f447ce000000000000000000000000000000000000000000000000000000008152600401611a76919061310d565b60405180910390fd5b805181602001fd5b63bc197c8160e01b7bffffffffffffffffffffffffffffffffffffffffffffffffffffffff1916817bffffffffffffffffffffffffffffffffffffffffffffffffffffffff191614611b1057846040517f57f447ce000000000000000000000000000000000000000000000000000000008152600401611b07919061310d565b60405180910390fd5b505b505050505050565b611b2684848484611cd1565b600073ffffffffffffffffffffffffffffffffffffffff168473ffffffffffffffffffffffffffffffffffffffff1603611c06576000805b8351811015611bea576000838281518110611b7c57611b7b612de9565b5b602002602001015190508060046000878581518110611b9e57611b9d612de9565b5b602002602001015181526020019081526020016000206000828254611bc391906132aa565b925050819055508083611bd691906132aa565b92505080611be390612e47565b9050611b5e565b508060056000828254611bfd91906132aa565b92505081905550505b600073ffffffffffffffffffffffffffffffffffffffff168373ffffffffffffffffffffffffffffffffffffffff1603611ccb576000805b8351811015611cb8576000838281518110611c5c57611c5b612de9565b5b602002602001015190508060046000878581518110611c7e57611c7d612de9565b5b602002602001015181526020019081526020016000206000828254039250508190555080830192505080611cb190612e47565b9050611c3e565b5080600560008282540392505081905550505b50505050565b8051825114611d1b57815181516040517f5b059991000000000000000000000000000000000000000000000000000000008152600401611d12929190612dc0565b60405180910390fd5b6000611d25610dc5565b905060005b8351811015611f3a576000611d4882866110be90919063ffffffff16565b90506000611d5f83866110be90919063ffffffff16565b9050600073ffffffffffffffffffffffffffffffffffffffff168873ffffffffffffffffffffffffffffffffffffffff1614611e8c57600080600084815260200190815260200160002060008a73ffffffffffffffffffffffffffffffffffffffff1673ffffffffffffffffffffffffffffffffffffffff16815260200190815260200160002054905081811015611e3457888183856040517f03dee4c5000000000000000000000000000000000000000000000000000000008152600401611e2b94939291906132de565b60405180910390fd5b81810360008085815260200190815260200160002060008b73ffffffffffffffffffffffffffffffffffffffff1673ffffffffffffffffffffffffffffffffffffffff16815260200190815260200160002081905550505b600073ffffffffffffffffffffffffffffffffffffffff168773ffffffffffffffffffffffffffffffffffffffff1614611f27578060008084815260200190815260200160002060008973ffffffffffffffffffffffffffffffffffffffff1673ffffffffffffffffffffffffffffffffffffffff1681526020019081526020016000206000828254611f1f91906132aa565b925050819055505b505080611f3390612e47565b9050611d2a565b506001835103611ff9576000611f5a6000856110be90919063ffffffff16565b90506000611f726000856110be90919063ffffffff16565b90508573ffffffffffffffffffffffffffffffffffffffff168773ffffffffffffffffffffffffffffffffffffffff168473ffffffffffffffffffffffffffffffffffffffff167fc3d58168c5ae7397731d063d5bbf3d657854427343f4c083240f7aacaa2d0f628585604051611fea929190612dc0565b60405180910390a45050612078565b8373ffffffffffffffffffffffffffffffffffffffff168573ffffffffffffffffffffffffffffffffffffffff168273ffffffffffffffffffffffffffffffffffffffff167f4a39dc06d4c0dbc64b70af90fd698a233a518aa5d07e595d983b8c0526c8f7fb868660405161206f929190613323565b60405180910390a45b5050505050565b6000604051905090565b600080fd5b600080fd5b600073ffffffffffffffffffffffffffffffffffffffff82169050919050565b60006120be82612093565b9050919050565b6120ce816120b3565b81146120d957600080fd5b50565b6000813590506120eb816120c5565b92915050565b6000819050919050565b612104816120f1565b811461210f57600080fd5b50565b600081359050612121816120fb565b92915050565b6000806040838503121561213e5761213d612089565b5b600061214c858286016120dc565b925050602061215d85828601612112565b9150509250929050565b612170816120f1565b82525050565b600060208201905061218b6000830184612167565b92915050565b60007fffffffff0000000000000000000000000000000000000000000000000000000082169050919050565b6121c681612191565b81146121d157600080fd5b50565b6000813590506121e3816121bd565b92915050565b6000602082840312156121ff576121fe612089565b5b600061220d848285016121d4565b91505092915050565b60008115159050919050565b61222b81612216565b82525050565b60006020820190506122466000830184612222565b92915050565b600080fd5b600080fd5b6000601f19601f8301169050919050565b7f4e487b7100000000000000000000000000000000000000000000000000000000600052604160045260246000fd5b61229f82612256565b810181811067ffffffffffffffff821117156122be576122bd612267565b5b80604052505050565b60006122d161207f565b90506122dd8282612296565b919050565b600067ffffffffffffffff8211156122fd576122fc612267565b5b61230682612256565b9050602081019050919050565b82818337600083830152505050565b6000612335612330846122e2565b6122c7565b90508281526020810184848401111561235157612350612251565b5b61235c848285612313565b509392505050565b600082601f8301126123795761237861224c565b5b8135612389848260208601612322565b91505092915050565b6000602082840312156123a8576123a7612089565b5b600082013567ffffffffffffffff8111156123c6576123c561208e565b5b6123d284828501612364565b91505092915050565b6000602082840312156123f1576123f0612089565b5b60006123ff84828501612112565b91505092915050565b600081519050919050565b600082825260208201905092915050565b60005b83811015612442578082015181840152602081019050612427565b60008484015250505050565b600061245982612408565b6124638185612413565b9350612473818560208601612424565b61247c81612256565b840191505092915050565b600060208201905081810360008301526124a1818461244e565b905092915050565b600067ffffffffffffffff8211156124c4576124c3612267565b5b602082029050602081019050919050565b600080fd5b60006124ed6124e8846124a9565b6122c7565b905080838252602082019050602084028301858111156125105761250f6124d5565b5b835b8181101561253957806125258882612112565b845260208401935050602081019050612512565b5050509392505050565b600082601f8301126125585761255761224c565b5b81356125688482602086016124da565b91505092915050565b600067ffffffffffffffff82111561258c5761258b612267565b5b61259582612256565b9050602081019050919050565b60006125b56125b084612571565b6122c7565b9050828152602081018484840111156125d1576125d0612251565b5b6125dc848285612313565b509392505050565b600082601f8301126125f9576125f861224c565b5b81356126098482602086016125a2565b91505092915050565b6000806000806080858703121561262c5761262b612089565b5b600061263a878288016120dc565b945050602085013567ffffffffffffffff81111561265b5761265a61208e565b5b61266787828801612543565b935050604085013567ffffffffffffffff8111156126885761268761208e565b5b61269487828801612543565b925050606085013567ffffffffffffffff8111156126b5576126b461208e565b5b6126c1878288016125e4565b91505092959194509250565b6000819050919050565b6126e0816126cd565b81146126eb57600080fd5b50565b6000813590506126fd816126d7565b92915050565b60006020828403121561271957612718612089565b5b6000612727848285016126ee565b91505092915050565b612739816126cd565b82525050565b60006020820190506127546000830184612730565b92915050565b600080600080600060a0868803121561277657612775612089565b5b6000612784888289016120dc565b9550506020612795888289016120dc565b945050604086013567ffffffffffffffff8111156127b6576127b561208e565b5b6127c288828901612543565b935050606086013567ffffffffffffffff8111156127e3576127e261208e565b5b6127ef88828901612543565b925050608086013567ffffffffffffffff8111156128105761280f61208e565b5b61281c888289016125e4565b9150509295509295909350565b600080604083850312156128405761283f612089565b5b600061284e858286016126ee565b925050602061285f858286016120dc565b9150509250929050565b600067ffffffffffffffff82111561288457612883612267565b5b602082029050602081019050919050565b60006128a86128a384612869565b6122c7565b905080838252602082019050602084028301858111156128cb576128ca6124d5565b5b835b818110156128f457806128e088826120dc565b8452602084019350506020810190506128cd565b5050509392505050565b600082601f8301126129135761291261224c565b5b8135612923848260208601612895565b91505092915050565b6000806040838503121561294357612942612089565b5b600083013567ffffffffffffffff8111156129615761296061208e565b5b61296d858286016128fe565b925050602083013567ffffffffffffffff81111561298e5761298d61208e565b5b61299a85828601612543565b9150509250929050565b600081519050919050565b600082825260208201905092915050565b6000819050602082019050919050565b6129d9816120f1565b82525050565b60006129eb83836129d0565b60208301905092915050565b6000602082019050919050565b6000612a0f826129a4565b612a1981856129af565b9350612a24836129c0565b8060005b83811015612a55578151612a3c88826129df565b9750612a47836129f7565b925050600181019050612a28565b5085935050505092915050565b60006020820190508181036000830152612a7c8184612a04565b905092915050565b600080600060608486031215612a9d57612a9c612089565b5b6000612aab868287016120dc565b935050602084013567ffffffffffffffff811115612acc57612acb61208e565b5b612ad886828701612543565b925050604084013567ffffffffffffffff811115612af957612af861208e565b5b612b0586828701612543565b9150509250925092565b60008060008060808587031215612b2957612b28612089565b5b6000612b37878288016120dc565b9450506020612b4887828801612112565b9350506040612b5987828801612112565b925050606085013567ffffffffffffffff811115612b7a57612b7961208e565b5b612b86878288016125e4565b91505092959194509250565b612b9b81612216565b8114612ba657600080fd5b50565b600081359050612bb881612b92565b92915050565b60008060408385031215612bd557612bd4612089565b5b6000612be3858286016120dc565b9250506020612bf485828601612ba9565b9150509250929050565b60008060408385031215612c1557612c14612089565b5b6000612c23858286016120dc565b9250506020612c34858286016120dc565b9150509250929050565b600080600080600060a08688031215612c5a57612c59612089565b5b6000612c68888289016120dc565b9550506020612c79888289016120dc565b9450506040612c8a88828901612112565b9350506060612c9b88828901612112565b925050608086013567ffffffffffffffff811115612cbc57612cbb61208e565b5b612cc8888289016125e4565b9150509295509295909350565b600080600060608486031215612cee57612ced612089565b5b6000612cfc868287016120dc565b9350506020612d0d86828701612112565b9250506040612d1e86828701612112565b9150509250925092565b7f4e487b7100000000000000000000000000000000000000000000000000000000600052602260045260246000fd5b60006002820490506001821680612d6f57607f821691505b602082108103612d8257612d81612d28565b5b50919050565b612d91816120b3565b82525050565b6000604082019050612dac6000830185612d88565b612db96020830184612d88565b9392505050565b6000604082019050612dd56000830185612167565b612de26020830184612167565b9392505050565b7f4e487b7100000000000000000000000000000000000000000000000000000000600052603260045260246000fd5b7f4e487b7100000000000000000000000000000000000000000000000000000000600052601160045260246000fd5b6000612e52826120f1565b91507fffffffffffffffffffffffffffffffffffffffffffffffffffffffffffffffff8203612e8457612e83612e18565b5b600182019050919050565b60008190508160005260206000209050919050565b60006020601f8301049050919050565b600082821b905092915050565b600060088302612ef17fffffffffffffffffffffffffffffffffffffffffffffffffffffffffffffffff82612eb4565b612efb8683612eb4565b95508019841693508086168417925050509392505050565b6000819050919050565b6000612f38612f33612f2e846120f1565b612f13565b6120f1565b9050919050565b6000819050919050565b612f5283612f1d565b612f66612f5e82612f3f565b848454612ec1565b825550505050565b600090565b612f7b612f6e565b612f86818484612f49565b505050565b5b81811015612faa57612f9f600082612f73565b600181019050612f8c565b5050565b601f821115612fef57612fc081612e8f565b612fc984612ea4565b81016020851015612fd8578190505b612fec612fe485612ea4565b830182612f8b565b50505b505050565b600082821c905092915050565b600061301260001984600802612ff4565b1980831691505092915050565b600061302b8383613001565b9150826002028217905092915050565b61304482612408565b67ffffffffffffffff81111561305d5761305c612267565b5b6130678254612d57565b613072828285612fae565b600060209050601f8311600181146130a55760008415613093578287015190505b61309d858261301f565b865550613105565b601f1984166130b386612e8f565b60005b828110156130db578489015182556001820191506020850194506020810190506130b6565b868310156130f857848901516130f4601f891682613001565b8355505b6001600288020188555050505b505050505050565b60006020820190506131226000830184612d88565b92915050565b600060408201905061313d6000830185612d88565b61314a6020830184612730565b9392505050565b600081519050919050565b600082825260208201905092915050565b600061317882613151565b613182818561315c565b9350613192818560208601612424565b61319b81612256565b840191505092915050565b600060a0820190506131bb6000830188612d88565b6131c86020830187612d88565b6131d56040830186612167565b6131e26060830185612167565b81810360808301526131f4818461316d565b90509695505050505050565b60008151905061320f816121bd565b92915050565b60006020828403121561322b5761322a612089565b5b600061323984828501613200565b91505092915050565b600060a0820190506132576000830188612d88565b6132646020830187612d88565b81810360408301526132768186612a04565b9050818103606083015261328a8185612a04565b9050818103608083015261329e818461316d565b90509695505050505050565b60006132b5826120f1565b91506132c0836120f1565b92508282019050808211156132d8576132d7612e18565b5b92915050565b60006080820190506132f36000830187612d88565b6133006020830186612167565b61330d6040830185612167565b61331a6060830184612167565b95945050505050565b6000604082019050818103600083015261333d8185612a04565b905081810360208301526133518184612a04565b9050939250505056fea2646970667358221220623ae5db5d4dad2c186ba1fc8c0c755be1563b665723ff655bd9adee6d67545564736f6c63430008140033",
  "linkReferences": {},
  "deployedLinkReferences": {}
}